{
	"contracts/FundingContract.sol": {
		"FundingContract": {
			"abi": [
				{
					"inputs": [
						{
							"internalType": "uint256",
							"name": "",
							"type": "uint256"
						},
						{
							"internalType": "address",
							"name": "",
							"type": "address"
						}
					],
					"name": "balances",
					"outputs": [
						{
							"internalType": "uint256",
							"name": "",
							"type": "uint256"
						}
					],
					"stateMutability": "view",
					"type": "function"
				},
				{
					"inputs": [
						{
							"internalType": "uint256",
							"name": "_taskId",
							"type": "uint256"
						}
					],
					"name": "fund",
					"outputs": [],
					"stateMutability": "payable",
					"type": "function"
				},
				{
					"inputs": [
						{
							"internalType": "uint256",
							"name": "_taskId",
							"type": "uint256"
						},
						{
							"internalType": "uint256",
							"name": "_amount",
							"type": "uint256"
						}
					],
					"name": "withdraw",
					"outputs": [],
					"stateMutability": "nonpayable",
					"type": "function"
				}
			],
			"devdoc": {
				"kind": "dev",
				"methods": {},
				"version": 1
			},
			"evm": {
				"assembly": "    /* \"contracts/FundingContract.sol\":61:594  contract FundingContract {... */\n  mstore(0x40, 0x80)\n  callvalue\n  dup1\n  iszero\n  tag_1\n  jumpi\n  0x00\n  dup1\n  revert\ntag_1:\n  pop\n  dataSize(sub_0)\n  dup1\n  dataOffset(sub_0)\n  0x00\n  codecopy\n  0x00\n  return\nstop\n\nsub_0: assembly {\n        /* \"contracts/FundingContract.sol\":61:594  contract FundingContract {... */\n      mstore(0x40, 0x80)\n      jumpi(tag_1, lt(calldatasize, 0x04))\n      shr(0xe0, calldataload(0x00))\n      dup1\n      0x1f320331\n      eq\n      tag_2\n      jumpi\n      dup1\n      0x441a3e70\n      eq\n      tag_3\n      jumpi\n      dup1\n      0xca1d209d\n      eq\n      tag_4\n      jumpi\n    tag_1:\n      0x00\n      dup1\n      revert\n        /* \"contracts/FundingContract.sol\":93:150  mapping(uint => mapping(address => uint)) public balances */\n    tag_2:\n      callvalue\n      dup1\n      iszero\n      tag_5\n      jumpi\n      0x00\n      dup1\n      revert\n    tag_5:\n      pop\n      tag_6\n      0x04\n      dup1\n      calldatasize\n      sub\n      dup2\n      add\n      swap1\n      tag_7\n      swap2\n      swap1\n      tag_8\n      jump\t// in\n    tag_7:\n      tag_9\n      jump\t// in\n    tag_6:\n      mload(0x40)\n      tag_10\n      swap2\n      swap1\n      tag_11\n      jump\t// in\n    tag_10:\n      mload(0x40)\n      dup1\n      swap2\n      sub\n      swap1\n      return\n        /* \"contracts/FundingContract.sol\":349:591  function withdraw(uint _taskId, uint _amount) public {... */\n    tag_3:\n      callvalue\n      dup1\n      iszero\n      tag_12\n      jumpi\n      0x00\n      dup1\n      revert\n    tag_12:\n      pop\n      tag_13\n      0x04\n      dup1\n      calldatasize\n      sub\n      dup2\n      add\n      swap1\n      tag_14\n      swap2\n      swap1\n      tag_15\n      jump\t// in\n    tag_14:\n      tag_16\n      jump\t// in\n    tag_13:\n      stop\n        /* \"contracts/FundingContract.sol\":212:341  function fund(uint _taskId) public payable {... */\n    tag_4:\n      tag_17\n      0x04\n      dup1\n      calldatasize\n      sub\n      dup2\n      add\n      swap1\n      tag_18\n      swap2\n      swap1\n      tag_19\n      jump\t// in\n    tag_18:\n      tag_20\n      jump\t// in\n    tag_17:\n      stop\n        /* \"contracts/FundingContract.sol\":93:150  mapping(uint => mapping(address => uint)) public balances */\n    tag_9:\n      mstore(0x20, 0x00)\n      dup2\n      0x00\n      mstore\n      mstore(0x20, keccak256(0x00, 0x40))\n      dup1\n      0x00\n      mstore\n      keccak256(0x00, 0x40)\n      0x00\n      swap2\n      pop\n      swap2\n      pop\n      pop\n      sload\n      dup2\n      jump\t// out\n        /* \"contracts/FundingContract.sol\":349:591  function withdraw(uint _taskId, uint _amount) public {... */\n    tag_16:\n        /* \"contracts/FundingContract.sol\":454:461  _amount */\n      dup1\n        /* \"contracts/FundingContract.sol\":421:429  balances */\n      0x00\n        /* \"contracts/FundingContract.sol\":421:438  balances[_taskId] */\n      dup1\n        /* \"contracts/FundingContract.sol\":430:437  _taskId */\n      dup5\n        /* \"contracts/FundingContract.sol\":421:438  balances[_taskId] */\n      dup2\n      mstore\n      0x20\n      add\n      swap1\n      dup2\n      mstore\n      0x20\n      add\n      0x00\n      keccak256\n        /* \"contracts/FundingContract.sol\":421:450  balances[_taskId][msg.sender] */\n      0x00\n        /* \"contracts/FundingContract.sol\":439:449  msg.sender */\n      caller\n        /* \"contracts/FundingContract.sol\":421:450  balances[_taskId][msg.sender] */\n      0xffffffffffffffffffffffffffffffffffffffff\n      and\n      0xffffffffffffffffffffffffffffffffffffffff\n      and\n      dup2\n      mstore\n      0x20\n      add\n      swap1\n      dup2\n      mstore\n      0x20\n      add\n      0x00\n      keccak256\n      sload\n        /* \"contracts/FundingContract.sol\":421:461  balances[_taskId][msg.sender] >= _amount */\n      lt\n      iszero\n        /* \"contracts/FundingContract.sol\":413:484  require(balances[_taskId][msg.sender] >= _amount, \"Insufficient funds\") */\n      tag_22\n      jumpi\n      mload(0x40)\n      0x08c379a000000000000000000000000000000000000000000000000000000000\n      dup2\n      mstore\n      0x04\n      add\n      tag_23\n      swap1\n      tag_24\n      jump\t// in\n    tag_23:\n      mload(0x40)\n      dup1\n      swap2\n      sub\n      swap1\n      revert\n    tag_22:\n        /* \"contracts/FundingContract.sol\":503:513  msg.sender */\n      caller\n        /* \"contracts/FundingContract.sol\":495:523  payable(msg.sender).transfer */\n      0xffffffffffffffffffffffffffffffffffffffff\n      and\n        /* \"contracts/FundingContract.sol\":495:532  payable(msg.sender).transfer(_amount) */\n      0x08fc\n        /* \"contracts/FundingContract.sol\":524:531  _amount */\n      dup3\n        /* \"contracts/FundingContract.sol\":495:532  payable(msg.sender).transfer(_amount) */\n      swap1\n      dup2\n      iszero\n      mul\n      swap1\n      mload(0x40)\n      0x00\n      mload(0x40)\n      dup1\n      dup4\n      sub\n      dup2\n      dup6\n      dup9\n      dup9\n      call\n      swap4\n      pop\n      pop\n      pop\n      pop\n      iszero\n      dup1\n      iszero\n      tag_26\n      jumpi\n      returndatasize\n      0x00\n      dup1\n      returndatacopy\n      revert(0x00, returndatasize)\n    tag_26:\n      pop\n        /* \"contracts/FundingContract.sol\":576:583  _amount */\n      dup1\n        /* \"contracts/FundingContract.sol\":543:551  balances */\n      0x00\n        /* \"contracts/FundingContract.sol\":543:560  balances[_taskId] */\n      dup1\n        /* \"contracts/FundingContract.sol\":552:559  _taskId */\n      dup5\n        /* \"contracts/FundingContract.sol\":543:560  balances[_taskId] */\n      dup2\n      mstore\n      0x20\n      add\n      swap1\n      dup2\n      mstore\n      0x20\n      add\n      0x00\n      keccak256\n        /* \"contracts/FundingContract.sol\":543:572  balances[_taskId][msg.sender] */\n      0x00\n        /* \"contracts/FundingContract.sol\":561:571  msg.sender */\n      caller\n        /* \"contracts/FundingContract.sol\":543:572  balances[_taskId][msg.sender] */\n      0xffffffffffffffffffffffffffffffffffffffff\n      and\n      0xffffffffffffffffffffffffffffffffffffffff\n      and\n      dup2\n      mstore\n      0x20\n      add\n      swap1\n      dup2\n      mstore\n      0x20\n      add\n      0x00\n      keccak256\n      0x00\n        /* \"contracts/FundingContract.sol\":543:583  balances[_taskId][msg.sender] -= _amount */\n      dup3\n      dup3\n      sload\n      tag_27\n      swap2\n      swap1\n      tag_28\n      jump\t// in\n    tag_27:\n      swap3\n      pop\n      pop\n      dup2\n      swap1\n      sstore\n      pop\n        /* \"contracts/FundingContract.sol\":349:591  function withdraw(uint _taskId, uint _amount) public {... */\n      pop\n      pop\n      jump\t// out\n        /* \"contracts/FundingContract.sol\":212:341  function fund(uint _taskId) public payable {... */\n    tag_20:\n        /* \"contracts/FundingContract.sol\":299:308  msg.value */\n      callvalue\n        /* \"contracts/FundingContract.sol\":266:274  balances */\n      0x00\n        /* \"contracts/FundingContract.sol\":266:283  balances[_taskId] */\n      dup1\n        /* \"contracts/FundingContract.sol\":275:282  _taskId */\n      dup4\n        /* \"contracts/FundingContract.sol\":266:283  balances[_taskId] */\n      dup2\n      mstore\n      0x20\n      add\n      swap1\n      dup2\n      mstore\n      0x20\n      add\n      0x00\n      keccak256\n        /* \"contracts/FundingContract.sol\":266:295  balances[_taskId][msg.sender] */\n      0x00\n        /* \"contracts/FundingContract.sol\":284:294  msg.sender */\n      caller\n        /* \"contracts/FundingContract.sol\":266:295  balances[_taskId][msg.sender] */\n      0xffffffffffffffffffffffffffffffffffffffff\n      and\n      0xffffffffffffffffffffffffffffffffffffffff\n      and\n      dup2\n      mstore\n      0x20\n      add\n      swap1\n      dup2\n      mstore\n      0x20\n      add\n      0x00\n      keccak256\n      0x00\n        /* \"contracts/FundingContract.sol\":266:308  balances[_taskId][msg.sender] += msg.value */\n      dup3\n      dup3\n      sload\n      tag_30\n      swap2\n      swap1\n      tag_31\n      jump\t// in\n    tag_30:\n      swap3\n      pop\n      pop\n      dup2\n      swap1\n      sstore\n      pop\n        /* \"contracts/FundingContract.sol\":212:341  function fund(uint _taskId) public payable {... */\n      pop\n      jump\t// out\n        /* \"#utility.yul\":88:205   */\n    tag_33:\n        /* \"#utility.yul\":197:198   */\n      0x00\n        /* \"#utility.yul\":194:195   */\n      dup1\n        /* \"#utility.yul\":187:199   */\n      revert\n        /* \"#utility.yul\":334:411   */\n    tag_35:\n        /* \"#utility.yul\":371:378   */\n      0x00\n        /* \"#utility.yul\":400:405   */\n      dup2\n        /* \"#utility.yul\":389:405   */\n      swap1\n      pop\n        /* \"#utility.yul\":334:411   */\n      swap2\n      swap1\n      pop\n      jump\t// out\n        /* \"#utility.yul\":417:539   */\n    tag_36:\n        /* \"#utility.yul\":490:514   */\n      tag_53\n        /* \"#utility.yul\":508:513   */\n      dup2\n        /* \"#utility.yul\":490:514   */\n      tag_35\n      jump\t// in\n    tag_53:\n        /* \"#utility.yul\":483:488   */\n      dup2\n        /* \"#utility.yul\":480:515   */\n      eq\n        /* \"#utility.yul\":470:533   */\n      tag_54\n      jumpi\n        /* \"#utility.yul\":529:530   */\n      0x00\n        /* \"#utility.yul\":526:527   */\n      dup1\n        /* \"#utility.yul\":519:531   */\n      revert\n        /* \"#utility.yul\":470:533   */\n    tag_54:\n        /* \"#utility.yul\":417:539   */\n      pop\n      jump\t// out\n        /* \"#utility.yul\":545:684   */\n    tag_37:\n        /* \"#utility.yul\":591:596   */\n      0x00\n        /* \"#utility.yul\":629:635   */\n      dup2\n        /* \"#utility.yul\":616:636   */\n      calldataload\n        /* \"#utility.yul\":607:636   */\n      swap1\n      pop\n        /* \"#utility.yul\":645:678   */\n      tag_56\n        /* \"#utility.yul\":672:677   */\n      dup2\n        /* \"#utility.yul\":645:678   */\n      tag_36\n      jump\t// in\n    tag_56:\n        /* \"#utility.yul\":545:684   */\n      swap3\n      swap2\n      pop\n      pop\n      jump\t// out\n        /* \"#utility.yul\":690:816   */\n    tag_38:\n        /* \"#utility.yul\":727:734   */\n      0x00\n        /* \"#utility.yul\":767:809   */\n      0xffffffffffffffffffffffffffffffffffffffff\n        /* \"#utility.yul\":760:765   */\n      dup3\n        /* \"#utility.yul\":756:810   */\n      and\n        /* \"#utility.yul\":745:810   */\n      swap1\n      pop\n        /* \"#utility.yul\":690:816   */\n      swap2\n      swap1\n      pop\n      jump\t// out\n        /* \"#utility.yul\":822:918   */\n    tag_39:\n        /* \"#utility.yul\":859:866   */\n      0x00\n        /* \"#utility.yul\":888:912   */\n      tag_59\n        /* \"#utility.yul\":906:911   */\n      dup3\n        /* \"#utility.yul\":888:912   */\n      tag_38\n      jump\t// in\n    tag_59:\n        /* \"#utility.yul\":877:912   */\n      swap1\n      pop\n        /* \"#utility.yul\":822:918   */\n      swap2\n      swap1\n      pop\n      jump\t// out\n        /* \"#utility.yul\":924:1046   */\n    tag_40:\n        /* \"#utility.yul\":997:1021   */\n      tag_61\n        /* \"#utility.yul\":1015:1020   */\n      dup2\n        /* \"#utility.yul\":997:1021   */\n      tag_39\n      jump\t// in\n    tag_61:\n        /* \"#utility.yul\":990:995   */\n      dup2\n        /* \"#utility.yul\":987:1022   */\n      eq\n        /* \"#utility.yul\":977:1040   */\n      tag_62\n      jumpi\n        /* \"#utility.yul\":1036:1037   */\n      0x00\n        /* \"#utility.yul\":1033:1034   */\n      dup1\n        /* \"#utility.yul\":1026:1038   */\n      revert\n        /* \"#utility.yul\":977:1040   */\n    tag_62:\n        /* \"#utility.yul\":924:1046   */\n      pop\n      jump\t// out\n        /* \"#utility.yul\":1052:1191   */\n    tag_41:\n        /* \"#utility.yul\":1098:1103   */\n      0x00\n        /* \"#utility.yul\":1136:1142   */\n      dup2\n        /* \"#utility.yul\":1123:1143   */\n      calldataload\n        /* \"#utility.yul\":1114:1143   */\n      swap1\n      pop\n        /* \"#utility.yul\":1152:1185   */\n      tag_64\n        /* \"#utility.yul\":1179:1184   */\n      dup2\n        /* \"#utility.yul\":1152:1185   */\n      tag_40\n      jump\t// in\n    tag_64:\n        /* \"#utility.yul\":1052:1191   */\n      swap3\n      swap2\n      pop\n      pop\n      jump\t// out\n        /* \"#utility.yul\":1197:1671   */\n    tag_8:\n        /* \"#utility.yul\":1265:1271   */\n      0x00\n        /* \"#utility.yul\":1273:1279   */\n      dup1\n        /* \"#utility.yul\":1322:1324   */\n      0x40\n        /* \"#utility.yul\":1310:1319   */\n      dup4\n        /* \"#utility.yul\":1301:1308   */\n      dup6\n        /* \"#utility.yul\":1297:1320   */\n      sub\n        /* \"#utility.yul\":1293:1325   */\n      slt\n        /* \"#utility.yul\":1290:1409   */\n      iszero\n      tag_66\n      jumpi\n        /* \"#utility.yul\":1328:1407   */\n      tag_67\n      tag_33\n      jump\t// in\n    tag_67:\n        /* \"#utility.yul\":1290:1409   */\n    tag_66:\n        /* \"#utility.yul\":1448:1449   */\n      0x00\n        /* \"#utility.yul\":1473:1526   */\n      tag_68\n        /* \"#utility.yul\":1518:1525   */\n      dup6\n        /* \"#utility.yul\":1509:1515   */\n      dup3\n        /* \"#utility.yul\":1498:1507   */\n      dup7\n        /* \"#utility.yul\":1494:1516   */\n      add\n        /* \"#utility.yul\":1473:1526   */\n      tag_37\n      jump\t// in\n    tag_68:\n        /* \"#utility.yul\":1463:1526   */\n      swap3\n      pop\n        /* \"#utility.yul\":1419:1536   */\n      pop\n        /* \"#utility.yul\":1575:1577   */\n      0x20\n        /* \"#utility.yul\":1601:1654   */\n      tag_69\n        /* \"#utility.yul\":1646:1653   */\n      dup6\n        /* \"#utility.yul\":1637:1643   */\n      dup3\n        /* \"#utility.yul\":1626:1635   */\n      dup7\n        /* \"#utility.yul\":1622:1644   */\n      add\n        /* \"#utility.yul\":1601:1654   */\n      tag_41\n      jump\t// in\n    tag_69:\n        /* \"#utility.yul\":1591:1654   */\n      swap2\n      pop\n        /* \"#utility.yul\":1546:1664   */\n      pop\n        /* \"#utility.yul\":1197:1671   */\n      swap3\n      pop\n      swap3\n      swap1\n      pop\n      jump\t// out\n        /* \"#utility.yul\":1677:1795   */\n    tag_42:\n        /* \"#utility.yul\":1764:1788   */\n      tag_71\n        /* \"#utility.yul\":1782:1787   */\n      dup2\n        /* \"#utility.yul\":1764:1788   */\n      tag_35\n      jump\t// in\n    tag_71:\n        /* \"#utility.yul\":1759:1762   */\n      dup3\n        /* \"#utility.yul\":1752:1789   */\n      mstore\n        /* \"#utility.yul\":1677:1795   */\n      pop\n      pop\n      jump\t// out\n        /* \"#utility.yul\":1801:2023   */\n    tag_11:\n        /* \"#utility.yul\":1894:1898   */\n      0x00\n        /* \"#utility.yul\":1932:1934   */\n      0x20\n        /* \"#utility.yul\":1921:1930   */\n      dup3\n        /* \"#utility.yul\":1917:1935   */\n      add\n        /* \"#utility.yul\":1909:1935   */\n      swap1\n      pop\n        /* \"#utility.yul\":1945:2016   */\n      tag_73\n        /* \"#utility.yul\":2013:2014   */\n      0x00\n        /* \"#utility.yul\":2002:2011   */\n      dup4\n        /* \"#utility.yul\":1998:2015   */\n      add\n        /* \"#utility.yul\":1989:1995   */\n      dup5\n        /* \"#utility.yul\":1945:2016   */\n      tag_42\n      jump\t// in\n    tag_73:\n        /* \"#utility.yul\":1801:2023   */\n      swap3\n      swap2\n      pop\n      pop\n      jump\t// out\n        /* \"#utility.yul\":2029:2503   */\n    tag_15:\n        /* \"#utility.yul\":2097:2103   */\n      0x00\n        /* \"#utility.yul\":2105:2111   */\n      dup1\n        /* \"#utility.yul\":2154:2156   */\n      0x40\n        /* \"#utility.yul\":2142:2151   */\n      dup4\n        /* \"#utility.yul\":2133:2140   */\n      dup6\n        /* \"#utility.yul\":2129:2152   */\n      sub\n        /* \"#utility.yul\":2125:2157   */\n      slt\n        /* \"#utility.yul\":2122:2241   */\n      iszero\n      tag_75\n      jumpi\n        /* \"#utility.yul\":2160:2239   */\n      tag_76\n      tag_33\n      jump\t// in\n    tag_76:\n        /* \"#utility.yul\":2122:2241   */\n    tag_75:\n        /* \"#utility.yul\":2280:2281   */\n      0x00\n        /* \"#utility.yul\":2305:2358   */\n      tag_77\n        /* \"#utility.yul\":2350:2357   */\n      dup6\n        /* \"#utility.yul\":2341:2347   */\n      dup3\n        /* \"#utility.yul\":2330:2339   */\n      dup7\n        /* \"#utility.yul\":2326:2348   */\n      add\n        /* \"#utility.yul\":2305:2358   */\n      tag_37\n      jump\t// in\n    tag_77:\n        /* \"#utility.yul\":2295:2358   */\n      swap3\n      pop\n        /* \"#utility.yul\":2251:2368   */\n      pop\n        /* \"#utility.yul\":2407:2409   */\n      0x20\n        /* \"#utility.yul\":2433:2486   */\n      tag_78\n        /* \"#utility.yul\":2478:2485   */\n      dup6\n        /* \"#utility.yul\":2469:2475   */\n      dup3\n        /* \"#utility.yul\":2458:2467   */\n      dup7\n        /* \"#utility.yul\":2454:2476   */\n      add\n        /* \"#utility.yul\":2433:2486   */\n      tag_37\n      jump\t// in\n    tag_78:\n        /* \"#utility.yul\":2423:2486   */\n      swap2\n      pop\n        /* \"#utility.yul\":2378:2496   */\n      pop\n        /* \"#utility.yul\":2029:2503   */\n      swap3\n      pop\n      swap3\n      swap1\n      pop\n      jump\t// out\n        /* \"#utility.yul\":2509:2838   */\n    tag_19:\n        /* \"#utility.yul\":2568:2574   */\n      0x00\n        /* \"#utility.yul\":2617:2619   */\n      0x20\n        /* \"#utility.yul\":2605:2614   */\n      dup3\n        /* \"#utility.yul\":2596:2603   */\n      dup5\n        /* \"#utility.yul\":2592:2615   */\n      sub\n        /* \"#utility.yul\":2588:2620   */\n      slt\n        /* \"#utility.yul\":2585:2704   */\n      iszero\n      tag_80\n      jumpi\n        /* \"#utility.yul\":2623:2702   */\n      tag_81\n      tag_33\n      jump\t// in\n    tag_81:\n        /* \"#utility.yul\":2585:2704   */\n    tag_80:\n        /* \"#utility.yul\":2743:2744   */\n      0x00\n        /* \"#utility.yul\":2768:2821   */\n      tag_82\n        /* \"#utility.yul\":2813:2820   */\n      dup5\n        /* \"#utility.yul\":2804:2810   */\n      dup3\n        /* \"#utility.yul\":2793:2802   */\n      dup6\n        /* \"#utility.yul\":2789:2811   */\n      add\n        /* \"#utility.yul\":2768:2821   */\n      tag_37\n      jump\t// in\n    tag_82:\n        /* \"#utility.yul\":2758:2821   */\n      swap2\n      pop\n        /* \"#utility.yul\":2714:2831   */\n      pop\n        /* \"#utility.yul\":2509:2838   */\n      swap3\n      swap2\n      pop\n      pop\n      jump\t// out\n        /* \"#utility.yul\":2844:3013   */\n    tag_43:\n        /* \"#utility.yul\":2928:2939   */\n      0x00\n        /* \"#utility.yul\":2962:2968   */\n      dup3\n        /* \"#utility.yul\":2957:2960   */\n      dup3\n        /* \"#utility.yul\":2950:2969   */\n      mstore\n        /* \"#utility.yul\":3002:3006   */\n      0x20\n        /* \"#utility.yul\":2997:3000   */\n      dup3\n        /* \"#utility.yul\":2993:3007   */\n      add\n        /* \"#utility.yul\":2978:3007   */\n      swap1\n      pop\n        /* \"#utility.yul\":2844:3013   */\n      swap3\n      swap2\n      pop\n      pop\n      jump\t// out\n        /* \"#utility.yul\":3019:3187   */\n    tag_44:\n        /* \"#utility.yul\":3159:3179   */\n      0x496e73756666696369656e742066756e64730000000000000000000000000000\n        /* \"#utility.yul\":3155:3156   */\n      0x00\n        /* \"#utility.yul\":3147:3153   */\n      dup3\n        /* \"#utility.yul\":3143:3157   */\n      add\n        /* \"#utility.yul\":3136:3180   */\n      mstore\n        /* \"#utility.yul\":3019:3187   */\n      pop\n      jump\t// out\n        /* \"#utility.yul\":3193:3559   */\n    tag_45:\n        /* \"#utility.yul\":3335:3338   */\n      0x00\n        /* \"#utility.yul\":3356:3423   */\n      tag_86\n        /* \"#utility.yul\":3420:3422   */\n      0x12\n        /* \"#utility.yul\":3415:3418   */\n      dup4\n        /* \"#utility.yul\":3356:3423   */\n      tag_43\n      jump\t// in\n    tag_86:\n        /* \"#utility.yul\":3349:3423   */\n      swap2\n      pop\n        /* \"#utility.yul\":3432:3525   */\n      tag_87\n        /* \"#utility.yul\":3521:3524   */\n      dup3\n        /* \"#utility.yul\":3432:3525   */\n      tag_44\n      jump\t// in\n    tag_87:\n        /* \"#utility.yul\":3550:3552   */\n      0x20\n        /* \"#utility.yul\":3545:3548   */\n      dup3\n        /* \"#utility.yul\":3541:3553   */\n      add\n        /* \"#utility.yul\":3534:3553   */\n      swap1\n      pop\n        /* \"#utility.yul\":3193:3559   */\n      swap2\n      swap1\n      pop\n      jump\t// out\n        /* \"#utility.yul\":3565:3984   */\n    tag_24:\n        /* \"#utility.yul\":3731:3735   */\n      0x00\n        /* \"#utility.yul\":3769:3771   */\n      0x20\n        /* \"#utility.yul\":3758:3767   */\n      dup3\n        /* \"#utility.yul\":3754:3772   */\n      add\n        /* \"#utility.yul\":3746:3772   */\n      swap1\n      pop\n        /* \"#utility.yul\":3818:3827   */\n      dup2\n        /* \"#utility.yul\":3812:3816   */\n      dup2\n        /* \"#utility.yul\":3808:3828   */\n      sub\n        /* \"#utility.yul\":3804:3805   */\n      0x00\n        /* \"#utility.yul\":3793:3802   */\n      dup4\n        /* \"#utility.yul\":3789:3806   */\n      add\n        /* \"#utility.yul\":3782:3829   */\n      mstore\n        /* \"#utility.yul\":3846:3977   */\n      tag_89\n        /* \"#utility.yul\":3972:3976   */\n      dup2\n        /* \"#utility.yul\":3846:3977   */\n      tag_45\n      jump\t// in\n    tag_89:\n        /* \"#utility.yul\":3838:3977   */\n      swap1\n      pop\n        /* \"#utility.yul\":3565:3984   */\n      swap2\n      swap1\n      pop\n      jump\t// out\n        /* \"#utility.yul\":3990:4170   */\n    tag_46:\n        /* \"#utility.yul\":4038:4115   */\n      0x4e487b7100000000000000000000000000000000000000000000000000000000\n        /* \"#utility.yul\":4035:4036   */\n      0x00\n        /* \"#utility.yul\":4028:4116   */\n      mstore\n        /* \"#utility.yul\":4135:4139   */\n      0x11\n        /* \"#utility.yul\":4132:4133   */\n      0x04\n        /* \"#utility.yul\":4125:4140   */\n      mstore\n        /* \"#utility.yul\":4159:4163   */\n      0x24\n        /* \"#utility.yul\":4156:4157   */\n      0x00\n        /* \"#utility.yul\":4149:4164   */\n      revert\n        /* \"#utility.yul\":4176:4370   */\n    tag_28:\n        /* \"#utility.yul\":4216:4220   */\n      0x00\n        /* \"#utility.yul\":4236:4256   */\n      tag_92\n        /* \"#utility.yul\":4254:4255   */\n      dup3\n        /* \"#utility.yul\":4236:4256   */\n      tag_35\n      jump\t// in\n    tag_92:\n        /* \"#utility.yul\":4231:4256   */\n      swap2\n      pop\n        /* \"#utility.yul\":4270:4290   */\n      tag_93\n        /* \"#utility.yul\":4288:4289   */\n      dup4\n        /* \"#utility.yul\":4270:4290   */\n      tag_35\n      jump\t// in\n    tag_93:\n        /* \"#utility.yul\":4265:4290   */\n      swap3\n      pop\n        /* \"#utility.yul\":4314:4315   */\n      dup3\n        /* \"#utility.yul\":4311:4312   */\n      dup3\n        /* \"#utility.yul\":4307:4316   */\n      sub\n        /* \"#utility.yul\":4299:4316   */\n      swap1\n      pop\n        /* \"#utility.yul\":4338:4339   */\n      dup2\n        /* \"#utility.yul\":4332:4336   */\n      dup2\n        /* \"#utility.yul\":4329:4340   */\n      gt\n        /* \"#utility.yul\":4326:4363   */\n      iszero\n      tag_94\n      jumpi\n        /* \"#utility.yul\":4343:4361   */\n      tag_95\n      tag_46\n      jump\t// in\n    tag_95:\n        /* \"#utility.yul\":4326:4363   */\n    tag_94:\n        /* \"#utility.yul\":4176:4370   */\n      swap3\n      swap2\n      pop\n      pop\n      jump\t// out\n        /* \"#utility.yul\":4376:4567   */\n    tag_31:\n        /* \"#utility.yul\":4416:4419   */\n      0x00\n        /* \"#utility.yul\":4435:4455   */\n      tag_97\n        /* \"#utility.yul\":4453:4454   */\n      dup3\n        /* \"#utility.yul\":4435:4455   */\n      tag_35\n      jump\t// in\n    tag_97:\n        /* \"#utility.yul\":4430:4455   */\n      swap2\n      pop\n        /* \"#utility.yul\":4469:4489   */\n      tag_98\n        /* \"#utility.yul\":4487:4488   */\n      dup4\n        /* \"#utility.yul\":4469:4489   */\n      tag_35\n      jump\t// in\n    tag_98:\n        /* \"#utility.yul\":4464:4489   */\n      swap3\n      pop\n        /* \"#utility.yul\":4512:4513   */\n      dup3\n        /* \"#utility.yul\":4509:4510   */\n      dup3\n        /* \"#utility.yul\":4505:4514   */\n      add\n        /* \"#utility.yul\":4498:4514   */\n      swap1\n      pop\n        /* \"#utility.yul\":4533:4536   */\n      dup1\n        /* \"#utility.yul\":4530:4531   */\n      dup3\n        /* \"#utility.yul\":4527:4537   */\n      gt\n        /* \"#utility.yul\":4524:4560   */\n      iszero\n      tag_99\n      jumpi\n        /* \"#utility.yul\":4540:4558   */\n      tag_100\n      tag_46\n      jump\t// in\n    tag_100:\n        /* \"#utility.yul\":4524:4560   */\n    tag_99:\n        /* \"#utility.yul\":4376:4567   */\n      swap3\n      swap2\n      pop\n      pop\n      jump\t// out\n\n    auxdata: 0xa26469706673582212207c3816fbe5f180535f93229182770b0f085f96a9fc49c749053d8f9c3a0596ca64736f6c63430008190033\n}\n",
				"bytecode": {
					"linkReferences": {},
					"object": "6080604052348015600e575f80fd5b506105128061001c5f395ff3fe608060405260043610610033575f3560e01c80631f32033114610037578063441a3e7014610073578063ca1d209d1461009b575b5f80fd5b348015610042575f80fd5b5061005d60048036038101906100589190610302565b6100b7565b60405161006a919061034f565b60405180910390f35b34801561007e575f80fd5b5061009960048036038101906100949190610368565b6100d6565b005b6100b560048036038101906100b091906103a6565b61020d565b005b5f602052815f5260405f20602052805f5260405f205f91509150505481565b805f808481526020019081526020015f205f3373ffffffffffffffffffffffffffffffffffffffff1673ffffffffffffffffffffffffffffffffffffffff1681526020019081526020015f20541015610164576040517f08c379a000000000000000000000000000000000000000000000000000000000815260040161015b9061042b565b60405180910390fd5b3373ffffffffffffffffffffffffffffffffffffffff166108fc8290811502906040515f60405180830381858888f193505050501580156101a7573d5f803e3d5ffd5b50805f808481526020019081526020015f205f3373ffffffffffffffffffffffffffffffffffffffff1673ffffffffffffffffffffffffffffffffffffffff1681526020019081526020015f205f8282546102029190610476565b925050819055505050565b345f808381526020019081526020015f205f3373ffffffffffffffffffffffffffffffffffffffff1673ffffffffffffffffffffffffffffffffffffffff1681526020019081526020015f205f82825461026791906104a9565b9250508190555050565b5f80fd5b5f819050919050565b61028781610275565b8114610291575f80fd5b50565b5f813590506102a28161027e565b92915050565b5f73ffffffffffffffffffffffffffffffffffffffff82169050919050565b5f6102d1826102a8565b9050919050565b6102e1816102c7565b81146102eb575f80fd5b50565b5f813590506102fc816102d8565b92915050565b5f806040838503121561031857610317610271565b5b5f61032585828601610294565b9250506020610336858286016102ee565b9150509250929050565b61034981610275565b82525050565b5f6020820190506103625f830184610340565b92915050565b5f806040838503121561037e5761037d610271565b5b5f61038b85828601610294565b925050602061039c85828601610294565b9150509250929050565b5f602082840312156103bb576103ba610271565b5b5f6103c884828501610294565b91505092915050565b5f82825260208201905092915050565b7f496e73756666696369656e742066756e647300000000000000000000000000005f82015250565b5f6104156012836103d1565b9150610420826103e1565b602082019050919050565b5f6020820190508181035f83015261044281610409565b9050919050565b7f4e487b71000000000000000000000000000000000000000000000000000000005f52601160045260245ffd5b5f61048082610275565b915061048b83610275565b92508282039050818111156104a3576104a2610449565b5b92915050565b5f6104b382610275565b91506104be83610275565b92508282019050808211156104d6576104d5610449565b5b9291505056fea26469706673582212207c3816fbe5f180535f93229182770b0f085f96a9fc49c749053d8f9c3a0596ca64736f6c63430008190033",
					"opcodes": "PUSH1 0x80 PUSH1 0x40 MSTORE CALLVALUE DUP1 ISZERO PUSH1 0xE JUMPI PUSH0 DUP1 REVERT JUMPDEST POP PUSH2 0x512 DUP1 PUSH2 0x1C PUSH0 CODECOPY PUSH0 RETURN INVALID PUSH1 0x80 PUSH1 0x40 MSTORE PUSH1 0x4 CALLDATASIZE LT PUSH2 0x33 JUMPI PUSH0 CALLDATALOAD PUSH1 0xE0 SHR DUP1 PUSH4 0x1F320331 EQ PUSH2 0x37 JUMPI DUP1 PUSH4 0x441A3E70 EQ PUSH2 0x73 JUMPI DUP1 PUSH4 0xCA1D209D EQ PUSH2 0x9B JUMPI JUMPDEST PUSH0 DUP1 REVERT JUMPDEST CALLVALUE DUP1 ISZERO PUSH2 0x42 JUMPI PUSH0 DUP1 REVERT JUMPDEST POP PUSH2 0x5D PUSH1 0x4 DUP1 CALLDATASIZE SUB DUP2 ADD SWAP1 PUSH2 0x58 SWAP2 SWAP1 PUSH2 0x302 JUMP JUMPDEST PUSH2 0xB7 JUMP JUMPDEST PUSH1 0x40 MLOAD PUSH2 0x6A SWAP2 SWAP1 PUSH2 0x34F JUMP JUMPDEST PUSH1 0x40 MLOAD DUP1 SWAP2 SUB SWAP1 RETURN JUMPDEST CALLVALUE DUP1 ISZERO PUSH2 0x7E JUMPI PUSH0 DUP1 REVERT JUMPDEST POP PUSH2 0x99 PUSH1 0x4 DUP1 CALLDATASIZE SUB DUP2 ADD SWAP1 PUSH2 0x94 SWAP2 SWAP1 PUSH2 0x368 JUMP JUMPDEST PUSH2 0xD6 JUMP JUMPDEST STOP JUMPDEST PUSH2 0xB5 PUSH1 0x4 DUP1 CALLDATASIZE SUB DUP2 ADD SWAP1 PUSH2 0xB0 SWAP2 SWAP1 PUSH2 0x3A6 JUMP JUMPDEST PUSH2 0x20D JUMP JUMPDEST STOP JUMPDEST PUSH0 PUSH1 0x20 MSTORE DUP2 PUSH0 MSTORE PUSH1 0x40 PUSH0 KECCAK256 PUSH1 0x20 MSTORE DUP1 PUSH0 MSTORE PUSH1 0x40 PUSH0 KECCAK256 PUSH0 SWAP2 POP SWAP2 POP POP SLOAD DUP2 JUMP JUMPDEST DUP1 PUSH0 DUP1 DUP5 DUP2 MSTORE PUSH1 0x20 ADD SWAP1 DUP2 MSTORE PUSH1 0x20 ADD PUSH0 KECCAK256 PUSH0 CALLER PUSH20 0xFFFFFFFFFFFFFFFFFFFFFFFFFFFFFFFFFFFFFFFF AND PUSH20 0xFFFFFFFFFFFFFFFFFFFFFFFFFFFFFFFFFFFFFFFF AND DUP2 MSTORE PUSH1 0x20 ADD SWAP1 DUP2 MSTORE PUSH1 0x20 ADD PUSH0 KECCAK256 SLOAD LT ISZERO PUSH2 0x164 JUMPI PUSH1 0x40 MLOAD PUSH32 0x8C379A000000000000000000000000000000000000000000000000000000000 DUP2 MSTORE PUSH1 0x4 ADD PUSH2 0x15B SWAP1 PUSH2 0x42B JUMP JUMPDEST PUSH1 0x40 MLOAD DUP1 SWAP2 SUB SWAP1 REVERT JUMPDEST CALLER PUSH20 0xFFFFFFFFFFFFFFFFFFFFFFFFFFFFFFFFFFFFFFFF AND PUSH2 0x8FC DUP3 SWAP1 DUP2 ISZERO MUL SWAP1 PUSH1 0x40 MLOAD PUSH0 PUSH1 0x40 MLOAD DUP1 DUP4 SUB DUP2 DUP6 DUP9 DUP9 CALL SWAP4 POP POP POP POP ISZERO DUP1 ISZERO PUSH2 0x1A7 JUMPI RETURNDATASIZE PUSH0 DUP1 RETURNDATACOPY RETURNDATASIZE PUSH0 REVERT JUMPDEST POP DUP1 PUSH0 DUP1 DUP5 DUP2 MSTORE PUSH1 0x20 ADD SWAP1 DUP2 MSTORE PUSH1 0x20 ADD PUSH0 KECCAK256 PUSH0 CALLER PUSH20 0xFFFFFFFFFFFFFFFFFFFFFFFFFFFFFFFFFFFFFFFF AND PUSH20 0xFFFFFFFFFFFFFFFFFFFFFFFFFFFFFFFFFFFFFFFF AND DUP2 MSTORE PUSH1 0x20 ADD SWAP1 DUP2 MSTORE PUSH1 0x20 ADD PUSH0 KECCAK256 PUSH0 DUP3 DUP3 SLOAD PUSH2 0x202 SWAP2 SWAP1 PUSH2 0x476 JUMP JUMPDEST SWAP3 POP POP DUP2 SWAP1 SSTORE POP POP POP JUMP JUMPDEST CALLVALUE PUSH0 DUP1 DUP4 DUP2 MSTORE PUSH1 0x20 ADD SWAP1 DUP2 MSTORE PUSH1 0x20 ADD PUSH0 KECCAK256 PUSH0 CALLER PUSH20 0xFFFFFFFFFFFFFFFFFFFFFFFFFFFFFFFFFFFFFFFF AND PUSH20 0xFFFFFFFFFFFFFFFFFFFFFFFFFFFFFFFFFFFFFFFF AND DUP2 MSTORE PUSH1 0x20 ADD SWAP1 DUP2 MSTORE PUSH1 0x20 ADD PUSH0 KECCAK256 PUSH0 DUP3 DUP3 SLOAD PUSH2 0x267 SWAP2 SWAP1 PUSH2 0x4A9 JUMP JUMPDEST SWAP3 POP POP DUP2 SWAP1 SSTORE POP POP JUMP JUMPDEST PUSH0 DUP1 REVERT JUMPDEST PUSH0 DUP2 SWAP1 POP SWAP2 SWAP1 POP JUMP JUMPDEST PUSH2 0x287 DUP2 PUSH2 0x275 JUMP JUMPDEST DUP2 EQ PUSH2 0x291 JUMPI PUSH0 DUP1 REVERT JUMPDEST POP JUMP JUMPDEST PUSH0 DUP2 CALLDATALOAD SWAP1 POP PUSH2 0x2A2 DUP2 PUSH2 0x27E JUMP JUMPDEST SWAP3 SWAP2 POP POP JUMP JUMPDEST PUSH0 PUSH20 0xFFFFFFFFFFFFFFFFFFFFFFFFFFFFFFFFFFFFFFFF DUP3 AND SWAP1 POP SWAP2 SWAP1 POP JUMP JUMPDEST PUSH0 PUSH2 0x2D1 DUP3 PUSH2 0x2A8 JUMP JUMPDEST SWAP1 POP SWAP2 SWAP1 POP JUMP JUMPDEST PUSH2 0x2E1 DUP2 PUSH2 0x2C7 JUMP JUMPDEST DUP2 EQ PUSH2 0x2EB JUMPI PUSH0 DUP1 REVERT JUMPDEST POP JUMP JUMPDEST PUSH0 DUP2 CALLDATALOAD SWAP1 POP PUSH2 0x2FC DUP2 PUSH2 0x2D8 JUMP JUMPDEST SWAP3 SWAP2 POP POP JUMP JUMPDEST PUSH0 DUP1 PUSH1 0x40 DUP4 DUP6 SUB SLT ISZERO PUSH2 0x318 JUMPI PUSH2 0x317 PUSH2 0x271 JUMP JUMPDEST JUMPDEST PUSH0 PUSH2 0x325 DUP6 DUP3 DUP7 ADD PUSH2 0x294 JUMP JUMPDEST SWAP3 POP POP PUSH1 0x20 PUSH2 0x336 DUP6 DUP3 DUP7 ADD PUSH2 0x2EE JUMP JUMPDEST SWAP2 POP POP SWAP3 POP SWAP3 SWAP1 POP JUMP JUMPDEST PUSH2 0x349 DUP2 PUSH2 0x275 JUMP JUMPDEST DUP3 MSTORE POP POP JUMP JUMPDEST PUSH0 PUSH1 0x20 DUP3 ADD SWAP1 POP PUSH2 0x362 PUSH0 DUP4 ADD DUP5 PUSH2 0x340 JUMP JUMPDEST SWAP3 SWAP2 POP POP JUMP JUMPDEST PUSH0 DUP1 PUSH1 0x40 DUP4 DUP6 SUB SLT ISZERO PUSH2 0x37E JUMPI PUSH2 0x37D PUSH2 0x271 JUMP JUMPDEST JUMPDEST PUSH0 PUSH2 0x38B DUP6 DUP3 DUP7 ADD PUSH2 0x294 JUMP JUMPDEST SWAP3 POP POP PUSH1 0x20 PUSH2 0x39C DUP6 DUP3 DUP7 ADD PUSH2 0x294 JUMP JUMPDEST SWAP2 POP POP SWAP3 POP SWAP3 SWAP1 POP JUMP JUMPDEST PUSH0 PUSH1 0x20 DUP3 DUP5 SUB SLT ISZERO PUSH2 0x3BB JUMPI PUSH2 0x3BA PUSH2 0x271 JUMP JUMPDEST JUMPDEST PUSH0 PUSH2 0x3C8 DUP5 DUP3 DUP6 ADD PUSH2 0x294 JUMP JUMPDEST SWAP2 POP POP SWAP3 SWAP2 POP POP JUMP JUMPDEST PUSH0 DUP3 DUP3 MSTORE PUSH1 0x20 DUP3 ADD SWAP1 POP SWAP3 SWAP2 POP POP JUMP JUMPDEST PUSH32 0x496E73756666696369656E742066756E64730000000000000000000000000000 PUSH0 DUP3 ADD MSTORE POP JUMP JUMPDEST PUSH0 PUSH2 0x415 PUSH1 0x12 DUP4 PUSH2 0x3D1 JUMP JUMPDEST SWAP2 POP PUSH2 0x420 DUP3 PUSH2 0x3E1 JUMP JUMPDEST PUSH1 0x20 DUP3 ADD SWAP1 POP SWAP2 SWAP1 POP JUMP JUMPDEST PUSH0 PUSH1 0x20 DUP3 ADD SWAP1 POP DUP2 DUP2 SUB PUSH0 DUP4 ADD MSTORE PUSH2 0x442 DUP2 PUSH2 0x409 JUMP JUMPDEST SWAP1 POP SWAP2 SWAP1 POP JUMP JUMPDEST PUSH32 0x4E487B7100000000000000000000000000000000000000000000000000000000 PUSH0 MSTORE PUSH1 0x11 PUSH1 0x4 MSTORE PUSH1 0x24 PUSH0 REVERT JUMPDEST PUSH0 PUSH2 0x480 DUP3 PUSH2 0x275 JUMP JUMPDEST SWAP2 POP PUSH2 0x48B DUP4 PUSH2 0x275 JUMP JUMPDEST SWAP3 POP DUP3 DUP3 SUB SWAP1 POP DUP2 DUP2 GT ISZERO PUSH2 0x4A3 JUMPI PUSH2 0x4A2 PUSH2 0x449 JUMP JUMPDEST JUMPDEST SWAP3 SWAP2 POP POP JUMP JUMPDEST PUSH0 PUSH2 0x4B3 DUP3 PUSH2 0x275 JUMP JUMPDEST SWAP2 POP PUSH2 0x4BE DUP4 PUSH2 0x275 JUMP JUMPDEST SWAP3 POP DUP3 DUP3 ADD SWAP1 POP DUP1 DUP3 GT ISZERO PUSH2 0x4D6 JUMPI PUSH2 0x4D5 PUSH2 0x449 JUMP JUMPDEST JUMPDEST SWAP3 SWAP2 POP POP JUMP INVALID LOG2 PUSH5 0x6970667358 0x22 SLT KECCAK256 PUSH29 0x3816FBE5F180535F93229182770B0F085F96A9FC49C749053D8F9C3A05 SWAP7 0xCA PUSH5 0x736F6C6343 STOP ADDMOD NOT STOP CALLER "
				},
				"gasEstimates": {
					"creation": {
						"codeDepositCost": "259600",
						"executionCost": "298",
						"totalCost": "259898"
					},
					"external": {
						"balances(uint256,address)": "infinite",
						"fund(uint256)": "infinite",
						"withdraw(uint256,uint256)": "infinite"
					}
				},
				"methodIdentifiers": {
					"balances(uint256,address)": "1f320331",
					"fund(uint256)": "ca1d209d",
					"withdraw(uint256,uint256)": "441a3e70"
				}
			},
			"storageLayout": {
				"storage": [
					{
						"astId": 7,
						"contract": "contracts/FundingContract.sol:FundingContract",
						"label": "balances",
						"offset": 0,
						"slot": "0",
						"type": "t_mapping(t_uint256,t_mapping(t_address,t_uint256))"
					}
				],
				"types": {
					"t_address": {
						"encoding": "inplace",
						"label": "address",
						"numberOfBytes": "20"
					},
					"t_mapping(t_address,t_uint256)": {
						"encoding": "mapping",
						"key": "t_address",
						"label": "mapping(address => uint256)",
						"numberOfBytes": "32",
						"value": "t_uint256"
					},
					"t_mapping(t_uint256,t_mapping(t_address,t_uint256))": {
						"encoding": "mapping",
						"key": "t_uint256",
						"label": "mapping(uint256 => mapping(address => uint256))",
						"numberOfBytes": "32",
						"value": "t_mapping(t_address,t_uint256)"
					},
					"t_uint256": {
						"encoding": "inplace",
						"label": "uint256",
						"numberOfBytes": "32"
					}
				}
			},
			"userdoc": {
				"kind": "user",
				"methods": {},
				"version": 1
			}
		}
	}
}