{
	"contracts/TaskContract.sol": {
		"TaskContract": {
			"abi": [
				{
					"inputs": [],
					"stateMutability": "nonpayable",
					"type": "constructor"
				},
				{
					"anonymous": false,
					"inputs": [
						{
							"indexed": false,
							"internalType": "string",
							"name": "message",
							"type": "string"
						},
						{
							"indexed": true,
							"internalType": "uint256",
							"name": "taskId",
							"type": "uint256"
						},
						{
							"indexed": false,
							"internalType": "uint256",
							"name": "value",
							"type": "uint256"
						}
					],
					"name": "DebugLog",
					"type": "event"
				},
				{
					"anonymous": false,
					"inputs": [
						{
							"indexed": false,
							"internalType": "string",
							"name": "message",
							"type": "string"
						}
					],
					"name": "ErrorLog",
					"type": "event"
				},
				{
					"anonymous": false,
					"inputs": [
						{
							"indexed": false,
							"internalType": "address",
							"name": "sender",
							"type": "address"
						},
						{
							"indexed": false,
							"internalType": "uint256",
							"name": "amount",
							"type": "uint256"
						}
					],
					"name": "ReceivedEther",
					"type": "event"
				},
				{
					"anonymous": false,
					"inputs": [
						{
							"indexed": false,
							"internalType": "uint256",
							"name": "taskId",
							"type": "uint256"
						},
						{
							"indexed": false,
							"internalType": "string",
							"name": "description",
							"type": "string"
						},
						{
							"indexed": false,
							"internalType": "uint256",
							"name": "goal",
							"type": "uint256"
						}
					],
					"name": "TaskCreated",
					"type": "event"
				},
				{
					"anonymous": false,
					"inputs": [
						{
							"indexed": false,
							"internalType": "uint256",
							"name": "taskId",
							"type": "uint256"
						},
						{
							"indexed": false,
							"internalType": "bool",
							"name": "outcome",
							"type": "bool"
						}
					],
					"name": "TaskExecuted",
					"type": "event"
				},
				{
					"anonymous": false,
					"inputs": [
						{
							"indexed": false,
							"internalType": "uint256",
							"name": "taskId",
							"type": "uint256"
						},
						{
							"indexed": false,
							"internalType": "uint256",
							"name": "amountRaised",
							"type": "uint256"
						}
					],
					"name": "TaskFunded",
					"type": "event"
				},
				{
					"inputs": [
						{
							"internalType": "string",
							"name": "_description",
							"type": "string"
						},
						{
							"internalType": "uint256",
							"name": "_goal",
							"type": "uint256"
						}
					],
					"name": "createTask",
					"outputs": [],
					"stateMutability": "nonpayable",
					"type": "function"
				},
				{
					"inputs": [
						{
							"internalType": "uint256",
							"name": "_taskId",
							"type": "uint256"
						},
						{
							"internalType": "bool",
							"name": "_outcome",
							"type": "bool"
						}
					],
					"name": "executeTask",
					"outputs": [],
					"stateMutability": "nonpayable",
					"type": "function"
				},
				{
					"inputs": [
						{
							"internalType": "uint256",
							"name": "_taskId",
							"type": "uint256"
						}
					],
					"name": "fundTask",
					"outputs": [
						{
							"internalType": "bool",
							"name": "",
							"type": "bool"
						}
					],
					"stateMutability": "payable",
					"type": "function"
				},
				{
					"inputs": [],
					"name": "owner",
					"outputs": [
						{
							"internalType": "address",
							"name": "",
							"type": "address"
						}
					],
					"stateMutability": "view",
					"type": "function"
				},
				{
					"inputs": [],
					"name": "taskCount",
					"outputs": [
						{
							"internalType": "uint256",
							"name": "",
							"type": "uint256"
						}
					],
					"stateMutability": "view",
					"type": "function"
				},
				{
					"inputs": [
						{
							"internalType": "uint256",
							"name": "",
							"type": "uint256"
						}
					],
					"name": "tasks",
					"outputs": [
						{
							"internalType": "string",
							"name": "description",
							"type": "string"
						},
						{
							"internalType": "uint256",
							"name": "fundingGoal",
							"type": "uint256"
						},
						{
							"internalType": "uint256",
							"name": "amountRaised",
							"type": "uint256"
						},
						{
							"internalType": "bool",
							"name": "isOpen",
							"type": "bool"
						},
						{
							"internalType": "bool",
							"name": "isSuccess",
							"type": "bool"
						}
					],
					"stateMutability": "view",
					"type": "function"
				},
				{
					"stateMutability": "payable",
					"type": "receive"
				}
			],
			"devdoc": {
				"kind": "dev",
				"methods": {},
				"version": 1
			},
			"evm": {
				"assembly": "    /* \"contracts/TaskContract.sol\":61:2478  contract TaskContract {... */\n  mstore(0x40, 0x80)\n    /* \"contracts/TaskContract.sol\":273:274  0 */\n  0x00\n    /* \"contracts/TaskContract.sol\":249:274  uint public taskCount = 0 */\n  dup1\n  sstore\n    /* \"contracts/TaskContract.sol\":744:824  constructor() {... */\n  callvalue\n  dup1\n  iszero\n  tag_1\n  jumpi\n  0x00\n  dup1\n  revert\ntag_1:\n  pop\n    /* \"contracts/TaskContract.sol\":777:787  msg.sender */\n  caller\n    /* \"contracts/TaskContract.sol\":769:774  owner */\n  0x02\n  0x00\n    /* \"contracts/TaskContract.sol\":769:787  owner = msg.sender */\n  0x0100\n  exp\n  dup2\n  sload\n  dup2\n  0xffffffffffffffffffffffffffffffffffffffff\n  mul\n  not\n  and\n  swap1\n  dup4\n  0xffffffffffffffffffffffffffffffffffffffff\n  and\n  mul\n  or\n  swap1\n  sstore\n  pop\n    /* \"contracts/TaskContract.sol\":61:2478  contract TaskContract {... */\n  dataSize(sub_0)\n  dup1\n  dataOffset(sub_0)\n  0x00\n  codecopy\n  0x00\n  return\nstop\n\nsub_0: assembly {\n        /* \"contracts/TaskContract.sol\":61:2478  contract TaskContract {... */\n      mstore(0x40, 0x80)\n      jumpi(tag_1, lt(calldatasize, 0x04))\n      shr(0xe0, calldataload(0x00))\n      dup1\n      0x04fe2b34\n      eq\n      tag_3\n      jumpi\n      dup1\n      0x60c539d3\n      eq\n      tag_4\n      jumpi\n      dup1\n      0x8d977672\n      eq\n      tag_5\n      jumpi\n      dup1\n      0x8da5cb5b\n      eq\n      tag_6\n      jumpi\n      dup1\n      0xb6cb58a5\n      eq\n      tag_7\n      jumpi\n      dup1\n      0xd1ff21c2\n      eq\n      tag_8\n      jumpi\n      jump(tag_2)\n    tag_1:\n      jumpi(tag_2, calldatasize)\n        /* \"contracts/TaskContract.sol\":1005:1041  ReceivedEther(msg.sender, msg.value) */\n      0xa419615bc8fda4c87663805ee2a3597a6d71c1d476911d9892f340d965bc7bf1\n        /* \"contracts/TaskContract.sol\":1019:1029  msg.sender */\n      caller\n        /* \"contracts/TaskContract.sol\":1031:1040  msg.value */\n      callvalue\n        /* \"contracts/TaskContract.sol\":1005:1041  ReceivedEther(msg.sender, msg.value) */\n      mload(0x40)\n      tag_11\n      swap3\n      swap2\n      swap1\n      tag_12\n      jump\t// in\n    tag_11:\n      mload(0x40)\n      dup1\n      swap2\n      sub\n      swap1\n      log1\n        /* \"contracts/TaskContract.sol\":61:2478  contract TaskContract {... */\n      stop\n    tag_2:\n      0x00\n      dup1\n      revert\n        /* \"contracts/TaskContract.sol\":1089:1346  function createTask(string memory _description, uint _goal) public {... */\n    tag_3:\n      callvalue\n      dup1\n      iszero\n      tag_13\n      jumpi\n      0x00\n      dup1\n      revert\n    tag_13:\n      pop\n      tag_14\n      0x04\n      dup1\n      calldatasize\n      sub\n      dup2\n      add\n      swap1\n      tag_15\n      swap2\n      swap1\n      tag_16\n      jump\t// in\n    tag_15:\n      tag_17\n      jump\t// in\n    tag_14:\n      stop\n        /* \"contracts/TaskContract.sol\":2155:2475  function executeTask(uint _taskId, bool _outcome) public onlyOwner {... */\n    tag_4:\n      callvalue\n      dup1\n      iszero\n      tag_18\n      jumpi\n      0x00\n      dup1\n      revert\n    tag_18:\n      pop\n      tag_19\n      0x04\n      dup1\n      calldatasize\n      sub\n      dup2\n      add\n      swap1\n      tag_20\n      swap2\n      swap1\n      tag_21\n      jump\t// in\n    tag_20:\n      tag_22\n      jump\t// in\n    tag_19:\n      stop\n        /* \"contracts/TaskContract.sol\":281:315  mapping(uint => Task) public tasks */\n    tag_5:\n      callvalue\n      dup1\n      iszero\n      tag_23\n      jumpi\n      0x00\n      dup1\n      revert\n    tag_23:\n      pop\n      tag_24\n      0x04\n      dup1\n      calldatasize\n      sub\n      dup2\n      add\n      swap1\n      tag_25\n      swap2\n      swap1\n      tag_26\n      jump\t// in\n    tag_25:\n      tag_27\n      jump\t// in\n    tag_24:\n      mload(0x40)\n      tag_28\n      swap6\n      swap5\n      swap4\n      swap3\n      swap2\n      swap1\n      tag_29\n      jump\t// in\n    tag_28:\n      mload(0x40)\n      dup1\n      swap2\n      sub\n      swap1\n      return\n        /* \"contracts/TaskContract.sol\":324:344  address public owner */\n    tag_6:\n      callvalue\n      dup1\n      iszero\n      tag_30\n      jumpi\n      0x00\n      dup1\n      revert\n    tag_30:\n      pop\n      tag_31\n      tag_32\n      jump\t// in\n    tag_31:\n      mload(0x40)\n      tag_33\n      swap2\n      swap1\n      tag_34\n      jump\t// in\n    tag_33:\n      mload(0x40)\n      dup1\n      swap2\n      sub\n      swap1\n      return\n        /* \"contracts/TaskContract.sol\":249:274  uint public taskCount = 0 */\n    tag_7:\n      callvalue\n      dup1\n      iszero\n      tag_35\n      jumpi\n      0x00\n      dup1\n      revert\n    tag_35:\n      pop\n      tag_36\n      tag_37\n      jump\t// in\n    tag_36:\n      mload(0x40)\n      tag_38\n      swap2\n      swap1\n      tag_39\n      jump\t// in\n    tag_38:\n      mload(0x40)\n      dup1\n      swap2\n      sub\n      swap1\n      return\n        /* \"contracts/TaskContract.sol\":1354:2145  function fundTask(uint _taskId) public payable returns (bool) {... */\n    tag_8:\n      tag_40\n      0x04\n      dup1\n      calldatasize\n      sub\n      dup2\n      add\n      swap1\n      tag_41\n      swap2\n      swap1\n      tag_26\n      jump\t// in\n    tag_41:\n      tag_42\n      jump\t// in\n    tag_40:\n      mload(0x40)\n      tag_43\n      swap2\n      swap1\n      tag_44\n      jump\t// in\n    tag_43:\n      mload(0x40)\n      dup1\n      swap2\n      sub\n      swap1\n      return\n        /* \"contracts/TaskContract.sol\":1089:1346  function createTask(string memory _description, uint _goal) public {... */\n    tag_17:\n        /* \"contracts/TaskContract.sol\":1186:1228  Task(_description, _goal, 0, false, false) */\n      mload(0x40)\n      dup1\n      0xa0\n      add\n      0x40\n      mstore\n      dup1\n        /* \"contracts/TaskContract.sol\":1191:1203  _description */\n      dup4\n        /* \"contracts/TaskContract.sol\":1186:1228  Task(_description, _goal, 0, false, false) */\n      dup2\n      mstore\n      0x20\n      add\n        /* \"contracts/TaskContract.sol\":1205:1210  _goal */\n      dup3\n        /* \"contracts/TaskContract.sol\":1186:1228  Task(_description, _goal, 0, false, false) */\n      dup2\n      mstore\n      0x20\n      add\n        /* \"contracts/TaskContract.sol\":1212:1213  0 */\n      0x00\n        /* \"contracts/TaskContract.sol\":1186:1228  Task(_description, _goal, 0, false, false) */\n      dup2\n      mstore\n      0x20\n      add\n        /* \"contracts/TaskContract.sol\":1215:1220  false */\n      0x00\n        /* \"contracts/TaskContract.sol\":1186:1228  Task(_description, _goal, 0, false, false) */\n      iszero\n      iszero\n      dup2\n      mstore\n      0x20\n      add\n        /* \"contracts/TaskContract.sol\":1222:1227  false */\n      0x00\n        /* \"contracts/TaskContract.sol\":1186:1228  Task(_description, _goal, 0, false, false) */\n      iszero\n      iszero\n      dup2\n      mstore\n      pop\n        /* \"contracts/TaskContract.sol\":1167:1172  tasks */\n      0x01\n        /* \"contracts/TaskContract.sol\":1167:1183  tasks[taskCount] */\n      0x00\n        /* \"contracts/TaskContract.sol\":1173:1182  taskCount */\n      dup1\n      sload\n        /* \"contracts/TaskContract.sol\":1167:1183  tasks[taskCount] */\n      dup2\n      mstore\n      0x20\n      add\n      swap1\n      dup2\n      mstore\n      0x20\n      add\n      0x00\n      keccak256\n        /* \"contracts/TaskContract.sol\":1167:1228  tasks[taskCount] = Task(_description, _goal, 0, false, false) */\n      0x00\n      dup3\n      add\n      mload\n      dup2\n      0x00\n      add\n      swap1\n      dup2\n      tag_46\n      swap2\n      swap1\n      tag_47\n      jump\t// in\n    tag_46:\n      pop\n      0x20\n      dup3\n      add\n      mload\n      dup2\n      0x01\n      add\n      sstore\n      0x40\n      dup3\n      add\n      mload\n      dup2\n      0x02\n      add\n      sstore\n      0x60\n      dup3\n      add\n      mload\n      dup2\n      0x03\n      add\n      exp(0x0100, 0x00)\n      dup2\n      sload\n      dup2\n      0xff\n      mul\n      not\n      and\n      swap1\n      dup4\n      iszero\n      iszero\n      mul\n      or\n      swap1\n      sstore\n      pop\n      0x80\n      dup3\n      add\n      mload\n      dup2\n      0x03\n      add\n      exp(0x0100, 0x01)\n      dup2\n      sload\n      dup2\n      0xff\n      mul\n      not\n      and\n      swap1\n      dup4\n      iszero\n      iszero\n      mul\n      or\n      swap1\n      sstore\n      pop\n      swap1\n      pop\n      pop\n        /* \"contracts/TaskContract.sol\":1244:1287  TaskCreated(taskCount, _description, _goal) */\n      0x146b4b2e55f6b6a4a8ac8239494150cd5f96b163e2d019440f369714f4a31eb8\n        /* \"contracts/TaskContract.sol\":1256:1265  taskCount */\n      sload(0x00)\n        /* \"contracts/TaskContract.sol\":1267:1279  _description */\n      dup4\n        /* \"contracts/TaskContract.sol\":1281:1286  _goal */\n      dup4\n        /* \"contracts/TaskContract.sol\":1244:1287  TaskCreated(taskCount, _description, _goal) */\n      mload(0x40)\n      tag_48\n      swap4\n      swap3\n      swap2\n      swap1\n      tag_49\n      jump\t// in\n    tag_48:\n      mload(0x40)\n      dup1\n      swap2\n      sub\n      swap1\n      log1\n        /* \"contracts/TaskContract.sol\":1327:1336  taskCount */\n      0x00\n      dup1\n        /* \"contracts/TaskContract.sol\":1327:1338  taskCount++ */\n      dup2\n      sload\n      dup1\n      swap3\n      swap2\n      swap1\n      tag_50\n      swap1\n      tag_51\n      jump\t// in\n    tag_50:\n      swap2\n      swap1\n      pop\n      sstore\n      pop\n        /* \"contracts/TaskContract.sol\":1089:1346  function createTask(string memory _description, uint _goal) public {... */\n      pop\n      pop\n      jump\t// out\n        /* \"contracts/TaskContract.sol\":2155:2475  function executeTask(uint _taskId, bool _outcome) public onlyOwner {... */\n    tag_22:\n        /* \"contracts/TaskContract.sol\":886:891  owner */\n      0x02\n      0x00\n      swap1\n      sload\n      swap1\n      0x0100\n      exp\n      swap1\n      div\n      0xffffffffffffffffffffffffffffffffffffffff\n      and\n        /* \"contracts/TaskContract.sol\":872:891  msg.sender == owner */\n      0xffffffffffffffffffffffffffffffffffffffff\n      and\n        /* \"contracts/TaskContract.sol\":872:882  msg.sender */\n      caller\n        /* \"contracts/TaskContract.sol\":872:891  msg.sender == owner */\n      0xffffffffffffffffffffffffffffffffffffffff\n      and\n      eq\n        /* \"contracts/TaskContract.sol\":864:934  require(msg.sender == owner, \"Only the owner can call this function.\") */\n      tag_53\n      jumpi\n      mload(0x40)\n      0x08c379a000000000000000000000000000000000000000000000000000000000\n      dup2\n      mstore\n      0x04\n      add\n      tag_54\n      swap1\n      tag_55\n      jump\t// in\n    tag_54:\n      mload(0x40)\n      dup1\n      swap2\n      sub\n      swap1\n      revert\n    tag_53:\n        /* \"contracts/TaskContract.sol\":2251:2260  taskCount */\n      sload(0x00)\n        /* \"contracts/TaskContract.sol\":2241:2248  _taskId */\n      dup3\n        /* \"contracts/TaskContract.sol\":2241:2260  _taskId < taskCount */\n      lt\n        /* \"contracts/TaskContract.sol\":2233:2285  require(_taskId < taskCount, \"Task ID is not valid\") */\n      tag_57\n      jumpi\n      mload(0x40)\n      0x08c379a000000000000000000000000000000000000000000000000000000000\n      dup2\n      mstore\n      0x04\n      add\n      tag_58\n      swap1\n      tag_59\n      jump\t// in\n    tag_58:\n      mload(0x40)\n      dup1\n      swap2\n      sub\n      swap1\n      revert\n    tag_57:\n        /* \"contracts/TaskContract.sol\":2321:2338  Task storage task */\n      0x00\n        /* \"contracts/TaskContract.sol\":2341:2346  tasks */\n      0x01\n        /* \"contracts/TaskContract.sol\":2341:2355  tasks[_taskId] */\n      0x00\n        /* \"contracts/TaskContract.sol\":2347:2354  _taskId */\n      dup5\n        /* \"contracts/TaskContract.sol\":2341:2355  tasks[_taskId] */\n      dup2\n      mstore\n      0x20\n      add\n      swap1\n      dup2\n      mstore\n      0x20\n      add\n      0x00\n      keccak256\n        /* \"contracts/TaskContract.sol\":2321:2355  Task storage task = tasks[_taskId] */\n      swap1\n      pop\n        /* \"contracts/TaskContract.sol\":2383:2391  _outcome */\n      dup2\n        /* \"contracts/TaskContract.sol\":2366:2370  task */\n      dup2\n        /* \"contracts/TaskContract.sol\":2366:2380  task.isSuccess */\n      0x03\n      add\n      0x01\n        /* \"contracts/TaskContract.sol\":2366:2391  task.isSuccess = _outcome */\n      0x0100\n      exp\n      dup2\n      sload\n      dup2\n      0xff\n      mul\n      not\n      and\n      swap1\n      dup4\n      iszero\n      iszero\n      mul\n      or\n      swap1\n      sstore\n      pop\n        /* \"contracts/TaskContract.sol\":2407:2438  TaskExecuted(_taskId, _outcome) */\n      0x927ecc698e7293785487e40c7eb8f2aefb6abc81d77df63ab5d5c883da1df93a\n        /* \"contracts/TaskContract.sol\":2420:2427  _taskId */\n      dup4\n        /* \"contracts/TaskContract.sol\":2429:2437  _outcome */\n      dup4\n        /* \"contracts/TaskContract.sol\":2407:2438  TaskExecuted(_taskId, _outcome) */\n      mload(0x40)\n      tag_60\n      swap3\n      swap2\n      swap1\n      tag_61\n      jump\t// in\n    tag_60:\n      mload(0x40)\n      dup1\n      swap2\n      sub\n      swap1\n      log1\n        /* \"contracts/TaskContract.sol\":2222:2475  {... */\n      pop\n        /* \"contracts/TaskContract.sol\":2155:2475  function executeTask(uint _taskId, bool _outcome) public onlyOwner {... */\n      pop\n      pop\n      jump\t// out\n        /* \"contracts/TaskContract.sol\":281:315  mapping(uint => Task) public tasks */\n    tag_27:\n      mstore(0x20, 0x01)\n      dup1\n      0x00\n      mstore\n      keccak256(0x00, 0x40)\n      0x00\n      swap2\n      pop\n      swap1\n      pop\n      dup1\n      0x00\n      add\n      dup1\n      sload\n      tag_62\n      swap1\n      tag_63\n      jump\t// in\n    tag_62:\n      dup1\n      0x1f\n      add\n      0x20\n      dup1\n      swap2\n      div\n      mul\n      0x20\n      add\n      mload(0x40)\n      swap1\n      dup2\n      add\n      0x40\n      mstore\n      dup1\n      swap3\n      swap2\n      swap1\n      dup2\n      dup2\n      mstore\n      0x20\n      add\n      dup3\n      dup1\n      sload\n      tag_64\n      swap1\n      tag_63\n      jump\t// in\n    tag_64:\n      dup1\n      iszero\n      tag_65\n      jumpi\n      dup1\n      0x1f\n      lt\n      tag_66\n      jumpi\n      0x0100\n      dup1\n      dup4\n      sload\n      div\n      mul\n      dup4\n      mstore\n      swap2\n      0x20\n      add\n      swap2\n      jump(tag_65)\n    tag_66:\n      dup3\n      add\n      swap2\n      swap1\n      0x00\n      mstore\n      keccak256(0x00, 0x20)\n      swap1\n    tag_67:\n      dup2\n      sload\n      dup2\n      mstore\n      swap1\n      0x01\n      add\n      swap1\n      0x20\n      add\n      dup1\n      dup4\n      gt\n      tag_67\n      jumpi\n      dup3\n      swap1\n      sub\n      0x1f\n      and\n      dup3\n      add\n      swap2\n    tag_65:\n      pop\n      pop\n      pop\n      pop\n      pop\n      swap1\n      dup1\n      0x01\n      add\n      sload\n      swap1\n      dup1\n      0x02\n      add\n      sload\n      swap1\n      dup1\n      0x03\n      add\n      0x00\n      swap1\n      sload\n      swap1\n      0x0100\n      exp\n      swap1\n      div\n      0xff\n      and\n      swap1\n      dup1\n      0x03\n      add\n      0x01\n      swap1\n      sload\n      swap1\n      0x0100\n      exp\n      swap1\n      div\n      0xff\n      and\n      swap1\n      pop\n      dup6\n      jump\t// out\n        /* \"contracts/TaskContract.sol\":324:344  address public owner */\n    tag_32:\n      0x02\n      0x00\n      swap1\n      sload\n      swap1\n      0x0100\n      exp\n      swap1\n      div\n      0xffffffffffffffffffffffffffffffffffffffff\n      and\n      dup2\n      jump\t// out\n        /* \"contracts/TaskContract.sol\":249:274  uint public taskCount = 0 */\n    tag_37:\n      sload(0x00)\n      dup2\n      jump\t// out\n        /* \"contracts/TaskContract.sol\":1354:2145  function fundTask(uint _taskId) public payable returns (bool) {... */\n    tag_42:\n        /* \"contracts/TaskContract.sol\":1410:1414  bool */\n      0x00\n        /* \"contracts/TaskContract.sol\":1457:1464  _taskId */\n      dup2\n        /* \"contracts/TaskContract.sol\":1432:1476  DebugLog(\"Funding task\", _taskId, msg.value) */\n      0x1e12a21fdf194d5d13bc6106efc72ff0f33ff3272045d478355d95e3e1aa3ff6\n        /* \"contracts/TaskContract.sol\":1466:1475  msg.value */\n      callvalue\n        /* \"contracts/TaskContract.sol\":1432:1476  DebugLog(\"Funding task\", _taskId, msg.value) */\n      mload(0x40)\n      tag_69\n      swap2\n      swap1\n      tag_70\n      jump\t// in\n    tag_69:\n      mload(0x40)\n      dup1\n      swap2\n      sub\n      swap1\n      log2\n        /* \"contracts/TaskContract.sol\":1546:1555  taskCount */\n      sload(0x00)\n        /* \"contracts/TaskContract.sol\":1535:1542  _taskId */\n      dup3\n        /* \"contracts/TaskContract.sol\":1535:1555  _taskId >= taskCount */\n      lt\n        /* \"contracts/TaskContract.sol\":1531:1699  if (_taskId >= taskCount) {... */\n      tag_71\n      jumpi\n        /* \"contracts/TaskContract.sol\":1577:1604  ErrorLog(\"Invalid task ID\") */\n      0xfe46ad7cf507184ab42d7a2576647d779ff7bc7f831bfbead75fbe056c1adb63\n      mload(0x40)\n      tag_72\n      swap1\n      tag_73\n      jump\t// in\n    tag_72:\n      mload(0x40)\n      dup1\n      swap2\n      sub\n      swap1\n      log1\n        /* \"contracts/TaskContract.sol\":1682:1687  false */\n      0x00\n        /* \"contracts/TaskContract.sol\":1675:1687  return false */\n      swap1\n      pop\n      jump(tag_68)\n        /* \"contracts/TaskContract.sol\":1531:1699  if (_taskId >= taskCount) {... */\n    tag_71:\n        /* \"contracts/TaskContract.sol\":1709:1726  Task storage task */\n      0x00\n        /* \"contracts/TaskContract.sol\":1729:1734  tasks */\n      0x01\n        /* \"contracts/TaskContract.sol\":1729:1743  tasks[_taskId] */\n      0x00\n        /* \"contracts/TaskContract.sol\":1735:1742  _taskId */\n      dup5\n        /* \"contracts/TaskContract.sol\":1729:1743  tasks[_taskId] */\n      dup2\n      mstore\n      0x20\n      add\n      swap1\n      dup2\n      mstore\n      0x20\n      add\n      0x00\n      keccak256\n        /* \"contracts/TaskContract.sol\":1709:1743  Task storage task = tasks[_taskId] */\n      swap1\n      pop\n        /* \"contracts/TaskContract.sol\":1775:1784  msg.value */\n      callvalue\n        /* \"contracts/TaskContract.sol\":1754:1758  task */\n      dup2\n        /* \"contracts/TaskContract.sol\":1754:1771  task.amountRaised */\n      0x02\n      add\n      0x00\n        /* \"contracts/TaskContract.sol\":1754:1784  task.amountRaised += msg.value */\n      dup3\n      dup3\n      sload\n      tag_74\n      swap2\n      swap1\n      tag_75\n      jump\t// in\n    tag_74:\n      swap3\n      pop\n      pop\n      dup2\n      swap1\n      sstore\n      pop\n        /* \"contracts/TaskContract.sol\":1834:1841  _taskId */\n      dup3\n        /* \"contracts/TaskContract.sol\":1800:1861  DebugLog(\"Amount raised updated\", _taskId, task.amountRaised) */\n      0x1e12a21fdf194d5d13bc6106efc72ff0f33ff3272045d478355d95e3e1aa3ff6\n        /* \"contracts/TaskContract.sol\":1843:1847  task */\n      dup3\n        /* \"contracts/TaskContract.sol\":1843:1860  task.amountRaised */\n      0x02\n      add\n      sload\n        /* \"contracts/TaskContract.sol\":1800:1861  DebugLog(\"Amount raised updated\", _taskId, task.amountRaised) */\n      mload(0x40)\n      tag_76\n      swap2\n      swap1\n      tag_77\n      jump\t// in\n    tag_76:\n      mload(0x40)\n      dup1\n      swap2\n      sub\n      swap1\n      log2\n        /* \"contracts/TaskContract.sol\":1933:1937  task */\n      dup1\n        /* \"contracts/TaskContract.sol\":1933:1949  task.fundingGoal */\n      0x01\n      add\n      sload\n        /* \"contracts/TaskContract.sol\":1912:1916  task */\n      dup2\n        /* \"contracts/TaskContract.sol\":1912:1929  task.amountRaised */\n      0x02\n      add\n      sload\n        /* \"contracts/TaskContract.sol\":1912:1949  task.amountRaised >= task.fundingGoal */\n      lt\n        /* \"contracts/TaskContract.sol\":1909:2116  if(task.amountRaised >= task.fundingGoal) {... */\n      tag_78\n      jumpi\n        /* \"contracts/TaskContract.sol\":1980:1984  true */\n      0x01\n        /* \"contracts/TaskContract.sol\":1966:1970  task */\n      dup2\n        /* \"contracts/TaskContract.sol\":1966:1977  task.isOpen */\n      0x03\n      add\n      0x00\n        /* \"contracts/TaskContract.sol\":1966:1984  task.isOpen = true */\n      0x0100\n      exp\n      dup2\n      sload\n      dup2\n      0xff\n      mul\n      not\n      and\n      swap1\n      dup4\n      iszero\n      iszero\n      mul\n      or\n      swap1\n      sstore\n      pop\n        /* \"contracts/TaskContract.sol\":2033:2040  _taskId */\n      dup3\n        /* \"contracts/TaskContract.sol\":2004:2060  DebugLog(\"Task is now open\", _taskId, task.amountRaised) */\n      0x1e12a21fdf194d5d13bc6106efc72ff0f33ff3272045d478355d95e3e1aa3ff6\n        /* \"contracts/TaskContract.sol\":2042:2046  task */\n      dup3\n        /* \"contracts/TaskContract.sol\":2042:2059  task.amountRaised */\n      0x02\n      add\n      sload\n        /* \"contracts/TaskContract.sol\":2004:2060  DebugLog(\"Task is now open\", _taskId, task.amountRaised) */\n      mload(0x40)\n      tag_79\n      swap2\n      swap1\n      tag_80\n      jump\t// in\n    tag_79:\n      mload(0x40)\n      dup1\n      swap2\n      sub\n      swap1\n      log2\n        /* \"contracts/TaskContract.sol\":1909:2116  if(task.amountRaised >= task.fundingGoal) {... */\n    tag_78:\n        /* \"contracts/TaskContract.sol\":2133:2137  true */\n      0x01\n        /* \"contracts/TaskContract.sol\":2126:2137  return true */\n      swap2\n      pop\n      pop\n        /* \"contracts/TaskContract.sol\":1354:2145  function fundTask(uint _taskId) public payable returns (bool) {... */\n    tag_68:\n      swap2\n      swap1\n      pop\n      jump\t// out\n        /* \"#utility.yul\":7:133   */\n    tag_81:\n        /* \"#utility.yul\":44:51   */\n      0x00\n        /* \"#utility.yul\":84:126   */\n      0xffffffffffffffffffffffffffffffffffffffff\n        /* \"#utility.yul\":77:82   */\n      dup3\n        /* \"#utility.yul\":73:127   */\n      and\n        /* \"#utility.yul\":62:127   */\n      swap1\n      pop\n        /* \"#utility.yul\":7:133   */\n      swap2\n      swap1\n      pop\n      jump\t// out\n        /* \"#utility.yul\":139:235   */\n    tag_82:\n        /* \"#utility.yul\":176:183   */\n      0x00\n        /* \"#utility.yul\":205:229   */\n      tag_141\n        /* \"#utility.yul\":223:228   */\n      dup3\n        /* \"#utility.yul\":205:229   */\n      tag_81\n      jump\t// in\n    tag_141:\n        /* \"#utility.yul\":194:229   */\n      swap1\n      pop\n        /* \"#utility.yul\":139:235   */\n      swap2\n      swap1\n      pop\n      jump\t// out\n        /* \"#utility.yul\":241:359   */\n    tag_83:\n        /* \"#utility.yul\":328:352   */\n      tag_143\n        /* \"#utility.yul\":346:351   */\n      dup2\n        /* \"#utility.yul\":328:352   */\n      tag_82\n      jump\t// in\n    tag_143:\n        /* \"#utility.yul\":323:326   */\n      dup3\n        /* \"#utility.yul\":316:353   */\n      mstore\n        /* \"#utility.yul\":241:359   */\n      pop\n      pop\n      jump\t// out\n        /* \"#utility.yul\":365:442   */\n    tag_84:\n        /* \"#utility.yul\":402:409   */\n      0x00\n        /* \"#utility.yul\":431:436   */\n      dup2\n        /* \"#utility.yul\":420:436   */\n      swap1\n      pop\n        /* \"#utility.yul\":365:442   */\n      swap2\n      swap1\n      pop\n      jump\t// out\n        /* \"#utility.yul\":448:566   */\n    tag_85:\n        /* \"#utility.yul\":535:559   */\n      tag_146\n        /* \"#utility.yul\":553:558   */\n      dup2\n        /* \"#utility.yul\":535:559   */\n      tag_84\n      jump\t// in\n    tag_146:\n        /* \"#utility.yul\":530:533   */\n      dup3\n        /* \"#utility.yul\":523:560   */\n      mstore\n        /* \"#utility.yul\":448:566   */\n      pop\n      pop\n      jump\t// out\n        /* \"#utility.yul\":572:904   */\n    tag_12:\n        /* \"#utility.yul\":693:697   */\n      0x00\n        /* \"#utility.yul\":731:733   */\n      0x40\n        /* \"#utility.yul\":720:729   */\n      dup3\n        /* \"#utility.yul\":716:734   */\n      add\n        /* \"#utility.yul\":708:734   */\n      swap1\n      pop\n        /* \"#utility.yul\":744:815   */\n      tag_148\n        /* \"#utility.yul\":812:813   */\n      0x00\n        /* \"#utility.yul\":801:810   */\n      dup4\n        /* \"#utility.yul\":797:814   */\n      add\n        /* \"#utility.yul\":788:794   */\n      dup6\n        /* \"#utility.yul\":744:815   */\n      tag_83\n      jump\t// in\n    tag_148:\n        /* \"#utility.yul\":825:897   */\n      tag_149\n        /* \"#utility.yul\":893:895   */\n      0x20\n        /* \"#utility.yul\":882:891   */\n      dup4\n        /* \"#utility.yul\":878:896   */\n      add\n        /* \"#utility.yul\":869:875   */\n      dup5\n        /* \"#utility.yul\":825:897   */\n      tag_85\n      jump\t// in\n    tag_149:\n        /* \"#utility.yul\":572:904   */\n      swap4\n      swap3\n      pop\n      pop\n      pop\n      jump\t// out\n        /* \"#utility.yul\":910:985   */\n    tag_86:\n        /* \"#utility.yul\":943:949   */\n      0x00\n        /* \"#utility.yul\":976:978   */\n      0x40\n        /* \"#utility.yul\":970:979   */\n      mload\n        /* \"#utility.yul\":960:979   */\n      swap1\n      pop\n        /* \"#utility.yul\":910:985   */\n      swap1\n      jump\t// out\n        /* \"#utility.yul\":991:1108   */\n    tag_87:\n        /* \"#utility.yul\":1100:1101   */\n      0x00\n        /* \"#utility.yul\":1097:1098   */\n      dup1\n        /* \"#utility.yul\":1090:1102   */\n      revert\n        /* \"#utility.yul\":1114:1231   */\n    tag_88:\n        /* \"#utility.yul\":1223:1224   */\n      0x00\n        /* \"#utility.yul\":1220:1221   */\n      dup1\n        /* \"#utility.yul\":1213:1225   */\n      revert\n        /* \"#utility.yul\":1237:1354   */\n    tag_89:\n        /* \"#utility.yul\":1346:1347   */\n      0x00\n        /* \"#utility.yul\":1343:1344   */\n      dup1\n        /* \"#utility.yul\":1336:1348   */\n      revert\n        /* \"#utility.yul\":1360:1477   */\n    tag_90:\n        /* \"#utility.yul\":1469:1470   */\n      0x00\n        /* \"#utility.yul\":1466:1467   */\n      dup1\n        /* \"#utility.yul\":1459:1471   */\n      revert\n        /* \"#utility.yul\":1483:1585   */\n    tag_91:\n        /* \"#utility.yul\":1524:1530   */\n      0x00\n        /* \"#utility.yul\":1575:1577   */\n      0x1f\n        /* \"#utility.yul\":1571:1578   */\n      not\n        /* \"#utility.yul\":1566:1568   */\n      0x1f\n        /* \"#utility.yul\":1559:1564   */\n      dup4\n        /* \"#utility.yul\":1555:1569   */\n      add\n        /* \"#utility.yul\":1551:1579   */\n      and\n        /* \"#utility.yul\":1541:1579   */\n      swap1\n      pop\n        /* \"#utility.yul\":1483:1585   */\n      swap2\n      swap1\n      pop\n      jump\t// out\n        /* \"#utility.yul\":1591:1771   */\n    tag_92:\n        /* \"#utility.yul\":1639:1716   */\n      0x4e487b7100000000000000000000000000000000000000000000000000000000\n        /* \"#utility.yul\":1636:1637   */\n      0x00\n        /* \"#utility.yul\":1629:1717   */\n      mstore\n        /* \"#utility.yul\":1736:1740   */\n      0x41\n        /* \"#utility.yul\":1733:1734   */\n      0x04\n        /* \"#utility.yul\":1726:1741   */\n      mstore\n        /* \"#utility.yul\":1760:1764   */\n      0x24\n        /* \"#utility.yul\":1757:1758   */\n      0x00\n        /* \"#utility.yul\":1750:1765   */\n      revert\n        /* \"#utility.yul\":1777:2058   */\n    tag_93:\n        /* \"#utility.yul\":1860:1887   */\n      tag_158\n        /* \"#utility.yul\":1882:1886   */\n      dup3\n        /* \"#utility.yul\":1860:1887   */\n      tag_91\n      jump\t// in\n    tag_158:\n        /* \"#utility.yul\":1852:1858   */\n      dup2\n        /* \"#utility.yul\":1848:1888   */\n      add\n        /* \"#utility.yul\":1990:1996   */\n      dup2\n        /* \"#utility.yul\":1978:1988   */\n      dup2\n        /* \"#utility.yul\":1975:1997   */\n      lt\n        /* \"#utility.yul\":1954:1972   */\n      0xffffffffffffffff\n        /* \"#utility.yul\":1942:1952   */\n      dup3\n        /* \"#utility.yul\":1939:1973   */\n      gt\n        /* \"#utility.yul\":1936:1998   */\n      or\n        /* \"#utility.yul\":1933:2021   */\n      iszero\n      tag_159\n      jumpi\n        /* \"#utility.yul\":2001:2019   */\n      tag_160\n      tag_92\n      jump\t// in\n    tag_160:\n        /* \"#utility.yul\":1933:2021   */\n    tag_159:\n        /* \"#utility.yul\":2041:2051   */\n      dup1\n        /* \"#utility.yul\":2037:2039   */\n      0x40\n        /* \"#utility.yul\":2030:2052   */\n      mstore\n        /* \"#utility.yul\":1820:2058   */\n      pop\n        /* \"#utility.yul\":1777:2058   */\n      pop\n      pop\n      jump\t// out\n        /* \"#utility.yul\":2064:2193   */\n    tag_94:\n        /* \"#utility.yul\":2098:2104   */\n      0x00\n        /* \"#utility.yul\":2125:2145   */\n      tag_162\n      tag_86\n      jump\t// in\n    tag_162:\n        /* \"#utility.yul\":2115:2145   */\n      swap1\n      pop\n        /* \"#utility.yul\":2154:2187   */\n      tag_163\n        /* \"#utility.yul\":2182:2186   */\n      dup3\n        /* \"#utility.yul\":2174:2180   */\n      dup3\n        /* \"#utility.yul\":2154:2187   */\n      tag_93\n      jump\t// in\n    tag_163:\n        /* \"#utility.yul\":2064:2193   */\n      swap2\n      swap1\n      pop\n      jump\t// out\n        /* \"#utility.yul\":2199:2507   */\n    tag_95:\n        /* \"#utility.yul\":2261:2265   */\n      0x00\n        /* \"#utility.yul\":2351:2369   */\n      0xffffffffffffffff\n        /* \"#utility.yul\":2343:2349   */\n      dup3\n        /* \"#utility.yul\":2340:2370   */\n      gt\n        /* \"#utility.yul\":2337:2393   */\n      iszero\n      tag_165\n      jumpi\n        /* \"#utility.yul\":2373:2391   */\n      tag_166\n      tag_92\n      jump\t// in\n    tag_166:\n        /* \"#utility.yul\":2337:2393   */\n    tag_165:\n        /* \"#utility.yul\":2411:2440   */\n      tag_167\n        /* \"#utility.yul\":2433:2439   */\n      dup3\n        /* \"#utility.yul\":2411:2440   */\n      tag_91\n      jump\t// in\n    tag_167:\n        /* \"#utility.yul\":2403:2440   */\n      swap1\n      pop\n        /* \"#utility.yul\":2495:2499   */\n      0x20\n        /* \"#utility.yul\":2489:2493   */\n      dup2\n        /* \"#utility.yul\":2485:2500   */\n      add\n        /* \"#utility.yul\":2477:2500   */\n      swap1\n      pop\n        /* \"#utility.yul\":2199:2507   */\n      swap2\n      swap1\n      pop\n      jump\t// out\n        /* \"#utility.yul\":2513:2661   */\n    tag_96:\n        /* \"#utility.yul\":2611:2617   */\n      dup3\n        /* \"#utility.yul\":2606:2609   */\n      dup2\n        /* \"#utility.yul\":2601:2604   */\n      dup4\n        /* \"#utility.yul\":2588:2618   */\n      calldatacopy\n        /* \"#utility.yul\":2652:2653   */\n      0x00\n        /* \"#utility.yul\":2643:2649   */\n      dup4\n        /* \"#utility.yul\":2638:2641   */\n      dup4\n        /* \"#utility.yul\":2634:2650   */\n      add\n        /* \"#utility.yul\":2627:2654   */\n      mstore\n        /* \"#utility.yul\":2513:2661   */\n      pop\n      pop\n      pop\n      jump\t// out\n        /* \"#utility.yul\":2667:3092   */\n    tag_97:\n        /* \"#utility.yul\":2745:2750   */\n      0x00\n        /* \"#utility.yul\":2770:2836   */\n      tag_170\n        /* \"#utility.yul\":2786:2835   */\n      tag_171\n        /* \"#utility.yul\":2828:2834   */\n      dup5\n        /* \"#utility.yul\":2786:2835   */\n      tag_95\n      jump\t// in\n    tag_171:\n        /* \"#utility.yul\":2770:2836   */\n      tag_94\n      jump\t// in\n    tag_170:\n        /* \"#utility.yul\":2761:2836   */\n      swap1\n      pop\n        /* \"#utility.yul\":2859:2865   */\n      dup3\n        /* \"#utility.yul\":2852:2857   */\n      dup2\n        /* \"#utility.yul\":2845:2866   */\n      mstore\n        /* \"#utility.yul\":2897:2901   */\n      0x20\n        /* \"#utility.yul\":2890:2895   */\n      dup2\n        /* \"#utility.yul\":2886:2902   */\n      add\n        /* \"#utility.yul\":2935:2938   */\n      dup5\n        /* \"#utility.yul\":2926:2932   */\n      dup5\n        /* \"#utility.yul\":2921:2924   */\n      dup5\n        /* \"#utility.yul\":2917:2933   */\n      add\n        /* \"#utility.yul\":2914:2939   */\n      gt\n        /* \"#utility.yul\":2911:3023   */\n      iszero\n      tag_172\n      jumpi\n        /* \"#utility.yul\":2942:3021   */\n      tag_173\n      tag_90\n      jump\t// in\n    tag_173:\n        /* \"#utility.yul\":2911:3023   */\n    tag_172:\n        /* \"#utility.yul\":3032:3086   */\n      tag_174\n        /* \"#utility.yul\":3079:3085   */\n      dup5\n        /* \"#utility.yul\":3074:3077   */\n      dup3\n        /* \"#utility.yul\":3069:3072   */\n      dup6\n        /* \"#utility.yul\":3032:3086   */\n      tag_96\n      jump\t// in\n    tag_174:\n        /* \"#utility.yul\":2751:3092   */\n      pop\n        /* \"#utility.yul\":2667:3092   */\n      swap4\n      swap3\n      pop\n      pop\n      pop\n      jump\t// out\n        /* \"#utility.yul\":3112:3452   */\n    tag_98:\n        /* \"#utility.yul\":3168:3173   */\n      0x00\n        /* \"#utility.yul\":3217:3220   */\n      dup3\n        /* \"#utility.yul\":3210:3214   */\n      0x1f\n        /* \"#utility.yul\":3202:3208   */\n      dup4\n        /* \"#utility.yul\":3198:3215   */\n      add\n        /* \"#utility.yul\":3194:3221   */\n      slt\n        /* \"#utility.yul\":3184:3306   */\n      tag_176\n      jumpi\n        /* \"#utility.yul\":3225:3304   */\n      tag_177\n      tag_89\n      jump\t// in\n    tag_177:\n        /* \"#utility.yul\":3184:3306   */\n    tag_176:\n        /* \"#utility.yul\":3342:3348   */\n      dup2\n        /* \"#utility.yul\":3329:3349   */\n      calldataload\n        /* \"#utility.yul\":3367:3446   */\n      tag_178\n        /* \"#utility.yul\":3442:3445   */\n      dup5\n        /* \"#utility.yul\":3434:3440   */\n      dup3\n        /* \"#utility.yul\":3427:3431   */\n      0x20\n        /* \"#utility.yul\":3419:3425   */\n      dup7\n        /* \"#utility.yul\":3415:3432   */\n      add\n        /* \"#utility.yul\":3367:3446   */\n      tag_97\n      jump\t// in\n    tag_178:\n        /* \"#utility.yul\":3358:3446   */\n      swap2\n      pop\n        /* \"#utility.yul\":3174:3452   */\n      pop\n        /* \"#utility.yul\":3112:3452   */\n      swap3\n      swap2\n      pop\n      pop\n      jump\t// out\n        /* \"#utility.yul\":3458:3580   */\n    tag_99:\n        /* \"#utility.yul\":3531:3555   */\n      tag_180\n        /* \"#utility.yul\":3549:3554   */\n      dup2\n        /* \"#utility.yul\":3531:3555   */\n      tag_84\n      jump\t// in\n    tag_180:\n        /* \"#utility.yul\":3524:3529   */\n      dup2\n        /* \"#utility.yul\":3521:3556   */\n      eq\n        /* \"#utility.yul\":3511:3574   */\n      tag_181\n      jumpi\n        /* \"#utility.yul\":3570:3571   */\n      0x00\n        /* \"#utility.yul\":3567:3568   */\n      dup1\n        /* \"#utility.yul\":3560:3572   */\n      revert\n        /* \"#utility.yul\":3511:3574   */\n    tag_181:\n        /* \"#utility.yul\":3458:3580   */\n      pop\n      jump\t// out\n        /* \"#utility.yul\":3586:3725   */\n    tag_100:\n        /* \"#utility.yul\":3632:3637   */\n      0x00\n        /* \"#utility.yul\":3670:3676   */\n      dup2\n        /* \"#utility.yul\":3657:3677   */\n      calldataload\n        /* \"#utility.yul\":3648:3677   */\n      swap1\n      pop\n        /* \"#utility.yul\":3686:3719   */\n      tag_183\n        /* \"#utility.yul\":3713:3718   */\n      dup2\n        /* \"#utility.yul\":3686:3719   */\n      tag_99\n      jump\t// in\n    tag_183:\n        /* \"#utility.yul\":3586:3725   */\n      swap3\n      swap2\n      pop\n      pop\n      jump\t// out\n        /* \"#utility.yul\":3731:4385   */\n    tag_16:\n        /* \"#utility.yul\":3809:3815   */\n      0x00\n        /* \"#utility.yul\":3817:3823   */\n      dup1\n        /* \"#utility.yul\":3866:3868   */\n      0x40\n        /* \"#utility.yul\":3854:3863   */\n      dup4\n        /* \"#utility.yul\":3845:3852   */\n      dup6\n        /* \"#utility.yul\":3841:3864   */\n      sub\n        /* \"#utility.yul\":3837:3869   */\n      slt\n        /* \"#utility.yul\":3834:3953   */\n      iszero\n      tag_185\n      jumpi\n        /* \"#utility.yul\":3872:3951   */\n      tag_186\n      tag_87\n      jump\t// in\n    tag_186:\n        /* \"#utility.yul\":3834:3953   */\n    tag_185:\n        /* \"#utility.yul\":4020:4021   */\n      0x00\n        /* \"#utility.yul\":4009:4018   */\n      dup4\n        /* \"#utility.yul\":4005:4022   */\n      add\n        /* \"#utility.yul\":3992:4023   */\n      calldataload\n        /* \"#utility.yul\":4050:4068   */\n      0xffffffffffffffff\n        /* \"#utility.yul\":4042:4048   */\n      dup2\n        /* \"#utility.yul\":4039:4069   */\n      gt\n        /* \"#utility.yul\":4036:4153   */\n      iszero\n      tag_187\n      jumpi\n        /* \"#utility.yul\":4072:4151   */\n      tag_188\n      tag_88\n      jump\t// in\n    tag_188:\n        /* \"#utility.yul\":4036:4153   */\n    tag_187:\n        /* \"#utility.yul\":4177:4240   */\n      tag_189\n        /* \"#utility.yul\":4232:4239   */\n      dup6\n        /* \"#utility.yul\":4223:4229   */\n      dup3\n        /* \"#utility.yul\":4212:4221   */\n      dup7\n        /* \"#utility.yul\":4208:4230   */\n      add\n        /* \"#utility.yul\":4177:4240   */\n      tag_98\n      jump\t// in\n    tag_189:\n        /* \"#utility.yul\":4167:4240   */\n      swap3\n      pop\n        /* \"#utility.yul\":3963:4250   */\n      pop\n        /* \"#utility.yul\":4289:4291   */\n      0x20\n        /* \"#utility.yul\":4315:4368   */\n      tag_190\n        /* \"#utility.yul\":4360:4367   */\n      dup6\n        /* \"#utility.yul\":4351:4357   */\n      dup3\n        /* \"#utility.yul\":4340:4349   */\n      dup7\n        /* \"#utility.yul\":4336:4358   */\n      add\n        /* \"#utility.yul\":4315:4368   */\n      tag_100\n      jump\t// in\n    tag_190:\n        /* \"#utility.yul\":4305:4368   */\n      swap2\n      pop\n        /* \"#utility.yul\":4260:4378   */\n      pop\n        /* \"#utility.yul\":3731:4385   */\n      swap3\n      pop\n      swap3\n      swap1\n      pop\n      jump\t// out\n        /* \"#utility.yul\":4391:4481   */\n    tag_101:\n        /* \"#utility.yul\":4425:4432   */\n      0x00\n        /* \"#utility.yul\":4468:4473   */\n      dup2\n        /* \"#utility.yul\":4461:4474   */\n      iszero\n        /* \"#utility.yul\":4454:4475   */\n      iszero\n        /* \"#utility.yul\":4443:4475   */\n      swap1\n      pop\n        /* \"#utility.yul\":4391:4481   */\n      swap2\n      swap1\n      pop\n      jump\t// out\n        /* \"#utility.yul\":4487:4603   */\n    tag_102:\n        /* \"#utility.yul\":4557:4578   */\n      tag_193\n        /* \"#utility.yul\":4572:4577   */\n      dup2\n        /* \"#utility.yul\":4557:4578   */\n      tag_101\n      jump\t// in\n    tag_193:\n        /* \"#utility.yul\":4550:4555   */\n      dup2\n        /* \"#utility.yul\":4547:4579   */\n      eq\n        /* \"#utility.yul\":4537:4597   */\n      tag_194\n      jumpi\n        /* \"#utility.yul\":4593:4594   */\n      0x00\n        /* \"#utility.yul\":4590:4591   */\n      dup1\n        /* \"#utility.yul\":4583:4595   */\n      revert\n        /* \"#utility.yul\":4537:4597   */\n    tag_194:\n        /* \"#utility.yul\":4487:4603   */\n      pop\n      jump\t// out\n        /* \"#utility.yul\":4609:4742   */\n    tag_103:\n        /* \"#utility.yul\":4652:4657   */\n      0x00\n        /* \"#utility.yul\":4690:4696   */\n      dup2\n        /* \"#utility.yul\":4677:4697   */\n      calldataload\n        /* \"#utility.yul\":4668:4697   */\n      swap1\n      pop\n        /* \"#utility.yul\":4706:4736   */\n      tag_196\n        /* \"#utility.yul\":4730:4735   */\n      dup2\n        /* \"#utility.yul\":4706:4736   */\n      tag_102\n      jump\t// in\n    tag_196:\n        /* \"#utility.yul\":4609:4742   */\n      swap3\n      swap2\n      pop\n      pop\n      jump\t// out\n        /* \"#utility.yul\":4748:5216   */\n    tag_21:\n        /* \"#utility.yul\":4813:4819   */\n      0x00\n        /* \"#utility.yul\":4821:4827   */\n      dup1\n        /* \"#utility.yul\":4870:4872   */\n      0x40\n        /* \"#utility.yul\":4858:4867   */\n      dup4\n        /* \"#utility.yul\":4849:4856   */\n      dup6\n        /* \"#utility.yul\":4845:4868   */\n      sub\n        /* \"#utility.yul\":4841:4873   */\n      slt\n        /* \"#utility.yul\":4838:4957   */\n      iszero\n      tag_198\n      jumpi\n        /* \"#utility.yul\":4876:4955   */\n      tag_199\n      tag_87\n      jump\t// in\n    tag_199:\n        /* \"#utility.yul\":4838:4957   */\n    tag_198:\n        /* \"#utility.yul\":4996:4997   */\n      0x00\n        /* \"#utility.yul\":5021:5074   */\n      tag_200\n        /* \"#utility.yul\":5066:5073   */\n      dup6\n        /* \"#utility.yul\":5057:5063   */\n      dup3\n        /* \"#utility.yul\":5046:5055   */\n      dup7\n        /* \"#utility.yul\":5042:5064   */\n      add\n        /* \"#utility.yul\":5021:5074   */\n      tag_100\n      jump\t// in\n    tag_200:\n        /* \"#utility.yul\":5011:5074   */\n      swap3\n      pop\n        /* \"#utility.yul\":4967:5084   */\n      pop\n        /* \"#utility.yul\":5123:5125   */\n      0x20\n        /* \"#utility.yul\":5149:5199   */\n      tag_201\n        /* \"#utility.yul\":5191:5198   */\n      dup6\n        /* \"#utility.yul\":5182:5188   */\n      dup3\n        /* \"#utility.yul\":5171:5180   */\n      dup7\n        /* \"#utility.yul\":5167:5189   */\n      add\n        /* \"#utility.yul\":5149:5199   */\n      tag_103\n      jump\t// in\n    tag_201:\n        /* \"#utility.yul\":5139:5199   */\n      swap2\n      pop\n        /* \"#utility.yul\":5094:5209   */\n      pop\n        /* \"#utility.yul\":4748:5216   */\n      swap3\n      pop\n      swap3\n      swap1\n      pop\n      jump\t// out\n        /* \"#utility.yul\":5222:5551   */\n    tag_26:\n        /* \"#utility.yul\":5281:5287   */\n      0x00\n        /* \"#utility.yul\":5330:5332   */\n      0x20\n        /* \"#utility.yul\":5318:5327   */\n      dup3\n        /* \"#utility.yul\":5309:5316   */\n      dup5\n        /* \"#utility.yul\":5305:5328   */\n      sub\n        /* \"#utility.yul\":5301:5333   */\n      slt\n        /* \"#utility.yul\":5298:5417   */\n      iszero\n      tag_203\n      jumpi\n        /* \"#utility.yul\":5336:5415   */\n      tag_204\n      tag_87\n      jump\t// in\n    tag_204:\n        /* \"#utility.yul\":5298:5417   */\n    tag_203:\n        /* \"#utility.yul\":5456:5457   */\n      0x00\n        /* \"#utility.yul\":5481:5534   */\n      tag_205\n        /* \"#utility.yul\":5526:5533   */\n      dup5\n        /* \"#utility.yul\":5517:5523   */\n      dup3\n        /* \"#utility.yul\":5506:5515   */\n      dup6\n        /* \"#utility.yul\":5502:5524   */\n      add\n        /* \"#utility.yul\":5481:5534   */\n      tag_100\n      jump\t// in\n    tag_205:\n        /* \"#utility.yul\":5471:5534   */\n      swap2\n      pop\n        /* \"#utility.yul\":5427:5544   */\n      pop\n        /* \"#utility.yul\":5222:5551   */\n      swap3\n      swap2\n      pop\n      pop\n      jump\t// out\n        /* \"#utility.yul\":5557:5656   */\n    tag_104:\n        /* \"#utility.yul\":5609:5615   */\n      0x00\n        /* \"#utility.yul\":5643:5648   */\n      dup2\n        /* \"#utility.yul\":5637:5649   */\n      mload\n        /* \"#utility.yul\":5627:5649   */\n      swap1\n      pop\n        /* \"#utility.yul\":5557:5656   */\n      swap2\n      swap1\n      pop\n      jump\t// out\n        /* \"#utility.yul\":5662:5831   */\n    tag_105:\n        /* \"#utility.yul\":5746:5757   */\n      0x00\n        /* \"#utility.yul\":5780:5786   */\n      dup3\n        /* \"#utility.yul\":5775:5778   */\n      dup3\n        /* \"#utility.yul\":5768:5787   */\n      mstore\n        /* \"#utility.yul\":5820:5824   */\n      0x20\n        /* \"#utility.yul\":5815:5818   */\n      dup3\n        /* \"#utility.yul\":5811:5825   */\n      add\n        /* \"#utility.yul\":5796:5825   */\n      swap1\n      pop\n        /* \"#utility.yul\":5662:5831   */\n      swap3\n      swap2\n      pop\n      pop\n      jump\t// out\n        /* \"#utility.yul\":5837:5976   */\n    tag_106:\n        /* \"#utility.yul\":5926:5932   */\n      dup3\n        /* \"#utility.yul\":5921:5924   */\n      dup2\n        /* \"#utility.yul\":5916:5919   */\n      dup4\n        /* \"#utility.yul\":5910:5933   */\n      mcopy\n        /* \"#utility.yul\":5967:5968   */\n      0x00\n        /* \"#utility.yul\":5958:5964   */\n      dup4\n        /* \"#utility.yul\":5953:5956   */\n      dup4\n        /* \"#utility.yul\":5949:5965   */\n      add\n        /* \"#utility.yul\":5942:5969   */\n      mstore\n        /* \"#utility.yul\":5837:5976   */\n      pop\n      pop\n      pop\n      jump\t// out\n        /* \"#utility.yul\":5982:6359   */\n    tag_107:\n        /* \"#utility.yul\":6070:6073   */\n      0x00\n        /* \"#utility.yul\":6098:6137   */\n      tag_210\n        /* \"#utility.yul\":6131:6136   */\n      dup3\n        /* \"#utility.yul\":6098:6137   */\n      tag_104\n      jump\t// in\n    tag_210:\n        /* \"#utility.yul\":6153:6224   */\n      tag_211\n        /* \"#utility.yul\":6217:6223   */\n      dup2\n        /* \"#utility.yul\":6212:6215   */\n      dup6\n        /* \"#utility.yul\":6153:6224   */\n      tag_105\n      jump\t// in\n    tag_211:\n        /* \"#utility.yul\":6146:6224   */\n      swap4\n      pop\n        /* \"#utility.yul\":6233:6298   */\n      tag_212\n        /* \"#utility.yul\":6291:6297   */\n      dup2\n        /* \"#utility.yul\":6286:6289   */\n      dup6\n        /* \"#utility.yul\":6279:6283   */\n      0x20\n        /* \"#utility.yul\":6272:6277   */\n      dup7\n        /* \"#utility.yul\":6268:6284   */\n      add\n        /* \"#utility.yul\":6233:6298   */\n      tag_106\n      jump\t// in\n    tag_212:\n        /* \"#utility.yul\":6323:6352   */\n      tag_213\n        /* \"#utility.yul\":6345:6351   */\n      dup2\n        /* \"#utility.yul\":6323:6352   */\n      tag_91\n      jump\t// in\n    tag_213:\n        /* \"#utility.yul\":6318:6321   */\n      dup5\n        /* \"#utility.yul\":6314:6353   */\n      add\n        /* \"#utility.yul\":6307:6353   */\n      swap2\n      pop\n        /* \"#utility.yul\":6074:6359   */\n      pop\n        /* \"#utility.yul\":5982:6359   */\n      swap3\n      swap2\n      pop\n      pop\n      jump\t// out\n        /* \"#utility.yul\":6365:6474   */\n    tag_108:\n        /* \"#utility.yul\":6446:6467   */\n      tag_215\n        /* \"#utility.yul\":6461:6466   */\n      dup2\n        /* \"#utility.yul\":6446:6467   */\n      tag_101\n      jump\t// in\n    tag_215:\n        /* \"#utility.yul\":6441:6444   */\n      dup3\n        /* \"#utility.yul\":6434:6468   */\n      mstore\n        /* \"#utility.yul\":6365:6474   */\n      pop\n      pop\n      jump\t// out\n        /* \"#utility.yul\":6480:7211   */\n    tag_29:\n        /* \"#utility.yul\":6693:6697   */\n      0x00\n        /* \"#utility.yul\":6731:6734   */\n      0xa0\n        /* \"#utility.yul\":6720:6729   */\n      dup3\n        /* \"#utility.yul\":6716:6735   */\n      add\n        /* \"#utility.yul\":6708:6735   */\n      swap1\n      pop\n        /* \"#utility.yul\":6781:6790   */\n      dup2\n        /* \"#utility.yul\":6775:6779   */\n      dup2\n        /* \"#utility.yul\":6771:6791   */\n      sub\n        /* \"#utility.yul\":6767:6768   */\n      0x00\n        /* \"#utility.yul\":6756:6765   */\n      dup4\n        /* \"#utility.yul\":6752:6769   */\n      add\n        /* \"#utility.yul\":6745:6792   */\n      mstore\n        /* \"#utility.yul\":6809:6887   */\n      tag_217\n        /* \"#utility.yul\":6882:6886   */\n      dup2\n        /* \"#utility.yul\":6873:6879   */\n      dup9\n        /* \"#utility.yul\":6809:6887   */\n      tag_107\n      jump\t// in\n    tag_217:\n        /* \"#utility.yul\":6801:6887   */\n      swap1\n      pop\n        /* \"#utility.yul\":6897:6969   */\n      tag_218\n        /* \"#utility.yul\":6965:6967   */\n      0x20\n        /* \"#utility.yul\":6954:6963   */\n      dup4\n        /* \"#utility.yul\":6950:6968   */\n      add\n        /* \"#utility.yul\":6941:6947   */\n      dup8\n        /* \"#utility.yul\":6897:6969   */\n      tag_85\n      jump\t// in\n    tag_218:\n        /* \"#utility.yul\":6979:7051   */\n      tag_219\n        /* \"#utility.yul\":7047:7049   */\n      0x40\n        /* \"#utility.yul\":7036:7045   */\n      dup4\n        /* \"#utility.yul\":7032:7050   */\n      add\n        /* \"#utility.yul\":7023:7029   */\n      dup7\n        /* \"#utility.yul\":6979:7051   */\n      tag_85\n      jump\t// in\n    tag_219:\n        /* \"#utility.yul\":7061:7127   */\n      tag_220\n        /* \"#utility.yul\":7123:7125   */\n      0x60\n        /* \"#utility.yul\":7112:7121   */\n      dup4\n        /* \"#utility.yul\":7108:7126   */\n      add\n        /* \"#utility.yul\":7099:7105   */\n      dup6\n        /* \"#utility.yul\":7061:7127   */\n      tag_108\n      jump\t// in\n    tag_220:\n        /* \"#utility.yul\":7137:7204   */\n      tag_221\n        /* \"#utility.yul\":7199:7202   */\n      0x80\n        /* \"#utility.yul\":7188:7197   */\n      dup4\n        /* \"#utility.yul\":7184:7203   */\n      add\n        /* \"#utility.yul\":7175:7181   */\n      dup5\n        /* \"#utility.yul\":7137:7204   */\n      tag_108\n      jump\t// in\n    tag_221:\n        /* \"#utility.yul\":6480:7211   */\n      swap7\n      swap6\n      pop\n      pop\n      pop\n      pop\n      pop\n      pop\n      jump\t// out\n        /* \"#utility.yul\":7217:7439   */\n    tag_34:\n        /* \"#utility.yul\":7310:7314   */\n      0x00\n        /* \"#utility.yul\":7348:7350   */\n      0x20\n        /* \"#utility.yul\":7337:7346   */\n      dup3\n        /* \"#utility.yul\":7333:7351   */\n      add\n        /* \"#utility.yul\":7325:7351   */\n      swap1\n      pop\n        /* \"#utility.yul\":7361:7432   */\n      tag_223\n        /* \"#utility.yul\":7429:7430   */\n      0x00\n        /* \"#utility.yul\":7418:7427   */\n      dup4\n        /* \"#utility.yul\":7414:7431   */\n      add\n        /* \"#utility.yul\":7405:7411   */\n      dup5\n        /* \"#utility.yul\":7361:7432   */\n      tag_83\n      jump\t// in\n    tag_223:\n        /* \"#utility.yul\":7217:7439   */\n      swap3\n      swap2\n      pop\n      pop\n      jump\t// out\n        /* \"#utility.yul\":7445:7667   */\n    tag_39:\n        /* \"#utility.yul\":7538:7542   */\n      0x00\n        /* \"#utility.yul\":7576:7578   */\n      0x20\n        /* \"#utility.yul\":7565:7574   */\n      dup3\n        /* \"#utility.yul\":7561:7579   */\n      add\n        /* \"#utility.yul\":7553:7579   */\n      swap1\n      pop\n        /* \"#utility.yul\":7589:7660   */\n      tag_225\n        /* \"#utility.yul\":7657:7658   */\n      0x00\n        /* \"#utility.yul\":7646:7655   */\n      dup4\n        /* \"#utility.yul\":7642:7659   */\n      add\n        /* \"#utility.yul\":7633:7639   */\n      dup5\n        /* \"#utility.yul\":7589:7660   */\n      tag_85\n      jump\t// in\n    tag_225:\n        /* \"#utility.yul\":7445:7667   */\n      swap3\n      swap2\n      pop\n      pop\n      jump\t// out\n        /* \"#utility.yul\":7673:7883   */\n    tag_44:\n        /* \"#utility.yul\":7760:7764   */\n      0x00\n        /* \"#utility.yul\":7798:7800   */\n      0x20\n        /* \"#utility.yul\":7787:7796   */\n      dup3\n        /* \"#utility.yul\":7783:7801   */\n      add\n        /* \"#utility.yul\":7775:7801   */\n      swap1\n      pop\n        /* \"#utility.yul\":7811:7876   */\n      tag_227\n        /* \"#utility.yul\":7873:7874   */\n      0x00\n        /* \"#utility.yul\":7862:7871   */\n      dup4\n        /* \"#utility.yul\":7858:7875   */\n      add\n        /* \"#utility.yul\":7849:7855   */\n      dup5\n        /* \"#utility.yul\":7811:7876   */\n      tag_108\n      jump\t// in\n    tag_227:\n        /* \"#utility.yul\":7673:7883   */\n      swap3\n      swap2\n      pop\n      pop\n      jump\t// out\n        /* \"#utility.yul\":7889:8069   */\n    tag_109:\n        /* \"#utility.yul\":7937:8014   */\n      0x4e487b7100000000000000000000000000000000000000000000000000000000\n        /* \"#utility.yul\":7934:7935   */\n      0x00\n        /* \"#utility.yul\":7927:8015   */\n      mstore\n        /* \"#utility.yul\":8034:8038   */\n      0x22\n        /* \"#utility.yul\":8031:8032   */\n      0x04\n        /* \"#utility.yul\":8024:8039   */\n      mstore\n        /* \"#utility.yul\":8058:8062   */\n      0x24\n        /* \"#utility.yul\":8055:8056   */\n      0x00\n        /* \"#utility.yul\":8048:8063   */\n      revert\n        /* \"#utility.yul\":8075:8395   */\n    tag_63:\n        /* \"#utility.yul\":8119:8125   */\n      0x00\n        /* \"#utility.yul\":8156:8157   */\n      0x02\n        /* \"#utility.yul\":8150:8154   */\n      dup3\n        /* \"#utility.yul\":8146:8158   */\n      div\n        /* \"#utility.yul\":8136:8158   */\n      swap1\n      pop\n        /* \"#utility.yul\":8203:8204   */\n      0x01\n        /* \"#utility.yul\":8197:8201   */\n      dup3\n        /* \"#utility.yul\":8193:8205   */\n      and\n        /* \"#utility.yul\":8224:8242   */\n      dup1\n        /* \"#utility.yul\":8214:8295   */\n      tag_230\n      jumpi\n        /* \"#utility.yul\":8280:8284   */\n      0x7f\n        /* \"#utility.yul\":8272:8278   */\n      dup3\n        /* \"#utility.yul\":8268:8285   */\n      and\n        /* \"#utility.yul\":8258:8285   */\n      swap2\n      pop\n        /* \"#utility.yul\":8214:8295   */\n    tag_230:\n        /* \"#utility.yul\":8342:8344   */\n      0x20\n        /* \"#utility.yul\":8334:8340   */\n      dup3\n        /* \"#utility.yul\":8331:8345   */\n      lt\n        /* \"#utility.yul\":8311:8329   */\n      dup2\n        /* \"#utility.yul\":8308:8346   */\n      sub\n        /* \"#utility.yul\":8305:8389   */\n      tag_231\n      jumpi\n        /* \"#utility.yul\":8361:8379   */\n      tag_232\n      tag_109\n      jump\t// in\n    tag_232:\n        /* \"#utility.yul\":8305:8389   */\n    tag_231:\n        /* \"#utility.yul\":8126:8395   */\n      pop\n        /* \"#utility.yul\":8075:8395   */\n      swap2\n      swap1\n      pop\n      jump\t// out\n        /* \"#utility.yul\":8401:8542   */\n    tag_110:\n        /* \"#utility.yul\":8450:8454   */\n      0x00\n        /* \"#utility.yul\":8473:8476   */\n      dup2\n        /* \"#utility.yul\":8465:8476   */\n      swap1\n      pop\n        /* \"#utility.yul\":8496:8499   */\n      dup2\n        /* \"#utility.yul\":8493:8494   */\n      0x00\n        /* \"#utility.yul\":8486:8500   */\n      mstore\n        /* \"#utility.yul\":8530:8534   */\n      0x20\n        /* \"#utility.yul\":8527:8528   */\n      0x00\n        /* \"#utility.yul\":8517:8535   */\n      keccak256\n        /* \"#utility.yul\":8509:8535   */\n      swap1\n      pop\n        /* \"#utility.yul\":8401:8542   */\n      swap2\n      swap1\n      pop\n      jump\t// out\n        /* \"#utility.yul\":8548:8641   */\n    tag_111:\n        /* \"#utility.yul\":8585:8591   */\n      0x00\n        /* \"#utility.yul\":8632:8634   */\n      0x20\n        /* \"#utility.yul\":8627:8629   */\n      0x1f\n        /* \"#utility.yul\":8620:8625   */\n      dup4\n        /* \"#utility.yul\":8616:8630   */\n      add\n        /* \"#utility.yul\":8612:8635   */\n      div\n        /* \"#utility.yul\":8602:8635   */\n      swap1\n      pop\n        /* \"#utility.yul\":8548:8641   */\n      swap2\n      swap1\n      pop\n      jump\t// out\n        /* \"#utility.yul\":8647:8754   */\n    tag_112:\n        /* \"#utility.yul\":8691:8699   */\n      0x00\n        /* \"#utility.yul\":8741:8746   */\n      dup3\n        /* \"#utility.yul\":8735:8739   */\n      dup3\n        /* \"#utility.yul\":8731:8747   */\n      shl\n        /* \"#utility.yul\":8710:8747   */\n      swap1\n      pop\n        /* \"#utility.yul\":8647:8754   */\n      swap3\n      swap2\n      pop\n      pop\n      jump\t// out\n        /* \"#utility.yul\":8760:9153   */\n    tag_113:\n        /* \"#utility.yul\":8829:8835   */\n      0x00\n        /* \"#utility.yul\":8879:8880   */\n      0x08\n        /* \"#utility.yul\":8867:8877   */\n      dup4\n        /* \"#utility.yul\":8863:8881   */\n      mul\n        /* \"#utility.yul\":8902:8999   */\n      tag_237\n        /* \"#utility.yul\":8932:8998   */\n      0xffffffffffffffffffffffffffffffffffffffffffffffffffffffffffffffff\n        /* \"#utility.yul\":8921:8930   */\n      dup3\n        /* \"#utility.yul\":8902:8999   */\n      tag_112\n      jump\t// in\n    tag_237:\n        /* \"#utility.yul\":9020:9059   */\n      tag_238\n        /* \"#utility.yul\":9050:9058   */\n      dup7\n        /* \"#utility.yul\":9039:9048   */\n      dup4\n        /* \"#utility.yul\":9020:9059   */\n      tag_112\n      jump\t// in\n    tag_238:\n        /* \"#utility.yul\":9008:9059   */\n      swap6\n      pop\n        /* \"#utility.yul\":9092:9096   */\n      dup1\n        /* \"#utility.yul\":9088:9097   */\n      not\n        /* \"#utility.yul\":9081:9086   */\n      dup5\n        /* \"#utility.yul\":9077:9098   */\n      and\n        /* \"#utility.yul\":9068:9098   */\n      swap4\n      pop\n        /* \"#utility.yul\":9141:9145   */\n      dup1\n        /* \"#utility.yul\":9131:9139   */\n      dup7\n        /* \"#utility.yul\":9127:9146   */\n      and\n        /* \"#utility.yul\":9120:9125   */\n      dup5\n        /* \"#utility.yul\":9117:9147   */\n      or\n        /* \"#utility.yul\":9107:9147   */\n      swap3\n      pop\n        /* \"#utility.yul\":8836:9153   */\n      pop\n      pop\n        /* \"#utility.yul\":8760:9153   */\n      swap4\n      swap3\n      pop\n      pop\n      pop\n      jump\t// out\n        /* \"#utility.yul\":9159:9219   */\n    tag_114:\n        /* \"#utility.yul\":9187:9190   */\n      0x00\n        /* \"#utility.yul\":9208:9213   */\n      dup2\n        /* \"#utility.yul\":9201:9213   */\n      swap1\n      pop\n        /* \"#utility.yul\":9159:9219   */\n      swap2\n      swap1\n      pop\n      jump\t// out\n        /* \"#utility.yul\":9225:9367   */\n    tag_115:\n        /* \"#utility.yul\":9275:9284   */\n      0x00\n        /* \"#utility.yul\":9308:9361   */\n      tag_241\n        /* \"#utility.yul\":9326:9360   */\n      tag_242\n        /* \"#utility.yul\":9335:9359   */\n      tag_243\n        /* \"#utility.yul\":9353:9358   */\n      dup5\n        /* \"#utility.yul\":9335:9359   */\n      tag_84\n      jump\t// in\n    tag_243:\n        /* \"#utility.yul\":9326:9360   */\n      tag_114\n      jump\t// in\n    tag_242:\n        /* \"#utility.yul\":9308:9361   */\n      tag_84\n      jump\t// in\n    tag_241:\n        /* \"#utility.yul\":9295:9361   */\n      swap1\n      pop\n        /* \"#utility.yul\":9225:9367   */\n      swap2\n      swap1\n      pop\n      jump\t// out\n        /* \"#utility.yul\":9373:9448   */\n    tag_116:\n        /* \"#utility.yul\":9416:9419   */\n      0x00\n        /* \"#utility.yul\":9437:9442   */\n      dup2\n        /* \"#utility.yul\":9430:9442   */\n      swap1\n      pop\n        /* \"#utility.yul\":9373:9448   */\n      swap2\n      swap1\n      pop\n      jump\t// out\n        /* \"#utility.yul\":9454:9723   */\n    tag_117:\n        /* \"#utility.yul\":9564:9603   */\n      tag_246\n        /* \"#utility.yul\":9595:9602   */\n      dup4\n        /* \"#utility.yul\":9564:9603   */\n      tag_115\n      jump\t// in\n    tag_246:\n        /* \"#utility.yul\":9625:9716   */\n      tag_247\n        /* \"#utility.yul\":9674:9715   */\n      tag_248\n        /* \"#utility.yul\":9698:9714   */\n      dup3\n        /* \"#utility.yul\":9674:9715   */\n      tag_116\n      jump\t// in\n    tag_248:\n        /* \"#utility.yul\":9666:9672   */\n      dup5\n        /* \"#utility.yul\":9659:9663   */\n      dup5\n        /* \"#utility.yul\":9653:9664   */\n      sload\n        /* \"#utility.yul\":9625:9716   */\n      tag_113\n      jump\t// in\n    tag_247:\n        /* \"#utility.yul\":9619:9623   */\n      dup3\n        /* \"#utility.yul\":9612:9717   */\n      sstore\n        /* \"#utility.yul\":9530:9723   */\n      pop\n        /* \"#utility.yul\":9454:9723   */\n      pop\n      pop\n      pop\n      jump\t// out\n        /* \"#utility.yul\":9729:9802   */\n    tag_118:\n        /* \"#utility.yul\":9774:9777   */\n      0x00\n        /* \"#utility.yul\":9729:9802   */\n      swap1\n      jump\t// out\n        /* \"#utility.yul\":9808:9997   */\n    tag_119:\n        /* \"#utility.yul\":9885:9917   */\n      tag_251\n      tag_118\n      jump\t// in\n    tag_251:\n        /* \"#utility.yul\":9926:9991   */\n      tag_252\n        /* \"#utility.yul\":9984:9990   */\n      dup2\n        /* \"#utility.yul\":9976:9982   */\n      dup5\n        /* \"#utility.yul\":9970:9974   */\n      dup5\n        /* \"#utility.yul\":9926:9991   */\n      tag_117\n      jump\t// in\n    tag_252:\n        /* \"#utility.yul\":9861:9997   */\n      pop\n        /* \"#utility.yul\":9808:9997   */\n      pop\n      pop\n      jump\t// out\n        /* \"#utility.yul\":10003:10189   */\n    tag_120:\n        /* \"#utility.yul\":10063:10183   */\n    tag_254:\n        /* \"#utility.yul\":10080:10083   */\n      dup2\n        /* \"#utility.yul\":10073:10078   */\n      dup2\n        /* \"#utility.yul\":10070:10084   */\n      lt\n        /* \"#utility.yul\":10063:10183   */\n      iszero\n      tag_256\n      jumpi\n        /* \"#utility.yul\":10134:10173   */\n      tag_257\n        /* \"#utility.yul\":10171:10172   */\n      0x00\n        /* \"#utility.yul\":10164:10169   */\n      dup3\n        /* \"#utility.yul\":10134:10173   */\n      tag_119\n      jump\t// in\n    tag_257:\n        /* \"#utility.yul\":10107:10108   */\n      0x01\n        /* \"#utility.yul\":10100:10105   */\n      dup2\n        /* \"#utility.yul\":10096:10109   */\n      add\n        /* \"#utility.yul\":10087:10109   */\n      swap1\n      pop\n        /* \"#utility.yul\":10063:10183   */\n      jump(tag_254)\n    tag_256:\n        /* \"#utility.yul\":10003:10189   */\n      pop\n      pop\n      jump\t// out\n        /* \"#utility.yul\":10195:10738   */\n    tag_121:\n        /* \"#utility.yul\":10296:10298   */\n      0x1f\n        /* \"#utility.yul\":10291:10294   */\n      dup3\n        /* \"#utility.yul\":10288:10299   */\n      gt\n        /* \"#utility.yul\":10285:10731   */\n      iszero\n      tag_259\n      jumpi\n        /* \"#utility.yul\":10330:10368   */\n      tag_260\n        /* \"#utility.yul\":10362:10367   */\n      dup2\n        /* \"#utility.yul\":10330:10368   */\n      tag_110\n      jump\t// in\n    tag_260:\n        /* \"#utility.yul\":10414:10443   */\n      tag_261\n        /* \"#utility.yul\":10432:10442   */\n      dup5\n        /* \"#utility.yul\":10414:10443   */\n      tag_111\n      jump\t// in\n    tag_261:\n        /* \"#utility.yul\":10404:10412   */\n      dup2\n        /* \"#utility.yul\":10400:10444   */\n      add\n        /* \"#utility.yul\":10597:10599   */\n      0x20\n        /* \"#utility.yul\":10585:10595   */\n      dup6\n        /* \"#utility.yul\":10582:10600   */\n      lt\n        /* \"#utility.yul\":10579:10628   */\n      iszero\n      tag_262\n      jumpi\n        /* \"#utility.yul\":10618:10626   */\n      dup2\n        /* \"#utility.yul\":10603:10626   */\n      swap1\n      pop\n        /* \"#utility.yul\":10579:10628   */\n    tag_262:\n        /* \"#utility.yul\":10641:10721   */\n      tag_263\n        /* \"#utility.yul\":10697:10719   */\n      tag_264\n        /* \"#utility.yul\":10715:10718   */\n      dup6\n        /* \"#utility.yul\":10697:10719   */\n      tag_111\n      jump\t// in\n    tag_264:\n        /* \"#utility.yul\":10687:10695   */\n      dup4\n        /* \"#utility.yul\":10683:10720   */\n      add\n        /* \"#utility.yul\":10670:10681   */\n      dup3\n        /* \"#utility.yul\":10641:10721   */\n      tag_120\n      jump\t// in\n    tag_263:\n        /* \"#utility.yul\":10300:10731   */\n      pop\n      pop\n        /* \"#utility.yul\":10285:10731   */\n    tag_259:\n        /* \"#utility.yul\":10195:10738   */\n      pop\n      pop\n      pop\n      jump\t// out\n        /* \"#utility.yul\":10744:10861   */\n    tag_122:\n        /* \"#utility.yul\":10798:10806   */\n      0x00\n        /* \"#utility.yul\":10848:10853   */\n      dup3\n        /* \"#utility.yul\":10842:10846   */\n      dup3\n        /* \"#utility.yul\":10838:10854   */\n      shr\n        /* \"#utility.yul\":10817:10854   */\n      swap1\n      pop\n        /* \"#utility.yul\":10744:10861   */\n      swap3\n      swap2\n      pop\n      pop\n      jump\t// out\n        /* \"#utility.yul\":10867:11036   */\n    tag_123:\n        /* \"#utility.yul\":10911:10917   */\n      0x00\n        /* \"#utility.yul\":10944:10995   */\n      tag_267\n        /* \"#utility.yul\":10992:10993   */\n      0x00\n        /* \"#utility.yul\":10988:10994   */\n      not\n        /* \"#utility.yul\":10980:10985   */\n      dup5\n        /* \"#utility.yul\":10977:10978   */\n      0x08\n        /* \"#utility.yul\":10973:10986   */\n      mul\n        /* \"#utility.yul\":10944:10995   */\n      tag_122\n      jump\t// in\n    tag_267:\n        /* \"#utility.yul\":10940:10996   */\n      not\n        /* \"#utility.yul\":11025:11029   */\n      dup1\n        /* \"#utility.yul\":11019:11023   */\n      dup4\n        /* \"#utility.yul\":11015:11030   */\n      and\n        /* \"#utility.yul\":11005:11030   */\n      swap2\n      pop\n        /* \"#utility.yul\":10918:11036   */\n      pop\n        /* \"#utility.yul\":10867:11036   */\n      swap3\n      swap2\n      pop\n      pop\n      jump\t// out\n        /* \"#utility.yul\":11041:11336   */\n    tag_124:\n        /* \"#utility.yul\":11117:11121   */\n      0x00\n        /* \"#utility.yul\":11263:11292   */\n      tag_269\n        /* \"#utility.yul\":11288:11291   */\n      dup4\n        /* \"#utility.yul\":11282:11286   */\n      dup4\n        /* \"#utility.yul\":11263:11292   */\n      tag_123\n      jump\t// in\n    tag_269:\n        /* \"#utility.yul\":11255:11292   */\n      swap2\n      pop\n        /* \"#utility.yul\":11325:11328   */\n      dup3\n        /* \"#utility.yul\":11322:11323   */\n      0x02\n        /* \"#utility.yul\":11318:11329   */\n      mul\n        /* \"#utility.yul\":11312:11316   */\n      dup3\n        /* \"#utility.yul\":11309:11330   */\n      or\n        /* \"#utility.yul\":11301:11330   */\n      swap1\n      pop\n        /* \"#utility.yul\":11041:11336   */\n      swap3\n      swap2\n      pop\n      pop\n      jump\t// out\n        /* \"#utility.yul\":11341:12736   */\n    tag_47:\n        /* \"#utility.yul\":11458:11495   */\n      tag_271\n        /* \"#utility.yul\":11491:11494   */\n      dup3\n        /* \"#utility.yul\":11458:11495   */\n      tag_104\n      jump\t// in\n    tag_271:\n        /* \"#utility.yul\":11560:11578   */\n      0xffffffffffffffff\n        /* \"#utility.yul\":11552:11558   */\n      dup2\n        /* \"#utility.yul\":11549:11579   */\n      gt\n        /* \"#utility.yul\":11546:11602   */\n      iszero\n      tag_272\n      jumpi\n        /* \"#utility.yul\":11582:11600   */\n      tag_273\n      tag_92\n      jump\t// in\n    tag_273:\n        /* \"#utility.yul\":11546:11602   */\n    tag_272:\n        /* \"#utility.yul\":11626:11664   */\n      tag_274\n        /* \"#utility.yul\":11658:11662   */\n      dup3\n        /* \"#utility.yul\":11652:11663   */\n      sload\n        /* \"#utility.yul\":11626:11664   */\n      tag_63\n      jump\t// in\n    tag_274:\n        /* \"#utility.yul\":11711:11778   */\n      tag_275\n        /* \"#utility.yul\":11771:11777   */\n      dup3\n        /* \"#utility.yul\":11763:11769   */\n      dup3\n        /* \"#utility.yul\":11757:11761   */\n      dup6\n        /* \"#utility.yul\":11711:11778   */\n      tag_121\n      jump\t// in\n    tag_275:\n        /* \"#utility.yul\":11805:11806   */\n      0x00\n        /* \"#utility.yul\":11829:11833   */\n      0x20\n        /* \"#utility.yul\":11816:11833   */\n      swap1\n      pop\n        /* \"#utility.yul\":11861:11863   */\n      0x1f\n        /* \"#utility.yul\":11853:11859   */\n      dup4\n        /* \"#utility.yul\":11850:11864   */\n      gt\n        /* \"#utility.yul\":11878:11879   */\n      0x01\n        /* \"#utility.yul\":11873:12491   */\n      dup2\n      eq\n      tag_277\n      jumpi\n        /* \"#utility.yul\":12535:12536   */\n      0x00\n        /* \"#utility.yul\":12552:12558   */\n      dup5\n        /* \"#utility.yul\":12549:12626   */\n      iszero\n      tag_278\n      jumpi\n        /* \"#utility.yul\":12601:12610   */\n      dup3\n        /* \"#utility.yul\":12596:12599   */\n      dup8\n        /* \"#utility.yul\":12592:12611   */\n      add\n        /* \"#utility.yul\":12586:12612   */\n      mload\n        /* \"#utility.yul\":12577:12612   */\n      swap1\n      pop\n        /* \"#utility.yul\":12549:12626   */\n    tag_278:\n        /* \"#utility.yul\":12652:12719   */\n      tag_279\n        /* \"#utility.yul\":12712:12718   */\n      dup6\n        /* \"#utility.yul\":12705:12710   */\n      dup3\n        /* \"#utility.yul\":12652:12719   */\n      tag_124\n      jump\t// in\n    tag_279:\n        /* \"#utility.yul\":12646:12650   */\n      dup7\n        /* \"#utility.yul\":12639:12720   */\n      sstore\n        /* \"#utility.yul\":12508:12730   */\n      pop\n        /* \"#utility.yul\":11843:12730   */\n      jump(tag_276)\n        /* \"#utility.yul\":11873:12491   */\n    tag_277:\n        /* \"#utility.yul\":11925:11929   */\n      0x1f\n        /* \"#utility.yul\":11921:11930   */\n      not\n        /* \"#utility.yul\":11913:11919   */\n      dup5\n        /* \"#utility.yul\":11909:11931   */\n      and\n        /* \"#utility.yul\":11959:11996   */\n      tag_280\n        /* \"#utility.yul\":11991:11995   */\n      dup7\n        /* \"#utility.yul\":11959:11996   */\n      tag_110\n      jump\t// in\n    tag_280:\n        /* \"#utility.yul\":12018:12019   */\n      0x00\n        /* \"#utility.yul\":12032:12240   */\n    tag_281:\n        /* \"#utility.yul\":12046:12053   */\n      dup3\n        /* \"#utility.yul\":12043:12044   */\n      dup2\n        /* \"#utility.yul\":12040:12054   */\n      lt\n        /* \"#utility.yul\":12032:12240   */\n      iszero\n      tag_283\n      jumpi\n        /* \"#utility.yul\":12125:12134   */\n      dup5\n        /* \"#utility.yul\":12120:12123   */\n      dup10\n        /* \"#utility.yul\":12116:12135   */\n      add\n        /* \"#utility.yul\":12110:12136   */\n      mload\n        /* \"#utility.yul\":12102:12108   */\n      dup3\n        /* \"#utility.yul\":12095:12137   */\n      sstore\n        /* \"#utility.yul\":12176:12177   */\n      0x01\n        /* \"#utility.yul\":12168:12174   */\n      dup3\n        /* \"#utility.yul\":12164:12178   */\n      add\n        /* \"#utility.yul\":12154:12178   */\n      swap2\n      pop\n        /* \"#utility.yul\":12223:12225   */\n      0x20\n        /* \"#utility.yul\":12212:12221   */\n      dup6\n        /* \"#utility.yul\":12208:12226   */\n      add\n        /* \"#utility.yul\":12195:12226   */\n      swap5\n      pop\n        /* \"#utility.yul\":12069:12073   */\n      0x20\n        /* \"#utility.yul\":12066:12067   */\n      dup2\n        /* \"#utility.yul\":12062:12074   */\n      add\n        /* \"#utility.yul\":12057:12074   */\n      swap1\n      pop\n        /* \"#utility.yul\":12032:12240   */\n      jump(tag_281)\n    tag_283:\n        /* \"#utility.yul\":12268:12274   */\n      dup7\n        /* \"#utility.yul\":12259:12266   */\n      dup4\n        /* \"#utility.yul\":12256:12275   */\n      lt\n        /* \"#utility.yul\":12253:12432   */\n      iszero\n      tag_284\n      jumpi\n        /* \"#utility.yul\":12326:12335   */\n      dup5\n        /* \"#utility.yul\":12321:12324   */\n      dup10\n        /* \"#utility.yul\":12317:12336   */\n      add\n        /* \"#utility.yul\":12311:12337   */\n      mload\n        /* \"#utility.yul\":12369:12417   */\n      tag_285\n        /* \"#utility.yul\":12411:12415   */\n      0x1f\n        /* \"#utility.yul\":12403:12409   */\n      dup10\n        /* \"#utility.yul\":12399:12416   */\n      and\n        /* \"#utility.yul\":12388:12397   */\n      dup3\n        /* \"#utility.yul\":12369:12417   */\n      tag_123\n      jump\t// in\n    tag_285:\n        /* \"#utility.yul\":12361:12367   */\n      dup4\n        /* \"#utility.yul\":12354:12418   */\n      sstore\n        /* \"#utility.yul\":12276:12432   */\n      pop\n        /* \"#utility.yul\":12253:12432   */\n    tag_284:\n        /* \"#utility.yul\":12478:12479   */\n      0x01\n        /* \"#utility.yul\":12474:12475   */\n      0x02\n        /* \"#utility.yul\":12466:12472   */\n      dup9\n        /* \"#utility.yul\":12462:12476   */\n      mul\n        /* \"#utility.yul\":12458:12480   */\n      add\n        /* \"#utility.yul\":12452:12456   */\n      dup9\n        /* \"#utility.yul\":12445:12481   */\n      sstore\n        /* \"#utility.yul\":11880:12491   */\n      pop\n      pop\n      pop\n        /* \"#utility.yul\":11843:12730   */\n    tag_276:\n      pop\n        /* \"#utility.yul\":11433:12736   */\n      pop\n      pop\n      pop\n        /* \"#utility.yul\":11341:12736   */\n      pop\n      pop\n      jump\t// out\n        /* \"#utility.yul\":12742:13275   */\n    tag_49:\n        /* \"#utility.yul\":12911:12915   */\n      0x00\n        /* \"#utility.yul\":12949:12951   */\n      0x60\n        /* \"#utility.yul\":12938:12947   */\n      dup3\n        /* \"#utility.yul\":12934:12952   */\n      add\n        /* \"#utility.yul\":12926:12952   */\n      swap1\n      pop\n        /* \"#utility.yul\":12962:13033   */\n      tag_287\n        /* \"#utility.yul\":13030:13031   */\n      0x00\n        /* \"#utility.yul\":13019:13028   */\n      dup4\n        /* \"#utility.yul\":13015:13032   */\n      add\n        /* \"#utility.yul\":13006:13012   */\n      dup7\n        /* \"#utility.yul\":12962:13033   */\n      tag_85\n      jump\t// in\n    tag_287:\n        /* \"#utility.yul\":13080:13089   */\n      dup2\n        /* \"#utility.yul\":13074:13078   */\n      dup2\n        /* \"#utility.yul\":13070:13090   */\n      sub\n        /* \"#utility.yul\":13065:13067   */\n      0x20\n        /* \"#utility.yul\":13054:13063   */\n      dup4\n        /* \"#utility.yul\":13050:13068   */\n      add\n        /* \"#utility.yul\":13043:13091   */\n      mstore\n        /* \"#utility.yul\":13108:13186   */\n      tag_288\n        /* \"#utility.yul\":13181:13185   */\n      dup2\n        /* \"#utility.yul\":13172:13178   */\n      dup6\n        /* \"#utility.yul\":13108:13186   */\n      tag_107\n      jump\t// in\n    tag_288:\n        /* \"#utility.yul\":13100:13186   */\n      swap1\n      pop\n        /* \"#utility.yul\":13196:13268   */\n      tag_289\n        /* \"#utility.yul\":13264:13266   */\n      0x40\n        /* \"#utility.yul\":13253:13262   */\n      dup4\n        /* \"#utility.yul\":13249:13267   */\n      add\n        /* \"#utility.yul\":13240:13246   */\n      dup5\n        /* \"#utility.yul\":13196:13268   */\n      tag_85\n      jump\t// in\n    tag_289:\n        /* \"#utility.yul\":12742:13275   */\n      swap5\n      swap4\n      pop\n      pop\n      pop\n      pop\n      jump\t// out\n        /* \"#utility.yul\":13281:13461   */\n    tag_125:\n        /* \"#utility.yul\":13329:13406   */\n      0x4e487b7100000000000000000000000000000000000000000000000000000000\n        /* \"#utility.yul\":13326:13327   */\n      0x00\n        /* \"#utility.yul\":13319:13407   */\n      mstore\n        /* \"#utility.yul\":13426:13430   */\n      0x11\n        /* \"#utility.yul\":13423:13424   */\n      0x04\n        /* \"#utility.yul\":13416:13431   */\n      mstore\n        /* \"#utility.yul\":13450:13454   */\n      0x24\n        /* \"#utility.yul\":13447:13448   */\n      0x00\n        /* \"#utility.yul\":13440:13455   */\n      revert\n        /* \"#utility.yul\":13467:13700   */\n    tag_51:\n        /* \"#utility.yul\":13506:13509   */\n      0x00\n        /* \"#utility.yul\":13529:13553   */\n      tag_292\n        /* \"#utility.yul\":13547:13552   */\n      dup3\n        /* \"#utility.yul\":13529:13553   */\n      tag_84\n      jump\t// in\n    tag_292:\n        /* \"#utility.yul\":13520:13553   */\n      swap2\n      pop\n        /* \"#utility.yul\":13575:13641   */\n      0xffffffffffffffffffffffffffffffffffffffffffffffffffffffffffffffff\n        /* \"#utility.yul\":13568:13573   */\n      dup3\n        /* \"#utility.yul\":13565:13642   */\n      sub\n        /* \"#utility.yul\":13562:13665   */\n      tag_293\n      jumpi\n        /* \"#utility.yul\":13645:13663   */\n      tag_294\n      tag_125\n      jump\t// in\n    tag_294:\n        /* \"#utility.yul\":13562:13665   */\n    tag_293:\n        /* \"#utility.yul\":13692:13693   */\n      0x01\n        /* \"#utility.yul\":13685:13690   */\n      dup3\n        /* \"#utility.yul\":13681:13694   */\n      add\n        /* \"#utility.yul\":13674:13694   */\n      swap1\n      pop\n        /* \"#utility.yul\":13467:13700   */\n      swap2\n      swap1\n      pop\n      jump\t// out\n        /* \"#utility.yul\":13706:13931   */\n    tag_126:\n        /* \"#utility.yul\":13846:13880   */\n      0x4f6e6c7920746865206f776e65722063616e2063616c6c20746869732066756e\n        /* \"#utility.yul\":13842:13843   */\n      0x00\n        /* \"#utility.yul\":13834:13840   */\n      dup3\n        /* \"#utility.yul\":13830:13844   */\n      add\n        /* \"#utility.yul\":13823:13881   */\n      mstore\n        /* \"#utility.yul\":13915:13923   */\n      0x6374696f6e2e0000000000000000000000000000000000000000000000000000\n        /* \"#utility.yul\":13910:13912   */\n      0x20\n        /* \"#utility.yul\":13902:13908   */\n      dup3\n        /* \"#utility.yul\":13898:13913   */\n      add\n        /* \"#utility.yul\":13891:13924   */\n      mstore\n        /* \"#utility.yul\":13706:13931   */\n      pop\n      jump\t// out\n        /* \"#utility.yul\":13937:14303   */\n    tag_127:\n        /* \"#utility.yul\":14079:14082   */\n      0x00\n        /* \"#utility.yul\":14100:14167   */\n      tag_297\n        /* \"#utility.yul\":14164:14166   */\n      0x26\n        /* \"#utility.yul\":14159:14162   */\n      dup4\n        /* \"#utility.yul\":14100:14167   */\n      tag_105\n      jump\t// in\n    tag_297:\n        /* \"#utility.yul\":14093:14167   */\n      swap2\n      pop\n        /* \"#utility.yul\":14176:14269   */\n      tag_298\n        /* \"#utility.yul\":14265:14268   */\n      dup3\n        /* \"#utility.yul\":14176:14269   */\n      tag_126\n      jump\t// in\n    tag_298:\n        /* \"#utility.yul\":14294:14296   */\n      0x40\n        /* \"#utility.yul\":14289:14292   */\n      dup3\n        /* \"#utility.yul\":14285:14297   */\n      add\n        /* \"#utility.yul\":14278:14297   */\n      swap1\n      pop\n        /* \"#utility.yul\":13937:14303   */\n      swap2\n      swap1\n      pop\n      jump\t// out\n        /* \"#utility.yul\":14309:14728   */\n    tag_55:\n        /* \"#utility.yul\":14475:14479   */\n      0x00\n        /* \"#utility.yul\":14513:14515   */\n      0x20\n        /* \"#utility.yul\":14502:14511   */\n      dup3\n        /* \"#utility.yul\":14498:14516   */\n      add\n        /* \"#utility.yul\":14490:14516   */\n      swap1\n      pop\n        /* \"#utility.yul\":14562:14571   */\n      dup2\n        /* \"#utility.yul\":14556:14560   */\n      dup2\n        /* \"#utility.yul\":14552:14572   */\n      sub\n        /* \"#utility.yul\":14548:14549   */\n      0x00\n        /* \"#utility.yul\":14537:14546   */\n      dup4\n        /* \"#utility.yul\":14533:14550   */\n      add\n        /* \"#utility.yul\":14526:14573   */\n      mstore\n        /* \"#utility.yul\":14590:14721   */\n      tag_300\n        /* \"#utility.yul\":14716:14720   */\n      dup2\n        /* \"#utility.yul\":14590:14721   */\n      tag_127\n      jump\t// in\n    tag_300:\n        /* \"#utility.yul\":14582:14721   */\n      swap1\n      pop\n        /* \"#utility.yul\":14309:14728   */\n      swap2\n      swap1\n      pop\n      jump\t// out\n        /* \"#utility.yul\":14734:14904   */\n    tag_128:\n        /* \"#utility.yul\":14874:14896   */\n      0x5461736b204944206973206e6f742076616c6964000000000000000000000000\n        /* \"#utility.yul\":14870:14871   */\n      0x00\n        /* \"#utility.yul\":14862:14868   */\n      dup3\n        /* \"#utility.yul\":14858:14872   */\n      add\n        /* \"#utility.yul\":14851:14897   */\n      mstore\n        /* \"#utility.yul\":14734:14904   */\n      pop\n      jump\t// out\n        /* \"#utility.yul\":14910:15276   */\n    tag_129:\n        /* \"#utility.yul\":15052:15055   */\n      0x00\n        /* \"#utility.yul\":15073:15140   */\n      tag_303\n        /* \"#utility.yul\":15137:15139   */\n      0x14\n        /* \"#utility.yul\":15132:15135   */\n      dup4\n        /* \"#utility.yul\":15073:15140   */\n      tag_105\n      jump\t// in\n    tag_303:\n        /* \"#utility.yul\":15066:15140   */\n      swap2\n      pop\n        /* \"#utility.yul\":15149:15242   */\n      tag_304\n        /* \"#utility.yul\":15238:15241   */\n      dup3\n        /* \"#utility.yul\":15149:15242   */\n      tag_128\n      jump\t// in\n    tag_304:\n        /* \"#utility.yul\":15267:15269   */\n      0x20\n        /* \"#utility.yul\":15262:15265   */\n      dup3\n        /* \"#utility.yul\":15258:15270   */\n      add\n        /* \"#utility.yul\":15251:15270   */\n      swap1\n      pop\n        /* \"#utility.yul\":14910:15276   */\n      swap2\n      swap1\n      pop\n      jump\t// out\n        /* \"#utility.yul\":15282:15701   */\n    tag_59:\n        /* \"#utility.yul\":15448:15452   */\n      0x00\n        /* \"#utility.yul\":15486:15488   */\n      0x20\n        /* \"#utility.yul\":15475:15484   */\n      dup3\n        /* \"#utility.yul\":15471:15489   */\n      add\n        /* \"#utility.yul\":15463:15489   */\n      swap1\n      pop\n        /* \"#utility.yul\":15535:15544   */\n      dup2\n        /* \"#utility.yul\":15529:15533   */\n      dup2\n        /* \"#utility.yul\":15525:15545   */\n      sub\n        /* \"#utility.yul\":15521:15522   */\n      0x00\n        /* \"#utility.yul\":15510:15519   */\n      dup4\n        /* \"#utility.yul\":15506:15523   */\n      add\n        /* \"#utility.yul\":15499:15546   */\n      mstore\n        /* \"#utility.yul\":15563:15694   */\n      tag_306\n        /* \"#utility.yul\":15689:15693   */\n      dup2\n        /* \"#utility.yul\":15563:15694   */\n      tag_129\n      jump\t// in\n    tag_306:\n        /* \"#utility.yul\":15555:15694   */\n      swap1\n      pop\n        /* \"#utility.yul\":15282:15701   */\n      swap2\n      swap1\n      pop\n      jump\t// out\n        /* \"#utility.yul\":15707:16027   */\n    tag_61:\n        /* \"#utility.yul\":15822:15826   */\n      0x00\n        /* \"#utility.yul\":15860:15862   */\n      0x40\n        /* \"#utility.yul\":15849:15858   */\n      dup3\n        /* \"#utility.yul\":15845:15863   */\n      add\n        /* \"#utility.yul\":15837:15863   */\n      swap1\n      pop\n        /* \"#utility.yul\":15873:15944   */\n      tag_308\n        /* \"#utility.yul\":15941:15942   */\n      0x00\n        /* \"#utility.yul\":15930:15939   */\n      dup4\n        /* \"#utility.yul\":15926:15943   */\n      add\n        /* \"#utility.yul\":15917:15923   */\n      dup6\n        /* \"#utility.yul\":15873:15944   */\n      tag_85\n      jump\t// in\n    tag_308:\n        /* \"#utility.yul\":15954:16020   */\n      tag_309\n        /* \"#utility.yul\":16016:16018   */\n      0x20\n        /* \"#utility.yul\":16005:16014   */\n      dup4\n        /* \"#utility.yul\":16001:16019   */\n      add\n        /* \"#utility.yul\":15992:15998   */\n      dup5\n        /* \"#utility.yul\":15954:16020   */\n      tag_108\n      jump\t// in\n    tag_309:\n        /* \"#utility.yul\":15707:16027   */\n      swap4\n      swap3\n      pop\n      pop\n      pop\n      jump\t// out\n        /* \"#utility.yul\":16033:16195   */\n    tag_130:\n        /* \"#utility.yul\":16173:16187   */\n      0x46756e64696e67207461736b0000000000000000000000000000000000000000\n        /* \"#utility.yul\":16169:16170   */\n      0x00\n        /* \"#utility.yul\":16161:16167   */\n      dup3\n        /* \"#utility.yul\":16157:16171   */\n      add\n        /* \"#utility.yul\":16150:16188   */\n      mstore\n        /* \"#utility.yul\":16033:16195   */\n      pop\n      jump\t// out\n        /* \"#utility.yul\":16201:16567   */\n    tag_131:\n        /* \"#utility.yul\":16343:16346   */\n      0x00\n        /* \"#utility.yul\":16364:16431   */\n      tag_312\n        /* \"#utility.yul\":16428:16430   */\n      0x0c\n        /* \"#utility.yul\":16423:16426   */\n      dup4\n        /* \"#utility.yul\":16364:16431   */\n      tag_105\n      jump\t// in\n    tag_312:\n        /* \"#utility.yul\":16357:16431   */\n      swap2\n      pop\n        /* \"#utility.yul\":16440:16533   */\n      tag_313\n        /* \"#utility.yul\":16529:16532   */\n      dup3\n        /* \"#utility.yul\":16440:16533   */\n      tag_130\n      jump\t// in\n    tag_313:\n        /* \"#utility.yul\":16558:16560   */\n      0x20\n        /* \"#utility.yul\":16553:16556   */\n      dup3\n        /* \"#utility.yul\":16549:16561   */\n      add\n        /* \"#utility.yul\":16542:16561   */\n      swap1\n      pop\n        /* \"#utility.yul\":16201:16567   */\n      swap2\n      swap1\n      pop\n      jump\t// out\n        /* \"#utility.yul\":16573:17102   */\n    tag_70:\n        /* \"#utility.yul\":16767:16771   */\n      0x00\n        /* \"#utility.yul\":16805:16807   */\n      0x40\n        /* \"#utility.yul\":16794:16803   */\n      dup3\n        /* \"#utility.yul\":16790:16808   */\n      add\n        /* \"#utility.yul\":16782:16808   */\n      swap1\n      pop\n        /* \"#utility.yul\":16854:16863   */\n      dup2\n        /* \"#utility.yul\":16848:16852   */\n      dup2\n        /* \"#utility.yul\":16844:16864   */\n      sub\n        /* \"#utility.yul\":16840:16841   */\n      0x00\n        /* \"#utility.yul\":16829:16838   */\n      dup4\n        /* \"#utility.yul\":16825:16842   */\n      add\n        /* \"#utility.yul\":16818:16865   */\n      mstore\n        /* \"#utility.yul\":16882:17013   */\n      tag_315\n        /* \"#utility.yul\":17008:17012   */\n      dup2\n        /* \"#utility.yul\":16882:17013   */\n      tag_131\n      jump\t// in\n    tag_315:\n        /* \"#utility.yul\":16874:17013   */\n      swap1\n      pop\n        /* \"#utility.yul\":17023:17095   */\n      tag_316\n        /* \"#utility.yul\":17091:17093   */\n      0x20\n        /* \"#utility.yul\":17080:17089   */\n      dup4\n        /* \"#utility.yul\":17076:17094   */\n      add\n        /* \"#utility.yul\":17067:17073   */\n      dup5\n        /* \"#utility.yul\":17023:17095   */\n      tag_85\n      jump\t// in\n    tag_316:\n        /* \"#utility.yul\":16573:17102   */\n      swap3\n      swap2\n      pop\n      pop\n      jump\t// out\n        /* \"#utility.yul\":17108:17273   */\n    tag_132:\n        /* \"#utility.yul\":17248:17265   */\n      0x496e76616c6964207461736b2049440000000000000000000000000000000000\n        /* \"#utility.yul\":17244:17245   */\n      0x00\n        /* \"#utility.yul\":17236:17242   */\n      dup3\n        /* \"#utility.yul\":17232:17246   */\n      add\n        /* \"#utility.yul\":17225:17266   */\n      mstore\n        /* \"#utility.yul\":17108:17273   */\n      pop\n      jump\t// out\n        /* \"#utility.yul\":17279:17645   */\n    tag_133:\n        /* \"#utility.yul\":17421:17424   */\n      0x00\n        /* \"#utility.yul\":17442:17509   */\n      tag_319\n        /* \"#utility.yul\":17506:17508   */\n      0x0f\n        /* \"#utility.yul\":17501:17504   */\n      dup4\n        /* \"#utility.yul\":17442:17509   */\n      tag_105\n      jump\t// in\n    tag_319:\n        /* \"#utility.yul\":17435:17509   */\n      swap2\n      pop\n        /* \"#utility.yul\":17518:17611   */\n      tag_320\n        /* \"#utility.yul\":17607:17610   */\n      dup3\n        /* \"#utility.yul\":17518:17611   */\n      tag_132\n      jump\t// in\n    tag_320:\n        /* \"#utility.yul\":17636:17638   */\n      0x20\n        /* \"#utility.yul\":17631:17634   */\n      dup3\n        /* \"#utility.yul\":17627:17639   */\n      add\n        /* \"#utility.yul\":17620:17639   */\n      swap1\n      pop\n        /* \"#utility.yul\":17279:17645   */\n      swap2\n      swap1\n      pop\n      jump\t// out\n        /* \"#utility.yul\":17651:18070   */\n    tag_73:\n        /* \"#utility.yul\":17817:17821   */\n      0x00\n        /* \"#utility.yul\":17855:17857   */\n      0x20\n        /* \"#utility.yul\":17844:17853   */\n      dup3\n        /* \"#utility.yul\":17840:17858   */\n      add\n        /* \"#utility.yul\":17832:17858   */\n      swap1\n      pop\n        /* \"#utility.yul\":17904:17913   */\n      dup2\n        /* \"#utility.yul\":17898:17902   */\n      dup2\n        /* \"#utility.yul\":17894:17914   */\n      sub\n        /* \"#utility.yul\":17890:17891   */\n      0x00\n        /* \"#utility.yul\":17879:17888   */\n      dup4\n        /* \"#utility.yul\":17875:17892   */\n      add\n        /* \"#utility.yul\":17868:17915   */\n      mstore\n        /* \"#utility.yul\":17932:18063   */\n      tag_322\n        /* \"#utility.yul\":18058:18062   */\n      dup2\n        /* \"#utility.yul\":17932:18063   */\n      tag_133\n      jump\t// in\n    tag_322:\n        /* \"#utility.yul\":17924:18063   */\n      swap1\n      pop\n        /* \"#utility.yul\":17651:18070   */\n      swap2\n      swap1\n      pop\n      jump\t// out\n        /* \"#utility.yul\":18076:18267   */\n    tag_75:\n        /* \"#utility.yul\":18116:18119   */\n      0x00\n        /* \"#utility.yul\":18135:18155   */\n      tag_324\n        /* \"#utility.yul\":18153:18154   */\n      dup3\n        /* \"#utility.yul\":18135:18155   */\n      tag_84\n      jump\t// in\n    tag_324:\n        /* \"#utility.yul\":18130:18155   */\n      swap2\n      pop\n        /* \"#utility.yul\":18169:18189   */\n      tag_325\n        /* \"#utility.yul\":18187:18188   */\n      dup4\n        /* \"#utility.yul\":18169:18189   */\n      tag_84\n      jump\t// in\n    tag_325:\n        /* \"#utility.yul\":18164:18189   */\n      swap3\n      pop\n        /* \"#utility.yul\":18212:18213   */\n      dup3\n        /* \"#utility.yul\":18209:18210   */\n      dup3\n        /* \"#utility.yul\":18205:18214   */\n      add\n        /* \"#utility.yul\":18198:18214   */\n      swap1\n      pop\n        /* \"#utility.yul\":18233:18236   */\n      dup1\n        /* \"#utility.yul\":18230:18231   */\n      dup3\n        /* \"#utility.yul\":18227:18237   */\n      gt\n        /* \"#utility.yul\":18224:18260   */\n      iszero\n      tag_326\n      jumpi\n        /* \"#utility.yul\":18240:18258   */\n      tag_327\n      tag_125\n      jump\t// in\n    tag_327:\n        /* \"#utility.yul\":18224:18260   */\n    tag_326:\n        /* \"#utility.yul\":18076:18267   */\n      swap3\n      swap2\n      pop\n      pop\n      jump\t// out\n        /* \"#utility.yul\":18273:18444   */\n    tag_134:\n        /* \"#utility.yul\":18413:18436   */\n      0x416d6f756e742072616973656420757064617465640000000000000000000000\n        /* \"#utility.yul\":18409:18410   */\n      0x00\n        /* \"#utility.yul\":18401:18407   */\n      dup3\n        /* \"#utility.yul\":18397:18411   */\n      add\n        /* \"#utility.yul\":18390:18437   */\n      mstore\n        /* \"#utility.yul\":18273:18444   */\n      pop\n      jump\t// out\n        /* \"#utility.yul\":18450:18816   */\n    tag_135:\n        /* \"#utility.yul\":18592:18595   */\n      0x00\n        /* \"#utility.yul\":18613:18680   */\n      tag_330\n        /* \"#utility.yul\":18677:18679   */\n      0x15\n        /* \"#utility.yul\":18672:18675   */\n      dup4\n        /* \"#utility.yul\":18613:18680   */\n      tag_105\n      jump\t// in\n    tag_330:\n        /* \"#utility.yul\":18606:18680   */\n      swap2\n      pop\n        /* \"#utility.yul\":18689:18782   */\n      tag_331\n        /* \"#utility.yul\":18778:18781   */\n      dup3\n        /* \"#utility.yul\":18689:18782   */\n      tag_134\n      jump\t// in\n    tag_331:\n        /* \"#utility.yul\":18807:18809   */\n      0x20\n        /* \"#utility.yul\":18802:18805   */\n      dup3\n        /* \"#utility.yul\":18798:18810   */\n      add\n        /* \"#utility.yul\":18791:18810   */\n      swap1\n      pop\n        /* \"#utility.yul\":18450:18816   */\n      swap2\n      swap1\n      pop\n      jump\t// out\n        /* \"#utility.yul\":18822:19351   */\n    tag_77:\n        /* \"#utility.yul\":19016:19020   */\n      0x00\n        /* \"#utility.yul\":19054:19056   */\n      0x40\n        /* \"#utility.yul\":19043:19052   */\n      dup3\n        /* \"#utility.yul\":19039:19057   */\n      add\n        /* \"#utility.yul\":19031:19057   */\n      swap1\n      pop\n        /* \"#utility.yul\":19103:19112   */\n      dup2\n        /* \"#utility.yul\":19097:19101   */\n      dup2\n        /* \"#utility.yul\":19093:19113   */\n      sub\n        /* \"#utility.yul\":19089:19090   */\n      0x00\n        /* \"#utility.yul\":19078:19087   */\n      dup4\n        /* \"#utility.yul\":19074:19091   */\n      add\n        /* \"#utility.yul\":19067:19114   */\n      mstore\n        /* \"#utility.yul\":19131:19262   */\n      tag_333\n        /* \"#utility.yul\":19257:19261   */\n      dup2\n        /* \"#utility.yul\":19131:19262   */\n      tag_135\n      jump\t// in\n    tag_333:\n        /* \"#utility.yul\":19123:19262   */\n      swap1\n      pop\n        /* \"#utility.yul\":19272:19344   */\n      tag_334\n        /* \"#utility.yul\":19340:19342   */\n      0x20\n        /* \"#utility.yul\":19329:19338   */\n      dup4\n        /* \"#utility.yul\":19325:19343   */\n      add\n        /* \"#utility.yul\":19316:19322   */\n      dup5\n        /* \"#utility.yul\":19272:19344   */\n      tag_85\n      jump\t// in\n    tag_334:\n        /* \"#utility.yul\":18822:19351   */\n      swap3\n      swap2\n      pop\n      pop\n      jump\t// out\n        /* \"#utility.yul\":19357:19523   */\n    tag_136:\n        /* \"#utility.yul\":19497:19515   */\n      0x5461736b206973206e6f77206f70656e00000000000000000000000000000000\n        /* \"#utility.yul\":19493:19494   */\n      0x00\n        /* \"#utility.yul\":19485:19491   */\n      dup3\n        /* \"#utility.yul\":19481:19495   */\n      add\n        /* \"#utility.yul\":19474:19516   */\n      mstore\n        /* \"#utility.yul\":19357:19523   */\n      pop\n      jump\t// out\n        /* \"#utility.yul\":19529:19895   */\n    tag_137:\n        /* \"#utility.yul\":19671:19674   */\n      0x00\n        /* \"#utility.yul\":19692:19759   */\n      tag_337\n        /* \"#utility.yul\":19756:19758   */\n      0x10\n        /* \"#utility.yul\":19751:19754   */\n      dup4\n        /* \"#utility.yul\":19692:19759   */\n      tag_105\n      jump\t// in\n    tag_337:\n        /* \"#utility.yul\":19685:19759   */\n      swap2\n      pop\n        /* \"#utility.yul\":19768:19861   */\n      tag_338\n        /* \"#utility.yul\":19857:19860   */\n      dup3\n        /* \"#utility.yul\":19768:19861   */\n      tag_136\n      jump\t// in\n    tag_338:\n        /* \"#utility.yul\":19886:19888   */\n      0x20\n        /* \"#utility.yul\":19881:19884   */\n      dup3\n        /* \"#utility.yul\":19877:19889   */\n      add\n        /* \"#utility.yul\":19870:19889   */\n      swap1\n      pop\n        /* \"#utility.yul\":19529:19895   */\n      swap2\n      swap1\n      pop\n      jump\t// out\n        /* \"#utility.yul\":19901:20430   */\n    tag_80:\n        /* \"#utility.yul\":20095:20099   */\n      0x00\n        /* \"#utility.yul\":20133:20135   */\n      0x40\n        /* \"#utility.yul\":20122:20131   */\n      dup3\n        /* \"#utility.yul\":20118:20136   */\n      add\n        /* \"#utility.yul\":20110:20136   */\n      swap1\n      pop\n        /* \"#utility.yul\":20182:20191   */\n      dup2\n        /* \"#utility.yul\":20176:20180   */\n      dup2\n        /* \"#utility.yul\":20172:20192   */\n      sub\n        /* \"#utility.yul\":20168:20169   */\n      0x00\n        /* \"#utility.yul\":20157:20166   */\n      dup4\n        /* \"#utility.yul\":20153:20170   */\n      add\n        /* \"#utility.yul\":20146:20193   */\n      mstore\n        /* \"#utility.yul\":20210:20341   */\n      tag_340\n        /* \"#utility.yul\":20336:20340   */\n      dup2\n        /* \"#utility.yul\":20210:20341   */\n      tag_137\n      jump\t// in\n    tag_340:\n        /* \"#utility.yul\":20202:20341   */\n      swap1\n      pop\n        /* \"#utility.yul\":20351:20423   */\n      tag_341\n        /* \"#utility.yul\":20419:20421   */\n      0x20\n        /* \"#utility.yul\":20408:20417   */\n      dup4\n        /* \"#utility.yul\":20404:20422   */\n      add\n        /* \"#utility.yul\":20395:20401   */\n      dup5\n        /* \"#utility.yul\":20351:20423   */\n      tag_85\n      jump\t// in\n    tag_341:\n        /* \"#utility.yul\":19901:20430   */\n      swap3\n      swap2\n      pop\n      pop\n      jump\t// out\n\n    auxdata: 0xa2646970667358221220382b3bc9eafbcd89a2c4846e3ed81a42cb4278bd05926e09d8e0ed6f68b62f7c64736f6c63430008190033\n}\n",
				"bytecode": {
					"linkReferences": {},
					"object": "60806040525f80553480156011575f80fd5b503360025f6101000a81548173ffffffffffffffffffffffffffffffffffffffff021916908373ffffffffffffffffffffffffffffffffffffffff16021790555061110b8061005f5f395ff3fe608060405260043610610058575f3560e01c806304fe2b341461009c57806360c539d3146100c45780638d977672146100ec5780638da5cb5b1461012c578063b6cb58a514610156578063d1ff21c21461018057610098565b36610098577fa419615bc8fda4c87663805ee2a3597a6d71c1d476911d9892f340d965bc7bf1333460405161008e92919061069a565b60405180910390a1005b5f80fd5b3480156100a7575f80fd5b506100c260048036038101906100bd9190610838565b6101b0565b005b3480156100cf575f80fd5b506100ea60048036038101906100e591906108c7565b6102ad565b005b3480156100f7575f80fd5b50610112600480360381019061010d9190610905565b6103ed565b60405161012395949392919061099f565b60405180910390f35b348015610137575f80fd5b506101406104be565b60405161014d91906109f7565b60405180910390f35b348015610161575f80fd5b5061016a6104e3565b6040516101779190610a10565b60405180910390f35b61019a60048036038101906101959190610905565b6104e8565b6040516101a79190610a29565b60405180910390f35b6040518060a001604052808381526020018281526020015f81526020015f151581526020015f151581525060015f805481526020019081526020015f205f820151815f0190816102009190610c3c565b5060208201518160010155604082015181600201556060820151816003015f6101000a81548160ff02191690831515021790555060808201518160030160016101000a81548160ff0219169083151502179055509050507f146b4b2e55f6b6a4a8ac8239494150cd5f96b163e2d019440f369714f4a31eb85f54838360405161028b93929190610d0b565b60405180910390a15f808154809291906102a490610d74565b91905055505050565b60025f9054906101000a900473ffffffffffffffffffffffffffffffffffffffff1673ffffffffffffffffffffffffffffffffffffffff163373ffffffffffffffffffffffffffffffffffffffff161461033c576040517f08c379a000000000000000000000000000000000000000000000000000000000815260040161033390610e2b565b60405180910390fd5b5f54821061037f576040517f08c379a000000000000000000000000000000000000000000000000000000000815260040161037690610e93565b60405180910390fd5b5f60015f8481526020019081526020015f209050818160030160016101000a81548160ff0219169083151502179055507f927ecc698e7293785487e40c7eb8f2aefb6abc81d77df63ab5d5c883da1df93a83836040516103e0929190610eb1565b60405180910390a1505050565b6001602052805f5260405f205f91509050805f01805461040c90610a6f565b80601f016020809104026020016040519081016040528092919081815260200182805461043890610a6f565b80156104835780601f1061045a57610100808354040283529160200191610483565b820191905f5260205f20905b81548152906001019060200180831161046657829003601f168201915b505050505090806001015490806002015490806003015f9054906101000a900460ff16908060030160019054906101000a900460ff16905085565b60025f9054906101000a900473ffffffffffffffffffffffffffffffffffffffff1681565b5f5481565b5f817f1e12a21fdf194d5d13bc6106efc72ff0f33ff3272045d478355d95e3e1aa3ff6346040516105199190610f22565b60405180910390a25f548210610566577ffe46ad7cf507184ab42d7a2576647d779ff7bc7f831bfbead75fbe056c1adb6360405161055690610f98565b60405180910390a15f905061063e565b5f60015f8481526020019081526020015f20905034816002015f82825461058d9190610fb6565b92505081905550827f1e12a21fdf194d5d13bc6106efc72ff0f33ff3272045d478355d95e3e1aa3ff682600201546040516105c89190611033565b60405180910390a28060010154816002015410610638576001816003015f6101000a81548160ff021916908315150217905550827f1e12a21fdf194d5d13bc6106efc72ff0f33ff3272045d478355d95e3e1aa3ff6826002015460405161062f91906110a9565b60405180910390a25b60019150505b919050565b5f73ffffffffffffffffffffffffffffffffffffffff82169050919050565b5f61066c82610643565b9050919050565b61067c81610662565b82525050565b5f819050919050565b61069481610682565b82525050565b5f6040820190506106ad5f830185610673565b6106ba602083018461068b565b9392505050565b5f604051905090565b5f80fd5b5f80fd5b5f80fd5b5f80fd5b5f601f19601f8301169050919050565b7f4e487b71000000000000000000000000000000000000000000000000000000005f52604160045260245ffd5b610720826106da565b810181811067ffffffffffffffff8211171561073f5761073e6106ea565b5b80604052505050565b5f6107516106c1565b905061075d8282610717565b919050565b5f67ffffffffffffffff82111561077c5761077b6106ea565b5b610785826106da565b9050602081019050919050565b828183375f83830152505050565b5f6107b26107ad84610762565b610748565b9050828152602081018484840111156107ce576107cd6106d6565b5b6107d9848285610792565b509392505050565b5f82601f8301126107f5576107f46106d2565b5b81356108058482602086016107a0565b91505092915050565b61081781610682565b8114610821575f80fd5b50565b5f813590506108328161080e565b92915050565b5f806040838503121561084e5761084d6106ca565b5b5f83013567ffffffffffffffff81111561086b5761086a6106ce565b5b610877858286016107e1565b925050602061088885828601610824565b9150509250929050565b5f8115159050919050565b6108a681610892565b81146108b0575f80fd5b50565b5f813590506108c18161089d565b92915050565b5f80604083850312156108dd576108dc6106ca565b5b5f6108ea85828601610824565b92505060206108fb858286016108b3565b9150509250929050565b5f6020828403121561091a576109196106ca565b5b5f61092784828501610824565b91505092915050565b5f81519050919050565b5f82825260208201905092915050565b8281835e5f83830152505050565b5f61096282610930565b61096c818561093a565b935061097c81856020860161094a565b610985816106da565b840191505092915050565b61099981610892565b82525050565b5f60a0820190508181035f8301526109b78188610958565b90506109c6602083018761068b565b6109d3604083018661068b565b6109e06060830185610990565b6109ed6080830184610990565b9695505050505050565b5f602082019050610a0a5f830184610673565b92915050565b5f602082019050610a235f83018461068b565b92915050565b5f602082019050610a3c5f830184610990565b92915050565b7f4e487b71000000000000000000000000000000000000000000000000000000005f52602260045260245ffd5b5f6002820490506001821680610a8657607f821691505b602082108103610a9957610a98610a42565b5b50919050565b5f819050815f5260205f209050919050565b5f6020601f8301049050919050565b5f82821b905092915050565b5f60088302610afb7fffffffffffffffffffffffffffffffffffffffffffffffffffffffffffffffff82610ac0565b610b058683610ac0565b95508019841693508086168417925050509392505050565b5f819050919050565b5f610b40610b3b610b3684610682565b610b1d565b610682565b9050919050565b5f819050919050565b610b5983610b26565b610b6d610b6582610b47565b848454610acc565b825550505050565b5f90565b610b81610b75565b610b8c818484610b50565b505050565b5b81811015610baf57610ba45f82610b79565b600181019050610b92565b5050565b601f821115610bf457610bc581610a9f565b610bce84610ab1565b81016020851015610bdd578190505b610bf1610be985610ab1565b830182610b91565b50505b505050565b5f82821c905092915050565b5f610c145f1984600802610bf9565b1980831691505092915050565b5f610c2c8383610c05565b9150826002028217905092915050565b610c4582610930565b67ffffffffffffffff811115610c5e57610c5d6106ea565b5b610c688254610a6f565b610c73828285610bb3565b5f60209050601f831160018114610ca4575f8415610c92578287015190505b610c9c8582610c21565b865550610d03565b601f198416610cb286610a9f565b5f5b82811015610cd957848901518255600182019150602085019450602081019050610cb4565b86831015610cf65784890151610cf2601f891682610c05565b8355505b6001600288020188555050505b505050505050565b5f606082019050610d1e5f83018661068b565b8181036020830152610d308185610958565b9050610d3f604083018461068b565b949350505050565b7f4e487b71000000000000000000000000000000000000000000000000000000005f52601160045260245ffd5b5f610d7e82610682565b91507fffffffffffffffffffffffffffffffffffffffffffffffffffffffffffffffff8203610db057610daf610d47565b5b600182019050919050565b7f4f6e6c7920746865206f776e65722063616e2063616c6c20746869732066756e5f8201527f6374696f6e2e0000000000000000000000000000000000000000000000000000602082015250565b5f610e1560268361093a565b9150610e2082610dbb565b604082019050919050565b5f6020820190508181035f830152610e4281610e09565b9050919050565b7f5461736b204944206973206e6f742076616c69640000000000000000000000005f82015250565b5f610e7d60148361093a565b9150610e8882610e49565b602082019050919050565b5f6020820190508181035f830152610eaa81610e71565b9050919050565b5f604082019050610ec45f83018561068b565b610ed16020830184610990565b9392505050565b7f46756e64696e67207461736b00000000000000000000000000000000000000005f82015250565b5f610f0c600c8361093a565b9150610f1782610ed8565b602082019050919050565b5f6040820190508181035f830152610f3981610f00565b9050610f48602083018461068b565b92915050565b7f496e76616c6964207461736b20494400000000000000000000000000000000005f82015250565b5f610f82600f8361093a565b9150610f8d82610f4e565b602082019050919050565b5f6020820190508181035f830152610faf81610f76565b9050919050565b5f610fc082610682565b9150610fcb83610682565b9250828201905080821115610fe357610fe2610d47565b5b92915050565b7f416d6f756e7420726169736564207570646174656400000000000000000000005f82015250565b5f61101d60158361093a565b915061102882610fe9565b602082019050919050565b5f6040820190508181035f83015261104a81611011565b9050611059602083018461068b565b92915050565b7f5461736b206973206e6f77206f70656e000000000000000000000000000000005f82015250565b5f61109360108361093a565b915061109e8261105f565b602082019050919050565b5f6040820190508181035f8301526110c081611087565b90506110cf602083018461068b565b9291505056fea2646970667358221220382b3bc9eafbcd89a2c4846e3ed81a42cb4278bd05926e09d8e0ed6f68b62f7c64736f6c63430008190033",
					"opcodes": "PUSH1 0x80 PUSH1 0x40 MSTORE PUSH0 DUP1 SSTORE CALLVALUE DUP1 ISZERO PUSH1 0x11 JUMPI PUSH0 DUP1 REVERT JUMPDEST POP CALLER PUSH1 0x2 PUSH0 PUSH2 0x100 EXP DUP2 SLOAD DUP2 PUSH20 0xFFFFFFFFFFFFFFFFFFFFFFFFFFFFFFFFFFFFFFFF MUL NOT AND SWAP1 DUP4 PUSH20 0xFFFFFFFFFFFFFFFFFFFFFFFFFFFFFFFFFFFFFFFF AND MUL OR SWAP1 SSTORE POP PUSH2 0x110B DUP1 PUSH2 0x5F PUSH0 CODECOPY PUSH0 RETURN INVALID PUSH1 0x80 PUSH1 0x40 MSTORE PUSH1 0x4 CALLDATASIZE LT PUSH2 0x58 JUMPI PUSH0 CALLDATALOAD PUSH1 0xE0 SHR DUP1 PUSH4 0x4FE2B34 EQ PUSH2 0x9C JUMPI DUP1 PUSH4 0x60C539D3 EQ PUSH2 0xC4 JUMPI DUP1 PUSH4 0x8D977672 EQ PUSH2 0xEC JUMPI DUP1 PUSH4 0x8DA5CB5B EQ PUSH2 0x12C JUMPI DUP1 PUSH4 0xB6CB58A5 EQ PUSH2 0x156 JUMPI DUP1 PUSH4 0xD1FF21C2 EQ PUSH2 0x180 JUMPI PUSH2 0x98 JUMP JUMPDEST CALLDATASIZE PUSH2 0x98 JUMPI PUSH32 0xA419615BC8FDA4C87663805EE2A3597A6D71C1D476911D9892F340D965BC7BF1 CALLER CALLVALUE PUSH1 0x40 MLOAD PUSH2 0x8E SWAP3 SWAP2 SWAP1 PUSH2 0x69A JUMP JUMPDEST PUSH1 0x40 MLOAD DUP1 SWAP2 SUB SWAP1 LOG1 STOP JUMPDEST PUSH0 DUP1 REVERT JUMPDEST CALLVALUE DUP1 ISZERO PUSH2 0xA7 JUMPI PUSH0 DUP1 REVERT JUMPDEST POP PUSH2 0xC2 PUSH1 0x4 DUP1 CALLDATASIZE SUB DUP2 ADD SWAP1 PUSH2 0xBD SWAP2 SWAP1 PUSH2 0x838 JUMP JUMPDEST PUSH2 0x1B0 JUMP JUMPDEST STOP JUMPDEST CALLVALUE DUP1 ISZERO PUSH2 0xCF JUMPI PUSH0 DUP1 REVERT JUMPDEST POP PUSH2 0xEA PUSH1 0x4 DUP1 CALLDATASIZE SUB DUP2 ADD SWAP1 PUSH2 0xE5 SWAP2 SWAP1 PUSH2 0x8C7 JUMP JUMPDEST PUSH2 0x2AD JUMP JUMPDEST STOP JUMPDEST CALLVALUE DUP1 ISZERO PUSH2 0xF7 JUMPI PUSH0 DUP1 REVERT JUMPDEST POP PUSH2 0x112 PUSH1 0x4 DUP1 CALLDATASIZE SUB DUP2 ADD SWAP1 PUSH2 0x10D SWAP2 SWAP1 PUSH2 0x905 JUMP JUMPDEST PUSH2 0x3ED JUMP JUMPDEST PUSH1 0x40 MLOAD PUSH2 0x123 SWAP6 SWAP5 SWAP4 SWAP3 SWAP2 SWAP1 PUSH2 0x99F JUMP JUMPDEST PUSH1 0x40 MLOAD DUP1 SWAP2 SUB SWAP1 RETURN JUMPDEST CALLVALUE DUP1 ISZERO PUSH2 0x137 JUMPI PUSH0 DUP1 REVERT JUMPDEST POP PUSH2 0x140 PUSH2 0x4BE JUMP JUMPDEST PUSH1 0x40 MLOAD PUSH2 0x14D SWAP2 SWAP1 PUSH2 0x9F7 JUMP JUMPDEST PUSH1 0x40 MLOAD DUP1 SWAP2 SUB SWAP1 RETURN JUMPDEST CALLVALUE DUP1 ISZERO PUSH2 0x161 JUMPI PUSH0 DUP1 REVERT JUMPDEST POP PUSH2 0x16A PUSH2 0x4E3 JUMP JUMPDEST PUSH1 0x40 MLOAD PUSH2 0x177 SWAP2 SWAP1 PUSH2 0xA10 JUMP JUMPDEST PUSH1 0x40 MLOAD DUP1 SWAP2 SUB SWAP1 RETURN JUMPDEST PUSH2 0x19A PUSH1 0x4 DUP1 CALLDATASIZE SUB DUP2 ADD SWAP1 PUSH2 0x195 SWAP2 SWAP1 PUSH2 0x905 JUMP JUMPDEST PUSH2 0x4E8 JUMP JUMPDEST PUSH1 0x40 MLOAD PUSH2 0x1A7 SWAP2 SWAP1 PUSH2 0xA29 JUMP JUMPDEST PUSH1 0x40 MLOAD DUP1 SWAP2 SUB SWAP1 RETURN JUMPDEST PUSH1 0x40 MLOAD DUP1 PUSH1 0xA0 ADD PUSH1 0x40 MSTORE DUP1 DUP4 DUP2 MSTORE PUSH1 0x20 ADD DUP3 DUP2 MSTORE PUSH1 0x20 ADD PUSH0 DUP2 MSTORE PUSH1 0x20 ADD PUSH0 ISZERO ISZERO DUP2 MSTORE PUSH1 0x20 ADD PUSH0 ISZERO ISZERO DUP2 MSTORE POP PUSH1 0x1 PUSH0 DUP1 SLOAD DUP2 MSTORE PUSH1 0x20 ADD SWAP1 DUP2 MSTORE PUSH1 0x20 ADD PUSH0 KECCAK256 PUSH0 DUP3 ADD MLOAD DUP2 PUSH0 ADD SWAP1 DUP2 PUSH2 0x200 SWAP2 SWAP1 PUSH2 0xC3C JUMP JUMPDEST POP PUSH1 0x20 DUP3 ADD MLOAD DUP2 PUSH1 0x1 ADD SSTORE PUSH1 0x40 DUP3 ADD MLOAD DUP2 PUSH1 0x2 ADD SSTORE PUSH1 0x60 DUP3 ADD MLOAD DUP2 PUSH1 0x3 ADD PUSH0 PUSH2 0x100 EXP DUP2 SLOAD DUP2 PUSH1 0xFF MUL NOT AND SWAP1 DUP4 ISZERO ISZERO MUL OR SWAP1 SSTORE POP PUSH1 0x80 DUP3 ADD MLOAD DUP2 PUSH1 0x3 ADD PUSH1 0x1 PUSH2 0x100 EXP DUP2 SLOAD DUP2 PUSH1 0xFF MUL NOT AND SWAP1 DUP4 ISZERO ISZERO MUL OR SWAP1 SSTORE POP SWAP1 POP POP PUSH32 0x146B4B2E55F6B6A4A8AC8239494150CD5F96B163E2D019440F369714F4A31EB8 PUSH0 SLOAD DUP4 DUP4 PUSH1 0x40 MLOAD PUSH2 0x28B SWAP4 SWAP3 SWAP2 SWAP1 PUSH2 0xD0B JUMP JUMPDEST PUSH1 0x40 MLOAD DUP1 SWAP2 SUB SWAP1 LOG1 PUSH0 DUP1 DUP2 SLOAD DUP1 SWAP3 SWAP2 SWAP1 PUSH2 0x2A4 SWAP1 PUSH2 0xD74 JUMP JUMPDEST SWAP2 SWAP1 POP SSTORE POP POP POP JUMP JUMPDEST PUSH1 0x2 PUSH0 SWAP1 SLOAD SWAP1 PUSH2 0x100 EXP SWAP1 DIV PUSH20 0xFFFFFFFFFFFFFFFFFFFFFFFFFFFFFFFFFFFFFFFF AND PUSH20 0xFFFFFFFFFFFFFFFFFFFFFFFFFFFFFFFFFFFFFFFF AND CALLER PUSH20 0xFFFFFFFFFFFFFFFFFFFFFFFFFFFFFFFFFFFFFFFF AND EQ PUSH2 0x33C JUMPI PUSH1 0x40 MLOAD PUSH32 0x8C379A000000000000000000000000000000000000000000000000000000000 DUP2 MSTORE PUSH1 0x4 ADD PUSH2 0x333 SWAP1 PUSH2 0xE2B JUMP JUMPDEST PUSH1 0x40 MLOAD DUP1 SWAP2 SUB SWAP1 REVERT JUMPDEST PUSH0 SLOAD DUP3 LT PUSH2 0x37F JUMPI PUSH1 0x40 MLOAD PUSH32 0x8C379A000000000000000000000000000000000000000000000000000000000 DUP2 MSTORE PUSH1 0x4 ADD PUSH2 0x376 SWAP1 PUSH2 0xE93 JUMP JUMPDEST PUSH1 0x40 MLOAD DUP1 SWAP2 SUB SWAP1 REVERT JUMPDEST PUSH0 PUSH1 0x1 PUSH0 DUP5 DUP2 MSTORE PUSH1 0x20 ADD SWAP1 DUP2 MSTORE PUSH1 0x20 ADD PUSH0 KECCAK256 SWAP1 POP DUP2 DUP2 PUSH1 0x3 ADD PUSH1 0x1 PUSH2 0x100 EXP DUP2 SLOAD DUP2 PUSH1 0xFF MUL NOT AND SWAP1 DUP4 ISZERO ISZERO MUL OR SWAP1 SSTORE POP PUSH32 0x927ECC698E7293785487E40C7EB8F2AEFB6ABC81D77DF63AB5D5C883DA1DF93A DUP4 DUP4 PUSH1 0x40 MLOAD PUSH2 0x3E0 SWAP3 SWAP2 SWAP1 PUSH2 0xEB1 JUMP JUMPDEST PUSH1 0x40 MLOAD DUP1 SWAP2 SUB SWAP1 LOG1 POP POP POP JUMP JUMPDEST PUSH1 0x1 PUSH1 0x20 MSTORE DUP1 PUSH0 MSTORE PUSH1 0x40 PUSH0 KECCAK256 PUSH0 SWAP2 POP SWAP1 POP DUP1 PUSH0 ADD DUP1 SLOAD PUSH2 0x40C SWAP1 PUSH2 0xA6F JUMP JUMPDEST DUP1 PUSH1 0x1F ADD PUSH1 0x20 DUP1 SWAP2 DIV MUL PUSH1 0x20 ADD PUSH1 0x40 MLOAD SWAP1 DUP2 ADD PUSH1 0x40 MSTORE DUP1 SWAP3 SWAP2 SWAP1 DUP2 DUP2 MSTORE PUSH1 0x20 ADD DUP3 DUP1 SLOAD PUSH2 0x438 SWAP1 PUSH2 0xA6F JUMP JUMPDEST DUP1 ISZERO PUSH2 0x483 JUMPI DUP1 PUSH1 0x1F LT PUSH2 0x45A JUMPI PUSH2 0x100 DUP1 DUP4 SLOAD DIV MUL DUP4 MSTORE SWAP2 PUSH1 0x20 ADD SWAP2 PUSH2 0x483 JUMP JUMPDEST DUP3 ADD SWAP2 SWAP1 PUSH0 MSTORE PUSH1 0x20 PUSH0 KECCAK256 SWAP1 JUMPDEST DUP2 SLOAD DUP2 MSTORE SWAP1 PUSH1 0x1 ADD SWAP1 PUSH1 0x20 ADD DUP1 DUP4 GT PUSH2 0x466 JUMPI DUP3 SWAP1 SUB PUSH1 0x1F AND DUP3 ADD SWAP2 JUMPDEST POP POP POP POP POP SWAP1 DUP1 PUSH1 0x1 ADD SLOAD SWAP1 DUP1 PUSH1 0x2 ADD SLOAD SWAP1 DUP1 PUSH1 0x3 ADD PUSH0 SWAP1 SLOAD SWAP1 PUSH2 0x100 EXP SWAP1 DIV PUSH1 0xFF AND SWAP1 DUP1 PUSH1 0x3 ADD PUSH1 0x1 SWAP1 SLOAD SWAP1 PUSH2 0x100 EXP SWAP1 DIV PUSH1 0xFF AND SWAP1 POP DUP6 JUMP JUMPDEST PUSH1 0x2 PUSH0 SWAP1 SLOAD SWAP1 PUSH2 0x100 EXP SWAP1 DIV PUSH20 0xFFFFFFFFFFFFFFFFFFFFFFFFFFFFFFFFFFFFFFFF AND DUP2 JUMP JUMPDEST PUSH0 SLOAD DUP2 JUMP JUMPDEST PUSH0 DUP2 PUSH32 0x1E12A21FDF194D5D13BC6106EFC72FF0F33FF3272045D478355D95E3E1AA3FF6 CALLVALUE PUSH1 0x40 MLOAD PUSH2 0x519 SWAP2 SWAP1 PUSH2 0xF22 JUMP JUMPDEST PUSH1 0x40 MLOAD DUP1 SWAP2 SUB SWAP1 LOG2 PUSH0 SLOAD DUP3 LT PUSH2 0x566 JUMPI PUSH32 0xFE46AD7CF507184AB42D7A2576647D779FF7BC7F831BFBEAD75FBE056C1ADB63 PUSH1 0x40 MLOAD PUSH2 0x556 SWAP1 PUSH2 0xF98 JUMP JUMPDEST PUSH1 0x40 MLOAD DUP1 SWAP2 SUB SWAP1 LOG1 PUSH0 SWAP1 POP PUSH2 0x63E JUMP JUMPDEST PUSH0 PUSH1 0x1 PUSH0 DUP5 DUP2 MSTORE PUSH1 0x20 ADD SWAP1 DUP2 MSTORE PUSH1 0x20 ADD PUSH0 KECCAK256 SWAP1 POP CALLVALUE DUP2 PUSH1 0x2 ADD PUSH0 DUP3 DUP3 SLOAD PUSH2 0x58D SWAP2 SWAP1 PUSH2 0xFB6 JUMP JUMPDEST SWAP3 POP POP DUP2 SWAP1 SSTORE POP DUP3 PUSH32 0x1E12A21FDF194D5D13BC6106EFC72FF0F33FF3272045D478355D95E3E1AA3FF6 DUP3 PUSH1 0x2 ADD SLOAD PUSH1 0x40 MLOAD PUSH2 0x5C8 SWAP2 SWAP1 PUSH2 0x1033 JUMP JUMPDEST PUSH1 0x40 MLOAD DUP1 SWAP2 SUB SWAP1 LOG2 DUP1 PUSH1 0x1 ADD SLOAD DUP2 PUSH1 0x2 ADD SLOAD LT PUSH2 0x638 JUMPI PUSH1 0x1 DUP2 PUSH1 0x3 ADD PUSH0 PUSH2 0x100 EXP DUP2 SLOAD DUP2 PUSH1 0xFF MUL NOT AND SWAP1 DUP4 ISZERO ISZERO MUL OR SWAP1 SSTORE POP DUP3 PUSH32 0x1E12A21FDF194D5D13BC6106EFC72FF0F33FF3272045D478355D95E3E1AA3FF6 DUP3 PUSH1 0x2 ADD SLOAD PUSH1 0x40 MLOAD PUSH2 0x62F SWAP2 SWAP1 PUSH2 0x10A9 JUMP JUMPDEST PUSH1 0x40 MLOAD DUP1 SWAP2 SUB SWAP1 LOG2 JUMPDEST PUSH1 0x1 SWAP2 POP POP JUMPDEST SWAP2 SWAP1 POP JUMP JUMPDEST PUSH0 PUSH20 0xFFFFFFFFFFFFFFFFFFFFFFFFFFFFFFFFFFFFFFFF DUP3 AND SWAP1 POP SWAP2 SWAP1 POP JUMP JUMPDEST PUSH0 PUSH2 0x66C DUP3 PUSH2 0x643 JUMP JUMPDEST SWAP1 POP SWAP2 SWAP1 POP JUMP JUMPDEST PUSH2 0x67C DUP2 PUSH2 0x662 JUMP JUMPDEST DUP3 MSTORE POP POP JUMP JUMPDEST PUSH0 DUP2 SWAP1 POP SWAP2 SWAP1 POP JUMP JUMPDEST PUSH2 0x694 DUP2 PUSH2 0x682 JUMP JUMPDEST DUP3 MSTORE POP POP JUMP JUMPDEST PUSH0 PUSH1 0x40 DUP3 ADD SWAP1 POP PUSH2 0x6AD PUSH0 DUP4 ADD DUP6 PUSH2 0x673 JUMP JUMPDEST PUSH2 0x6BA PUSH1 0x20 DUP4 ADD DUP5 PUSH2 0x68B JUMP JUMPDEST SWAP4 SWAP3 POP POP POP JUMP JUMPDEST PUSH0 PUSH1 0x40 MLOAD SWAP1 POP SWAP1 JUMP JUMPDEST PUSH0 DUP1 REVERT JUMPDEST PUSH0 DUP1 REVERT JUMPDEST PUSH0 DUP1 REVERT JUMPDEST PUSH0 DUP1 REVERT JUMPDEST PUSH0 PUSH1 0x1F NOT PUSH1 0x1F DUP4 ADD AND SWAP1 POP SWAP2 SWAP1 POP JUMP JUMPDEST PUSH32 0x4E487B7100000000000000000000000000000000000000000000000000000000 PUSH0 MSTORE PUSH1 0x41 PUSH1 0x4 MSTORE PUSH1 0x24 PUSH0 REVERT JUMPDEST PUSH2 0x720 DUP3 PUSH2 0x6DA JUMP JUMPDEST DUP2 ADD DUP2 DUP2 LT PUSH8 0xFFFFFFFFFFFFFFFF DUP3 GT OR ISZERO PUSH2 0x73F JUMPI PUSH2 0x73E PUSH2 0x6EA JUMP JUMPDEST JUMPDEST DUP1 PUSH1 0x40 MSTORE POP POP POP JUMP JUMPDEST PUSH0 PUSH2 0x751 PUSH2 0x6C1 JUMP JUMPDEST SWAP1 POP PUSH2 0x75D DUP3 DUP3 PUSH2 0x717 JUMP JUMPDEST SWAP2 SWAP1 POP JUMP JUMPDEST PUSH0 PUSH8 0xFFFFFFFFFFFFFFFF DUP3 GT ISZERO PUSH2 0x77C JUMPI PUSH2 0x77B PUSH2 0x6EA JUMP JUMPDEST JUMPDEST PUSH2 0x785 DUP3 PUSH2 0x6DA JUMP JUMPDEST SWAP1 POP PUSH1 0x20 DUP2 ADD SWAP1 POP SWAP2 SWAP1 POP JUMP JUMPDEST DUP3 DUP2 DUP4 CALLDATACOPY PUSH0 DUP4 DUP4 ADD MSTORE POP POP POP JUMP JUMPDEST PUSH0 PUSH2 0x7B2 PUSH2 0x7AD DUP5 PUSH2 0x762 JUMP JUMPDEST PUSH2 0x748 JUMP JUMPDEST SWAP1 POP DUP3 DUP2 MSTORE PUSH1 0x20 DUP2 ADD DUP5 DUP5 DUP5 ADD GT ISZERO PUSH2 0x7CE JUMPI PUSH2 0x7CD PUSH2 0x6D6 JUMP JUMPDEST JUMPDEST PUSH2 0x7D9 DUP5 DUP3 DUP6 PUSH2 0x792 JUMP JUMPDEST POP SWAP4 SWAP3 POP POP POP JUMP JUMPDEST PUSH0 DUP3 PUSH1 0x1F DUP4 ADD SLT PUSH2 0x7F5 JUMPI PUSH2 0x7F4 PUSH2 0x6D2 JUMP JUMPDEST JUMPDEST DUP2 CALLDATALOAD PUSH2 0x805 DUP5 DUP3 PUSH1 0x20 DUP7 ADD PUSH2 0x7A0 JUMP JUMPDEST SWAP2 POP POP SWAP3 SWAP2 POP POP JUMP JUMPDEST PUSH2 0x817 DUP2 PUSH2 0x682 JUMP JUMPDEST DUP2 EQ PUSH2 0x821 JUMPI PUSH0 DUP1 REVERT JUMPDEST POP JUMP JUMPDEST PUSH0 DUP2 CALLDATALOAD SWAP1 POP PUSH2 0x832 DUP2 PUSH2 0x80E JUMP JUMPDEST SWAP3 SWAP2 POP POP JUMP JUMPDEST PUSH0 DUP1 PUSH1 0x40 DUP4 DUP6 SUB SLT ISZERO PUSH2 0x84E JUMPI PUSH2 0x84D PUSH2 0x6CA JUMP JUMPDEST JUMPDEST PUSH0 DUP4 ADD CALLDATALOAD PUSH8 0xFFFFFFFFFFFFFFFF DUP2 GT ISZERO PUSH2 0x86B JUMPI PUSH2 0x86A PUSH2 0x6CE JUMP JUMPDEST JUMPDEST PUSH2 0x877 DUP6 DUP3 DUP7 ADD PUSH2 0x7E1 JUMP JUMPDEST SWAP3 POP POP PUSH1 0x20 PUSH2 0x888 DUP6 DUP3 DUP7 ADD PUSH2 0x824 JUMP JUMPDEST SWAP2 POP POP SWAP3 POP SWAP3 SWAP1 POP JUMP JUMPDEST PUSH0 DUP2 ISZERO ISZERO SWAP1 POP SWAP2 SWAP1 POP JUMP JUMPDEST PUSH2 0x8A6 DUP2 PUSH2 0x892 JUMP JUMPDEST DUP2 EQ PUSH2 0x8B0 JUMPI PUSH0 DUP1 REVERT JUMPDEST POP JUMP JUMPDEST PUSH0 DUP2 CALLDATALOAD SWAP1 POP PUSH2 0x8C1 DUP2 PUSH2 0x89D JUMP JUMPDEST SWAP3 SWAP2 POP POP JUMP JUMPDEST PUSH0 DUP1 PUSH1 0x40 DUP4 DUP6 SUB SLT ISZERO PUSH2 0x8DD JUMPI PUSH2 0x8DC PUSH2 0x6CA JUMP JUMPDEST JUMPDEST PUSH0 PUSH2 0x8EA DUP6 DUP3 DUP7 ADD PUSH2 0x824 JUMP JUMPDEST SWAP3 POP POP PUSH1 0x20 PUSH2 0x8FB DUP6 DUP3 DUP7 ADD PUSH2 0x8B3 JUMP JUMPDEST SWAP2 POP POP SWAP3 POP SWAP3 SWAP1 POP JUMP JUMPDEST PUSH0 PUSH1 0x20 DUP3 DUP5 SUB SLT ISZERO PUSH2 0x91A JUMPI PUSH2 0x919 PUSH2 0x6CA JUMP JUMPDEST JUMPDEST PUSH0 PUSH2 0x927 DUP5 DUP3 DUP6 ADD PUSH2 0x824 JUMP JUMPDEST SWAP2 POP POP SWAP3 SWAP2 POP POP JUMP JUMPDEST PUSH0 DUP2 MLOAD SWAP1 POP SWAP2 SWAP1 POP JUMP JUMPDEST PUSH0 DUP3 DUP3 MSTORE PUSH1 0x20 DUP3 ADD SWAP1 POP SWAP3 SWAP2 POP POP JUMP JUMPDEST DUP3 DUP2 DUP4 MCOPY PUSH0 DUP4 DUP4 ADD MSTORE POP POP POP JUMP JUMPDEST PUSH0 PUSH2 0x962 DUP3 PUSH2 0x930 JUMP JUMPDEST PUSH2 0x96C DUP2 DUP6 PUSH2 0x93A JUMP JUMPDEST SWAP4 POP PUSH2 0x97C DUP2 DUP6 PUSH1 0x20 DUP7 ADD PUSH2 0x94A JUMP JUMPDEST PUSH2 0x985 DUP2 PUSH2 0x6DA JUMP JUMPDEST DUP5 ADD SWAP2 POP POP SWAP3 SWAP2 POP POP JUMP JUMPDEST PUSH2 0x999 DUP2 PUSH2 0x892 JUMP JUMPDEST DUP3 MSTORE POP POP JUMP JUMPDEST PUSH0 PUSH1 0xA0 DUP3 ADD SWAP1 POP DUP2 DUP2 SUB PUSH0 DUP4 ADD MSTORE PUSH2 0x9B7 DUP2 DUP9 PUSH2 0x958 JUMP JUMPDEST SWAP1 POP PUSH2 0x9C6 PUSH1 0x20 DUP4 ADD DUP8 PUSH2 0x68B JUMP JUMPDEST PUSH2 0x9D3 PUSH1 0x40 DUP4 ADD DUP7 PUSH2 0x68B JUMP JUMPDEST PUSH2 0x9E0 PUSH1 0x60 DUP4 ADD DUP6 PUSH2 0x990 JUMP JUMPDEST PUSH2 0x9ED PUSH1 0x80 DUP4 ADD DUP5 PUSH2 0x990 JUMP JUMPDEST SWAP7 SWAP6 POP POP POP POP POP POP JUMP JUMPDEST PUSH0 PUSH1 0x20 DUP3 ADD SWAP1 POP PUSH2 0xA0A PUSH0 DUP4 ADD DUP5 PUSH2 0x673 JUMP JUMPDEST SWAP3 SWAP2 POP POP JUMP JUMPDEST PUSH0 PUSH1 0x20 DUP3 ADD SWAP1 POP PUSH2 0xA23 PUSH0 DUP4 ADD DUP5 PUSH2 0x68B JUMP JUMPDEST SWAP3 SWAP2 POP POP JUMP JUMPDEST PUSH0 PUSH1 0x20 DUP3 ADD SWAP1 POP PUSH2 0xA3C PUSH0 DUP4 ADD DUP5 PUSH2 0x990 JUMP JUMPDEST SWAP3 SWAP2 POP POP JUMP JUMPDEST PUSH32 0x4E487B7100000000000000000000000000000000000000000000000000000000 PUSH0 MSTORE PUSH1 0x22 PUSH1 0x4 MSTORE PUSH1 0x24 PUSH0 REVERT JUMPDEST PUSH0 PUSH1 0x2 DUP3 DIV SWAP1 POP PUSH1 0x1 DUP3 AND DUP1 PUSH2 0xA86 JUMPI PUSH1 0x7F DUP3 AND SWAP2 POP JUMPDEST PUSH1 0x20 DUP3 LT DUP2 SUB PUSH2 0xA99 JUMPI PUSH2 0xA98 PUSH2 0xA42 JUMP JUMPDEST JUMPDEST POP SWAP2 SWAP1 POP JUMP JUMPDEST PUSH0 DUP2 SWAP1 POP DUP2 PUSH0 MSTORE PUSH1 0x20 PUSH0 KECCAK256 SWAP1 POP SWAP2 SWAP1 POP JUMP JUMPDEST PUSH0 PUSH1 0x20 PUSH1 0x1F DUP4 ADD DIV SWAP1 POP SWAP2 SWAP1 POP JUMP JUMPDEST PUSH0 DUP3 DUP3 SHL SWAP1 POP SWAP3 SWAP2 POP POP JUMP JUMPDEST PUSH0 PUSH1 0x8 DUP4 MUL PUSH2 0xAFB PUSH32 0xFFFFFFFFFFFFFFFFFFFFFFFFFFFFFFFFFFFFFFFFFFFFFFFFFFFFFFFFFFFFFFFF DUP3 PUSH2 0xAC0 JUMP JUMPDEST PUSH2 0xB05 DUP7 DUP4 PUSH2 0xAC0 JUMP JUMPDEST SWAP6 POP DUP1 NOT DUP5 AND SWAP4 POP DUP1 DUP7 AND DUP5 OR SWAP3 POP POP POP SWAP4 SWAP3 POP POP POP JUMP JUMPDEST PUSH0 DUP2 SWAP1 POP SWAP2 SWAP1 POP JUMP JUMPDEST PUSH0 PUSH2 0xB40 PUSH2 0xB3B PUSH2 0xB36 DUP5 PUSH2 0x682 JUMP JUMPDEST PUSH2 0xB1D JUMP JUMPDEST PUSH2 0x682 JUMP JUMPDEST SWAP1 POP SWAP2 SWAP1 POP JUMP JUMPDEST PUSH0 DUP2 SWAP1 POP SWAP2 SWAP1 POP JUMP JUMPDEST PUSH2 0xB59 DUP4 PUSH2 0xB26 JUMP JUMPDEST PUSH2 0xB6D PUSH2 0xB65 DUP3 PUSH2 0xB47 JUMP JUMPDEST DUP5 DUP5 SLOAD PUSH2 0xACC JUMP JUMPDEST DUP3 SSTORE POP POP POP POP JUMP JUMPDEST PUSH0 SWAP1 JUMP JUMPDEST PUSH2 0xB81 PUSH2 0xB75 JUMP JUMPDEST PUSH2 0xB8C DUP2 DUP5 DUP5 PUSH2 0xB50 JUMP JUMPDEST POP POP POP JUMP JUMPDEST JUMPDEST DUP2 DUP2 LT ISZERO PUSH2 0xBAF JUMPI PUSH2 0xBA4 PUSH0 DUP3 PUSH2 0xB79 JUMP JUMPDEST PUSH1 0x1 DUP2 ADD SWAP1 POP PUSH2 0xB92 JUMP JUMPDEST POP POP JUMP JUMPDEST PUSH1 0x1F DUP3 GT ISZERO PUSH2 0xBF4 JUMPI PUSH2 0xBC5 DUP2 PUSH2 0xA9F JUMP JUMPDEST PUSH2 0xBCE DUP5 PUSH2 0xAB1 JUMP JUMPDEST DUP2 ADD PUSH1 0x20 DUP6 LT ISZERO PUSH2 0xBDD JUMPI DUP2 SWAP1 POP JUMPDEST PUSH2 0xBF1 PUSH2 0xBE9 DUP6 PUSH2 0xAB1 JUMP JUMPDEST DUP4 ADD DUP3 PUSH2 0xB91 JUMP JUMPDEST POP POP JUMPDEST POP POP POP JUMP JUMPDEST PUSH0 DUP3 DUP3 SHR SWAP1 POP SWAP3 SWAP2 POP POP JUMP JUMPDEST PUSH0 PUSH2 0xC14 PUSH0 NOT DUP5 PUSH1 0x8 MUL PUSH2 0xBF9 JUMP JUMPDEST NOT DUP1 DUP4 AND SWAP2 POP POP SWAP3 SWAP2 POP POP JUMP JUMPDEST PUSH0 PUSH2 0xC2C DUP4 DUP4 PUSH2 0xC05 JUMP JUMPDEST SWAP2 POP DUP3 PUSH1 0x2 MUL DUP3 OR SWAP1 POP SWAP3 SWAP2 POP POP JUMP JUMPDEST PUSH2 0xC45 DUP3 PUSH2 0x930 JUMP JUMPDEST PUSH8 0xFFFFFFFFFFFFFFFF DUP2 GT ISZERO PUSH2 0xC5E JUMPI PUSH2 0xC5D PUSH2 0x6EA JUMP JUMPDEST JUMPDEST PUSH2 0xC68 DUP3 SLOAD PUSH2 0xA6F JUMP JUMPDEST PUSH2 0xC73 DUP3 DUP3 DUP6 PUSH2 0xBB3 JUMP JUMPDEST PUSH0 PUSH1 0x20 SWAP1 POP PUSH1 0x1F DUP4 GT PUSH1 0x1 DUP2 EQ PUSH2 0xCA4 JUMPI PUSH0 DUP5 ISZERO PUSH2 0xC92 JUMPI DUP3 DUP8 ADD MLOAD SWAP1 POP JUMPDEST PUSH2 0xC9C DUP6 DUP3 PUSH2 0xC21 JUMP JUMPDEST DUP7 SSTORE POP PUSH2 0xD03 JUMP JUMPDEST PUSH1 0x1F NOT DUP5 AND PUSH2 0xCB2 DUP7 PUSH2 0xA9F JUMP JUMPDEST PUSH0 JUMPDEST DUP3 DUP2 LT ISZERO PUSH2 0xCD9 JUMPI DUP5 DUP10 ADD MLOAD DUP3 SSTORE PUSH1 0x1 DUP3 ADD SWAP2 POP PUSH1 0x20 DUP6 ADD SWAP5 POP PUSH1 0x20 DUP2 ADD SWAP1 POP PUSH2 0xCB4 JUMP JUMPDEST DUP7 DUP4 LT ISZERO PUSH2 0xCF6 JUMPI DUP5 DUP10 ADD MLOAD PUSH2 0xCF2 PUSH1 0x1F DUP10 AND DUP3 PUSH2 0xC05 JUMP JUMPDEST DUP4 SSTORE POP JUMPDEST PUSH1 0x1 PUSH1 0x2 DUP9 MUL ADD DUP9 SSTORE POP POP POP JUMPDEST POP POP POP POP POP POP JUMP JUMPDEST PUSH0 PUSH1 0x60 DUP3 ADD SWAP1 POP PUSH2 0xD1E PUSH0 DUP4 ADD DUP7 PUSH2 0x68B JUMP JUMPDEST DUP2 DUP2 SUB PUSH1 0x20 DUP4 ADD MSTORE PUSH2 0xD30 DUP2 DUP6 PUSH2 0x958 JUMP JUMPDEST SWAP1 POP PUSH2 0xD3F PUSH1 0x40 DUP4 ADD DUP5 PUSH2 0x68B JUMP JUMPDEST SWAP5 SWAP4 POP POP POP POP JUMP JUMPDEST PUSH32 0x4E487B7100000000000000000000000000000000000000000000000000000000 PUSH0 MSTORE PUSH1 0x11 PUSH1 0x4 MSTORE PUSH1 0x24 PUSH0 REVERT JUMPDEST PUSH0 PUSH2 0xD7E DUP3 PUSH2 0x682 JUMP JUMPDEST SWAP2 POP PUSH32 0xFFFFFFFFFFFFFFFFFFFFFFFFFFFFFFFFFFFFFFFFFFFFFFFFFFFFFFFFFFFFFFFF DUP3 SUB PUSH2 0xDB0 JUMPI PUSH2 0xDAF PUSH2 0xD47 JUMP JUMPDEST JUMPDEST PUSH1 0x1 DUP3 ADD SWAP1 POP SWAP2 SWAP1 POP JUMP JUMPDEST PUSH32 0x4F6E6C7920746865206F776E65722063616E2063616C6C20746869732066756E PUSH0 DUP3 ADD MSTORE PUSH32 0x6374696F6E2E0000000000000000000000000000000000000000000000000000 PUSH1 0x20 DUP3 ADD MSTORE POP JUMP JUMPDEST PUSH0 PUSH2 0xE15 PUSH1 0x26 DUP4 PUSH2 0x93A JUMP JUMPDEST SWAP2 POP PUSH2 0xE20 DUP3 PUSH2 0xDBB JUMP JUMPDEST PUSH1 0x40 DUP3 ADD SWAP1 POP SWAP2 SWAP1 POP JUMP JUMPDEST PUSH0 PUSH1 0x20 DUP3 ADD SWAP1 POP DUP2 DUP2 SUB PUSH0 DUP4 ADD MSTORE PUSH2 0xE42 DUP2 PUSH2 0xE09 JUMP JUMPDEST SWAP1 POP SWAP2 SWAP1 POP JUMP JUMPDEST PUSH32 0x5461736B204944206973206E6F742076616C6964000000000000000000000000 PUSH0 DUP3 ADD MSTORE POP JUMP JUMPDEST PUSH0 PUSH2 0xE7D PUSH1 0x14 DUP4 PUSH2 0x93A JUMP JUMPDEST SWAP2 POP PUSH2 0xE88 DUP3 PUSH2 0xE49 JUMP JUMPDEST PUSH1 0x20 DUP3 ADD SWAP1 POP SWAP2 SWAP1 POP JUMP JUMPDEST PUSH0 PUSH1 0x20 DUP3 ADD SWAP1 POP DUP2 DUP2 SUB PUSH0 DUP4 ADD MSTORE PUSH2 0xEAA DUP2 PUSH2 0xE71 JUMP JUMPDEST SWAP1 POP SWAP2 SWAP1 POP JUMP JUMPDEST PUSH0 PUSH1 0x40 DUP3 ADD SWAP1 POP PUSH2 0xEC4 PUSH0 DUP4 ADD DUP6 PUSH2 0x68B JUMP JUMPDEST PUSH2 0xED1 PUSH1 0x20 DUP4 ADD DUP5 PUSH2 0x990 JUMP JUMPDEST SWAP4 SWAP3 POP POP POP JUMP JUMPDEST PUSH32 0x46756E64696E67207461736B0000000000000000000000000000000000000000 PUSH0 DUP3 ADD MSTORE POP JUMP JUMPDEST PUSH0 PUSH2 0xF0C PUSH1 0xC DUP4 PUSH2 0x93A JUMP JUMPDEST SWAP2 POP PUSH2 0xF17 DUP3 PUSH2 0xED8 JUMP JUMPDEST PUSH1 0x20 DUP3 ADD SWAP1 POP SWAP2 SWAP1 POP JUMP JUMPDEST PUSH0 PUSH1 0x40 DUP3 ADD SWAP1 POP DUP2 DUP2 SUB PUSH0 DUP4 ADD MSTORE PUSH2 0xF39 DUP2 PUSH2 0xF00 JUMP JUMPDEST SWAP1 POP PUSH2 0xF48 PUSH1 0x20 DUP4 ADD DUP5 PUSH2 0x68B JUMP JUMPDEST SWAP3 SWAP2 POP POP JUMP JUMPDEST PUSH32 0x496E76616C6964207461736B2049440000000000000000000000000000000000 PUSH0 DUP3 ADD MSTORE POP JUMP JUMPDEST PUSH0 PUSH2 0xF82 PUSH1 0xF DUP4 PUSH2 0x93A JUMP JUMPDEST SWAP2 POP PUSH2 0xF8D DUP3 PUSH2 0xF4E JUMP JUMPDEST PUSH1 0x20 DUP3 ADD SWAP1 POP SWAP2 SWAP1 POP JUMP JUMPDEST PUSH0 PUSH1 0x20 DUP3 ADD SWAP1 POP DUP2 DUP2 SUB PUSH0 DUP4 ADD MSTORE PUSH2 0xFAF DUP2 PUSH2 0xF76 JUMP JUMPDEST SWAP1 POP SWAP2 SWAP1 POP JUMP JUMPDEST PUSH0 PUSH2 0xFC0 DUP3 PUSH2 0x682 JUMP JUMPDEST SWAP2 POP PUSH2 0xFCB DUP4 PUSH2 0x682 JUMP JUMPDEST SWAP3 POP DUP3 DUP3 ADD SWAP1 POP DUP1 DUP3 GT ISZERO PUSH2 0xFE3 JUMPI PUSH2 0xFE2 PUSH2 0xD47 JUMP JUMPDEST JUMPDEST SWAP3 SWAP2 POP POP JUMP JUMPDEST PUSH32 0x416D6F756E742072616973656420757064617465640000000000000000000000 PUSH0 DUP3 ADD MSTORE POP JUMP JUMPDEST PUSH0 PUSH2 0x101D PUSH1 0x15 DUP4 PUSH2 0x93A JUMP JUMPDEST SWAP2 POP PUSH2 0x1028 DUP3 PUSH2 0xFE9 JUMP JUMPDEST PUSH1 0x20 DUP3 ADD SWAP1 POP SWAP2 SWAP1 POP JUMP JUMPDEST PUSH0 PUSH1 0x40 DUP3 ADD SWAP1 POP DUP2 DUP2 SUB PUSH0 DUP4 ADD MSTORE PUSH2 0x104A DUP2 PUSH2 0x1011 JUMP JUMPDEST SWAP1 POP PUSH2 0x1059 PUSH1 0x20 DUP4 ADD DUP5 PUSH2 0x68B JUMP JUMPDEST SWAP3 SWAP2 POP POP JUMP JUMPDEST PUSH32 0x5461736B206973206E6F77206F70656E00000000000000000000000000000000 PUSH0 DUP3 ADD MSTORE POP JUMP JUMPDEST PUSH0 PUSH2 0x1093 PUSH1 0x10 DUP4 PUSH2 0x93A JUMP JUMPDEST SWAP2 POP PUSH2 0x109E DUP3 PUSH2 0x105F JUMP JUMPDEST PUSH1 0x20 DUP3 ADD SWAP1 POP SWAP2 SWAP1 POP JUMP JUMPDEST PUSH0 PUSH1 0x40 DUP3 ADD SWAP1 POP DUP2 DUP2 SUB PUSH0 DUP4 ADD MSTORE PUSH2 0x10C0 DUP2 PUSH2 0x1087 JUMP JUMPDEST SWAP1 POP PUSH2 0x10CF PUSH1 0x20 DUP4 ADD DUP5 PUSH2 0x68B JUMP JUMPDEST SWAP3 SWAP2 POP POP JUMP INVALID LOG2 PUSH5 0x6970667358 0x22 SLT KECCAK256 CODESIZE 0x2B EXTCODESIZE 0xC9 0xEA 0xFB 0xCD DUP10 LOG2 0xC4 DUP5 PUSH15 0x3ED81A42CB4278BD05926E09D8E0ED PUSH16 0x68B62F7C64736F6C6343000819003300 "
				},
				"gasEstimates": {
					"creation": {
						"codeDepositCost": "872600",
						"executionCost": "30177",
						"totalCost": "902777"
					},
					"external": {
						"createTask(string,uint256)": "infinite",
						"executeTask(uint256,bool)": "infinite",
						"fundTask(uint256)": "infinite",
						"owner()": "2552",
						"taskCount()": "2490",
						"tasks(uint256)": "infinite"
					}
				},
				"methodIdentifiers": {
					"createTask(string,uint256)": "04fe2b34",
					"executeTask(uint256,bool)": "60c539d3",
					"fundTask(uint256)": "d1ff21c2",
					"owner()": "8da5cb5b",
					"taskCount()": "b6cb58a5",
					"tasks(uint256)": "8d977672"
				}
			},
			"storageLayout": {
				"storage": [
					{
						"astId": 15,
						"contract": "contracts/TaskContract.sol:TaskContract",
						"label": "taskCount",
						"offset": 0,
						"slot": "0",
						"type": "t_uint256"
					},
					{
						"astId": 20,
						"contract": "contracts/TaskContract.sol:TaskContract",
						"label": "tasks",
						"offset": 0,
						"slot": "1",
						"type": "t_mapping(t_uint256,t_struct(Task)12_storage)"
					},
					{
						"astId": 22,
						"contract": "contracts/TaskContract.sol:TaskContract",
						"label": "owner",
						"offset": 0,
						"slot": "2",
						"type": "t_address"
					}
				],
				"types": {
					"t_address": {
						"encoding": "inplace",
						"label": "address",
						"numberOfBytes": "20"
					},
					"t_bool": {
						"encoding": "inplace",
						"label": "bool",
						"numberOfBytes": "1"
					},
					"t_mapping(t_uint256,t_struct(Task)12_storage)": {
						"encoding": "mapping",
						"key": "t_uint256",
						"label": "mapping(uint256 => struct TaskContract.Task)",
						"numberOfBytes": "32",
						"value": "t_struct(Task)12_storage"
					},
					"t_string_storage": {
						"encoding": "bytes",
						"label": "string",
						"numberOfBytes": "32"
					},
					"t_struct(Task)12_storage": {
						"encoding": "inplace",
						"label": "struct TaskContract.Task",
						"members": [
							{
								"astId": 3,
								"contract": "contracts/TaskContract.sol:TaskContract",
								"label": "description",
								"offset": 0,
								"slot": "0",
								"type": "t_string_storage"
							},
							{
								"astId": 5,
								"contract": "contracts/TaskContract.sol:TaskContract",
								"label": "fundingGoal",
								"offset": 0,
								"slot": "1",
								"type": "t_uint256"
							},
							{
								"astId": 7,
								"contract": "contracts/TaskContract.sol:TaskContract",
								"label": "amountRaised",
								"offset": 0,
								"slot": "2",
								"type": "t_uint256"
							},
							{
								"astId": 9,
								"contract": "contracts/TaskContract.sol:TaskContract",
								"label": "isOpen",
								"offset": 0,
								"slot": "3",
								"type": "t_bool"
							},
							{
								"astId": 11,
								"contract": "contracts/TaskContract.sol:TaskContract",
								"label": "isSuccess",
								"offset": 1,
								"slot": "3",
								"type": "t_bool"
							}
						],
						"numberOfBytes": "128"
					},
					"t_uint256": {
						"encoding": "inplace",
						"label": "uint256",
						"numberOfBytes": "32"
					}
				}
			},
			"userdoc": {
				"kind": "user",
				"methods": {},
				"version": 1
			}
		}
	}
}